
HubsanFlightRec.elf:     file format elf32-littlearm

Sections:
Idx Name          Size      VMA       LMA       File off  Algn
  0 .isr_vector   0000010c  08008000  08008000  00008000  2**0
                  CONTENTS, ALLOC, LOAD, READONLY, DATA
  1 .text         0000ba4c  08008110  08008110  00008110  2**3
                  CONTENTS, ALLOC, LOAD, READONLY, CODE
  2 .rodata       0000151c  08013b5c  08013b5c  00013b5c  2**2
                  CONTENTS, ALLOC, LOAD, READONLY, DATA
  3 .init_array   00000014  08015078  08015078  00015078  2**2
                  CONTENTS, ALLOC, LOAD, DATA
  4 .fini_array   00000004  0801508c  0801508c  0001508c  2**2
                  CONTENTS, ALLOC, LOAD, DATA
  5 .data         00000a34  20000000  08015090  00020000  2**3
                  CONTENTS, ALLOC, LOAD, DATA
  6 .AppDefArea   00000000  08015ac4  08015ac4  00020a34  2**0
                  CONTENTS
  7 .bss          000034d0  20000a34  20000a34  00020a34  2**2
                  ALLOC
  8 ._user_heap_stack 00001000  20003f04  20003f04  00020a34  2**0
                  ALLOC
  9 .ARM.attributes 00000029  00000000  00000000  00020a34  2**0
                  CONTENTS, READONLY
 10 .comment      0000007c  00000000  00000000  00020a5d  2**0
                  CONTENTS, READONLY
 11 .debug_frame  00000b80  00000000  00000000  00020adc  2**2
                  CONTENTS, READONLY, DEBUGGING

Disassembly of section .text:

08008110 <AppHeader>:
 8008110:	41 70 70 6c 01 00 06 01 c8 5a 01 08 20 47 01 08     Appl.....Z.. G..
 8008120:	2f 47 01 08 3b 47 01 08 44 47 01 08                 /G..;G..DG..

0800812c <__do_global_dtors_aux>:
 800812c:	b510      	push	{r4, lr}
 800812e:	4c05      	ldr	r4, [pc, #20]	; (8008144 <__do_global_dtors_aux+0x18>)
 8008130:	7823      	ldrb	r3, [r4, #0]
 8008132:	b933      	cbnz	r3, 8008142 <__do_global_dtors_aux+0x16>
 8008134:	4b04      	ldr	r3, [pc, #16]	; (8008148 <__do_global_dtors_aux+0x1c>)
 8008136:	b113      	cbz	r3, 800813e <__do_global_dtors_aux+0x12>
 8008138:	4804      	ldr	r0, [pc, #16]	; (800814c <__do_global_dtors_aux+0x20>)
 800813a:	f3af 8000 	nop.w
 800813e:	2301      	movs	r3, #1
 8008140:	7023      	strb	r3, [r4, #0]
 8008142:	bd10      	pop	{r4, pc}
 8008144:	20000a34 	.word	0x20000a34
 8008148:	00000000 	.word	0x00000000
 800814c:	08013b44 	.word	0x08013b44

08008150 <frame_dummy>:
 8008150:	b508      	push	{r3, lr}
 8008152:	4b03      	ldr	r3, [pc, #12]	; (8008160 <frame_dummy+0x10>)
 8008154:	b11b      	cbz	r3, 800815e <frame_dummy+0xe>
 8008156:	4903      	ldr	r1, [pc, #12]	; (8008164 <frame_dummy+0x14>)
 8008158:	4803      	ldr	r0, [pc, #12]	; (8008168 <frame_dummy+0x18>)
 800815a:	f3af 8000 	nop.w
 800815e:	bd08      	pop	{r3, pc}
 8008160:	00000000 	.word	0x00000000
 8008164:	20000a38 	.word	0x20000a38
 8008168:	08013b44 	.word	0x08013b44

0800816c <strcmp>:
 800816c:	f810 2b01 	ldrb.w	r2, [r0], #1
 8008170:	f811 3b01 	ldrb.w	r3, [r1], #1
 8008174:	2a01      	cmp	r2, #1
 8008176:	bf28      	it	cs
 8008178:	429a      	cmpcs	r2, r3
 800817a:	d0f7      	beq.n	800816c <strcmp>
 800817c:	1ad0      	subs	r0, r2, r3
 800817e:	4770      	bx	lr

08008180 <strlen>:
 8008180:	4603      	mov	r3, r0
 8008182:	f813 2b01 	ldrb.w	r2, [r3], #1
 8008186:	2a00      	cmp	r2, #0
 8008188:	d1fb      	bne.n	8008182 <strlen+0x2>
 800818a:	1a18      	subs	r0, r3, r0
 800818c:	3801      	subs	r0, #1
 800818e:	4770      	bx	lr

08008190 <__aeabi_llsl>:
 8008190:	4091      	lsls	r1, r2
 8008192:	1c03      	adds	r3, r0, #0
 8008194:	4090      	lsls	r0, r2
 8008196:	469c      	mov	ip, r3
 8008198:	3a20      	subs	r2, #32
 800819a:	4093      	lsls	r3, r2
 800819c:	4319      	orrs	r1, r3
 800819e:	4252      	negs	r2, r2
 80081a0:	4663      	mov	r3, ip
 80081a2:	40d3      	lsrs	r3, r2
 80081a4:	4319      	orrs	r1, r3
 80081a6:	4770      	bx	lr

080081a8 <__aeabi_drsub>:
 80081a8:	f081 4100 	eor.w	r1, r1, #2147483648	; 0x80000000
 80081ac:	e002      	b.n	80081b4 <__adddf3>
 80081ae:	bf00      	nop

080081b0 <__aeabi_dsub>:
 80081b0:	f083 4300 	eor.w	r3, r3, #2147483648	; 0x80000000

080081b4 <__adddf3>:
 80081b4:	b530      	push	{r4, r5, lr}
 80081b6:	ea4f 0441 	mov.w	r4, r1, lsl #1
 80081ba:	ea4f 0543 	mov.w	r5, r3, lsl #1
 80081be:	ea94 0f05 	teq	r4, r5
 80081c2:	bf08      	it	eq
 80081c4:	ea90 0f02 	teqeq	r0, r2
 80081c8:	bf1f      	itttt	ne
 80081ca:	ea54 0c00 	orrsne.w	ip, r4, r0
 80081ce:	ea55 0c02 	orrsne.w	ip, r5, r2
 80081d2:	ea7f 5c64 	mvnsne.w	ip, r4, asr #21
 80081d6:	ea7f 5c65 	mvnsne.w	ip, r5, asr #21
 80081da:	f000 80e2 	beq.w	80083a2 <__adddf3+0x1ee>
 80081de:	ea4f 5454 	mov.w	r4, r4, lsr #21
 80081e2:	ebd4 5555 	rsbs	r5, r4, r5, lsr #21
 80081e6:	bfb8      	it	lt
 80081e8:	426d      	neglt	r5, r5
 80081ea:	dd0c      	ble.n	8008206 <__adddf3+0x52>
 80081ec:	442c      	add	r4, r5
 80081ee:	ea80 0202 	eor.w	r2, r0, r2
 80081f2:	ea81 0303 	eor.w	r3, r1, r3
 80081f6:	ea82 0000 	eor.w	r0, r2, r0
 80081fa:	ea83 0101 	eor.w	r1, r3, r1
 80081fe:	ea80 0202 	eor.w	r2, r0, r2
 8008202:	ea81 0303 	eor.w	r3, r1, r3
 8008206:	2d36      	cmp	r5, #54	; 0x36
 8008208:	bf88      	it	hi
 800820a:	bd30      	pophi	{r4, r5, pc}
 800820c:	f011 4f00 	tst.w	r1, #2147483648	; 0x80000000
 8008210:	ea4f 3101 	mov.w	r1, r1, lsl #12
 8008214:	f44f 1c80 	mov.w	ip, #1048576	; 0x100000
 8008218:	ea4c 3111 	orr.w	r1, ip, r1, lsr #12
 800821c:	d002      	beq.n	8008224 <__adddf3+0x70>
 800821e:	4240      	negs	r0, r0
 8008220:	eb61 0141 	sbc.w	r1, r1, r1, lsl #1
 8008224:	f013 4f00 	tst.w	r3, #2147483648	; 0x80000000
 8008228:	ea4f 3303 	mov.w	r3, r3, lsl #12
 800822c:	ea4c 3313 	orr.w	r3, ip, r3, lsr #12
 8008230:	d002      	beq.n	8008238 <__adddf3+0x84>
 8008232:	4252      	negs	r2, r2
 8008234:	eb63 0343 	sbc.w	r3, r3, r3, lsl #1
 8008238:	ea94 0f05 	teq	r4, r5
 800823c:	f000 80a7 	beq.w	800838e <__adddf3+0x1da>
 8008240:	f1a4 0401 	sub.w	r4, r4, #1
 8008244:	f1d5 0e20 	rsbs	lr, r5, #32
 8008248:	db0d      	blt.n	8008266 <__adddf3+0xb2>
 800824a:	fa02 fc0e 	lsl.w	ip, r2, lr
 800824e:	fa22 f205 	lsr.w	r2, r2, r5
 8008252:	1880      	adds	r0, r0, r2
 8008254:	f141 0100 	adc.w	r1, r1, #0
 8008258:	fa03 f20e 	lsl.w	r2, r3, lr
 800825c:	1880      	adds	r0, r0, r2
 800825e:	fa43 f305 	asr.w	r3, r3, r5
 8008262:	4159      	adcs	r1, r3
 8008264:	e00e      	b.n	8008284 <__adddf3+0xd0>
 8008266:	f1a5 0520 	sub.w	r5, r5, #32
 800826a:	f10e 0e20 	add.w	lr, lr, #32
 800826e:	2a01      	cmp	r2, #1
 8008270:	fa03 fc0e 	lsl.w	ip, r3, lr
 8008274:	bf28      	it	cs
 8008276:	f04c 0c02 	orrcs.w	ip, ip, #2
 800827a:	fa43 f305 	asr.w	r3, r3, r5
 800827e:	18c0      	adds	r0, r0, r3
 8008280:	eb51 71e3 	adcs.w	r1, r1, r3, asr #31
 8008284:	f001 4500 	and.w	r5, r1, #2147483648	; 0x80000000
 8008288:	d507      	bpl.n	800829a <__adddf3+0xe6>
 800828a:	f04f 0e00 	mov.w	lr, #0
 800828e:	f1dc 0c00 	rsbs	ip, ip, #0
 8008292:	eb7e 0000 	sbcs.w	r0, lr, r0
 8008296:	eb6e 0101 	sbc.w	r1, lr, r1
 800829a:	f5b1 1f80 	cmp.w	r1, #1048576	; 0x100000
 800829e:	d31b      	bcc.n	80082d8 <__adddf3+0x124>
 80082a0:	f5b1 1f00 	cmp.w	r1, #2097152	; 0x200000
 80082a4:	d30c      	bcc.n	80082c0 <__adddf3+0x10c>
 80082a6:	0849      	lsrs	r1, r1, #1
 80082a8:	ea5f 0030 	movs.w	r0, r0, rrx
 80082ac:	ea4f 0c3c 	mov.w	ip, ip, rrx
 80082b0:	f104 0401 	add.w	r4, r4, #1
 80082b4:	ea4f 5244 	mov.w	r2, r4, lsl #21
 80082b8:	f512 0f80 	cmn.w	r2, #4194304	; 0x400000
 80082bc:	f080 809a 	bcs.w	80083f4 <__adddf3+0x240>
 80082c0:	f1bc 4f00 	cmp.w	ip, #2147483648	; 0x80000000
 80082c4:	bf08      	it	eq
 80082c6:	ea5f 0c50 	movseq.w	ip, r0, lsr #1
 80082ca:	f150 0000 	adcs.w	r0, r0, #0
 80082ce:	eb41 5104 	adc.w	r1, r1, r4, lsl #20
 80082d2:	ea41 0105 	orr.w	r1, r1, r5
 80082d6:	bd30      	pop	{r4, r5, pc}
 80082d8:	ea5f 0c4c 	movs.w	ip, ip, lsl #1
 80082dc:	4140      	adcs	r0, r0
 80082de:	eb41 0101 	adc.w	r1, r1, r1
 80082e2:	f411 1f80 	tst.w	r1, #1048576	; 0x100000
 80082e6:	f1a4 0401 	sub.w	r4, r4, #1
 80082ea:	d1e9      	bne.n	80082c0 <__adddf3+0x10c>
 80082ec:	f091 0f00 	teq	r1, #0
 80082f0:	bf04      	itt	eq
 80082f2:	4601      	moveq	r1, r0
 80082f4:	2000      	moveq	r0, #0
 80082f6:	fab1 f381 	clz	r3, r1
 80082fa:	bf08      	it	eq
 80082fc:	3320      	addeq	r3, #32
 80082fe:	f1a3 030b 	sub.w	r3, r3, #11
 8008302:	f1b3 0220 	subs.w	r2, r3, #32
 8008306:	da0c      	bge.n	8008322 <__adddf3+0x16e>
 8008308:	320c      	adds	r2, #12
 800830a:	dd08      	ble.n	800831e <__adddf3+0x16a>
 800830c:	f102 0c14 	add.w	ip, r2, #20
 8008310:	f1c2 020c 	rsb	r2, r2, #12
 8008314:	fa01 f00c 	lsl.w	r0, r1, ip
 8008318:	fa21 f102 	lsr.w	r1, r1, r2
 800831c:	e00c      	b.n	8008338 <__adddf3+0x184>
 800831e:	f102 0214 	add.w	r2, r2, #20
 8008322:	bfd8      	it	le
 8008324:	f1c2 0c20 	rsble	ip, r2, #32
 8008328:	fa01 f102 	lsl.w	r1, r1, r2
 800832c:	fa20 fc0c 	lsr.w	ip, r0, ip
 8008330:	bfdc      	itt	le
 8008332:	ea41 010c 	orrle.w	r1, r1, ip
 8008336:	4090      	lslle	r0, r2
 8008338:	1ae4      	subs	r4, r4, r3
 800833a:	bfa2      	ittt	ge
 800833c:	eb01 5104 	addge.w	r1, r1, r4, lsl #20
 8008340:	4329      	orrge	r1, r5
 8008342:	bd30      	popge	{r4, r5, pc}
 8008344:	ea6f 0404 	mvn.w	r4, r4
 8008348:	3c1f      	subs	r4, #31
 800834a:	da1c      	bge.n	8008386 <__adddf3+0x1d2>
 800834c:	340c      	adds	r4, #12
 800834e:	dc0e      	bgt.n	800836e <__adddf3+0x1ba>
 8008350:	f104 0414 	add.w	r4, r4, #20
 8008354:	f1c4 0220 	rsb	r2, r4, #32
 8008358:	fa20 f004 	lsr.w	r0, r0, r4
 800835c:	fa01 f302 	lsl.w	r3, r1, r2
 8008360:	ea40 0003 	orr.w	r0, r0, r3
 8008364:	fa21 f304 	lsr.w	r3, r1, r4
 8008368:	ea45 0103 	orr.w	r1, r5, r3
 800836c:	bd30      	pop	{r4, r5, pc}
 800836e:	f1c4 040c 	rsb	r4, r4, #12
 8008372:	f1c4 0220 	rsb	r2, r4, #32
 8008376:	fa20 f002 	lsr.w	r0, r0, r2
 800837a:	fa01 f304 	lsl.w	r3, r1, r4
 800837e:	ea40 0003 	orr.w	r0, r0, r3
 8008382:	4629      	mov	r1, r5
 8008384:	bd30      	pop	{r4, r5, pc}
 8008386:	fa21 f004 	lsr.w	r0, r1, r4
 800838a:	4629      	mov	r1, r5
 800838c:	bd30      	pop	{r4, r5, pc}
 800838e:	f094 0f00 	teq	r4, #0
 8008392:	f483 1380 	eor.w	r3, r3, #1048576	; 0x100000
 8008396:	bf06      	itte	eq
 8008398:	f481 1180 	eoreq.w	r1, r1, #1048576	; 0x100000
 800839c:	3401      	addeq	r4, #1
 800839e:	3d01      	subne	r5, #1
 80083a0:	e74e      	b.n	8008240 <__adddf3+0x8c>
 80083a2:	ea7f 5c64 	mvns.w	ip, r4, asr #21
 80083a6:	bf18      	it	ne
 80083a8:	ea7f 5c65 	mvnsne.w	ip, r5, asr #21
 80083ac:	d029      	beq.n	8008402 <__adddf3+0x24e>
 80083ae:	ea94 0f05 	teq	r4, r5
 80083b2:	bf08      	it	eq
 80083b4:	ea90 0f02 	teqeq	r0, r2
 80083b8:	d005      	beq.n	80083c6 <__adddf3+0x212>
 80083ba:	ea54 0c00 	orrs.w	ip, r4, r0
 80083be:	bf04      	itt	eq
 80083c0:	4619      	moveq	r1, r3
 80083c2:	4610      	moveq	r0, r2
 80083c4:	bd30      	pop	{r4, r5, pc}
 80083c6:	ea91 0f03 	teq	r1, r3
 80083ca:	bf1e      	ittt	ne
 80083cc:	2100      	movne	r1, #0
 80083ce:	2000      	movne	r0, #0
 80083d0:	bd30      	popne	{r4, r5, pc}
 80083d2:	ea5f 5c54 	movs.w	ip, r4, lsr #21
 80083d6:	d105      	bne.n	80083e4 <__adddf3+0x230>
 80083d8:	0040      	lsls	r0, r0, #1
 80083da:	4149      	adcs	r1, r1
 80083dc:	bf28      	it	cs
 80083de:	f041 4100 	orrcs.w	r1, r1, #2147483648	; 0x80000000
 80083e2:	bd30      	pop	{r4, r5, pc}
 80083e4:	f514 0480 	adds.w	r4, r4, #4194304	; 0x400000
 80083e8:	bf3c      	itt	cc
 80083ea:	f501 1180 	addcc.w	r1, r1, #1048576	; 0x100000
 80083ee:	bd30      	popcc	{r4, r5, pc}
 80083f0:	f001 4500 	and.w	r5, r1, #2147483648	; 0x80000000
 80083f4:	f045 41fe 	orr.w	r1, r5, #2130706432	; 0x7f000000
 80083f8:	f441 0170 	orr.w	r1, r1, #15728640	; 0xf00000
 80083fc:	f04f 0000 	mov.w	r0, #0
 8008400:	bd30      	pop	{r4, r5, pc}
 8008402:	ea7f 5c64 	mvns.w	ip, r4, asr #21
 8008406:	bf1a      	itte	ne
 8008408:	4619      	movne	r1, r3
 800840a:	4610      	movne	r0, r2
 800840c:	ea7f 5c65 	mvnseq.w	ip, r5, asr #21
 8008410:	bf1c      	itt	ne
 8008412:	460b      	movne	r3, r1
 8008414:	4602      	movne	r2, r0
 8008416:	ea50 3401 	orrs.w	r4, r0, r1, lsl #12
 800841a:	bf06      	itte	eq
 800841c:	ea52 3503 	orrseq.w	r5, r2, r3, lsl #12
 8008420:	ea91 0f03 	teqeq	r1, r3
 8008424:	f441 2100 	orrne.w	r1, r1, #524288	; 0x80000
 8008428:	bd30      	pop	{r4, r5, pc}
 800842a:	bf00      	nop

0800842c <__aeabi_ui2d>:
 800842c:	f090 0f00 	teq	r0, #0
 8008430:	bf04      	itt	eq
 8008432:	2100      	moveq	r1, #0
 8008434:	4770      	bxeq	lr
 8008436:	b530      	push	{r4, r5, lr}
 8008438:	f44f 6480 	mov.w	r4, #1024	; 0x400
 800843c:	f104 0432 	add.w	r4, r4, #50	; 0x32
 8008440:	f04f 0500 	mov.w	r5, #0
 8008444:	f04f 0100 	mov.w	r1, #0
 8008448:	e750      	b.n	80082ec <__adddf3+0x138>
 800844a:	bf00      	nop

0800844c <__aeabi_i2d>:
 800844c:	f090 0f00 	teq	r0, #0
 8008450:	bf04      	itt	eq
 8008452:	2100      	moveq	r1, #0
 8008454:	4770      	bxeq	lr
 8008456:	b530      	push	{r4, r5, lr}
 8008458:	f44f 6480 	mov.w	r4, #1024	; 0x400
 800845c:	f104 0432 	add.w	r4, r4, #50	; 0x32
 8008460:	f010 4500 	ands.w	r5, r0, #2147483648	; 0x80000000
 8008464:	bf48      	it	mi
 8008466:	4240      	negmi	r0, r0
 8008468:	f04f 0100 	mov.w	r1, #0
 800846c:	e73e      	b.n	80082ec <__adddf3+0x138>
 800846e:	bf00      	nop

08008470 <__aeabi_f2d>:
 8008470:	0042      	lsls	r2, r0, #1
 8008472:	ea4f 01e2 	mov.w	r1, r2, asr #3
 8008476:	ea4f 0131 	mov.w	r1, r1, rrx
 800847a:	ea4f 7002 	mov.w	r0, r2, lsl #28
 800847e:	bf1f      	itttt	ne
 8008480:	f012 437f 	andsne.w	r3, r2, #4278190080	; 0xff000000
 8008484:	f093 4f7f 	teqne	r3, #4278190080	; 0xff000000
 8008488:	f081 5160 	eorne.w	r1, r1, #939524096	; 0x38000000
 800848c:	4770      	bxne	lr
 800848e:	f092 0f00 	teq	r2, #0
 8008492:	bf14      	ite	ne
 8008494:	f093 4f7f 	teqne	r3, #4278190080	; 0xff000000
 8008498:	4770      	bxeq	lr
 800849a:	b530      	push	{r4, r5, lr}
 800849c:	f44f 7460 	mov.w	r4, #896	; 0x380
 80084a0:	f001 4500 	and.w	r5, r1, #2147483648	; 0x80000000
 80084a4:	f021 4100 	bic.w	r1, r1, #2147483648	; 0x80000000
 80084a8:	e720      	b.n	80082ec <__adddf3+0x138>
 80084aa:	bf00      	nop

080084ac <__aeabi_ul2d>:
 80084ac:	ea50 0201 	orrs.w	r2, r0, r1
 80084b0:	bf08      	it	eq
 80084b2:	4770      	bxeq	lr
 80084b4:	b530      	push	{r4, r5, lr}
 80084b6:	f04f 0500 	mov.w	r5, #0
 80084ba:	e00a      	b.n	80084d2 <__aeabi_l2d+0x16>

080084bc <__aeabi_l2d>:
 80084bc:	ea50 0201 	orrs.w	r2, r0, r1
 80084c0:	bf08      	it	eq
 80084c2:	4770      	bxeq	lr
 80084c4:	b530      	push	{r4, r5, lr}
 80084c6:	f011 4500 	ands.w	r5, r1, #2147483648	; 0x80000000
 80084ca:	d502      	bpl.n	80084d2 <__aeabi_l2d+0x16>
 80084cc:	4240      	negs	r0, r0
 80084ce:	eb61 0141 	sbc.w	r1, r1, r1, lsl #1
 80084d2:	f44f 6480 	mov.w	r4, #1024	; 0x400
 80084d6:	f104 0432 	add.w	r4, r4, #50	; 0x32
 80084da:	ea5f 5c91 	movs.w	ip, r1, lsr #22
 80084de:	f43f aedc 	beq.w	800829a <__adddf3+0xe6>
 80084e2:	f04f 0203 	mov.w	r2, #3
 80084e6:	ea5f 0cdc 	movs.w	ip, ip, lsr #3
 80084ea:	bf18      	it	ne
 80084ec:	3203      	addne	r2, #3
 80084ee:	ea5f 0cdc 	movs.w	ip, ip, lsr #3
 80084f2:	bf18      	it	ne
 80084f4:	3203      	addne	r2, #3
 80084f6:	eb02 02dc 	add.w	r2, r2, ip, lsr #3
 80084fa:	f1c2 0320 	rsb	r3, r2, #32
 80084fe:	fa00 fc03 	lsl.w	ip, r0, r3
 8008502:	fa20 f002 	lsr.w	r0, r0, r2
 8008506:	fa01 fe03 	lsl.w	lr, r1, r3
 800850a:	ea40 000e 	orr.w	r0, r0, lr
 800850e:	fa21 f102 	lsr.w	r1, r1, r2
 8008512:	4414      	add	r4, r2
 8008514:	e6c1      	b.n	800829a <__adddf3+0xe6>
 8008516:	bf00      	nop

08008518 <__gedf2>:
 8008518:	f04f 3cff 	mov.w	ip, #4294967295
 800851c:	e006      	b.n	800852c <__cmpdf2+0x4>
 800851e:	bf00      	nop

08008520 <__ledf2>:
 8008520:	f04f 0c01 	mov.w	ip, #1
 8008524:	e002      	b.n	800852c <__cmpdf2+0x4>
 8008526:	bf00      	nop

08008528 <__cmpdf2>:
 8008528:	f04f 0c01 	mov.w	ip, #1
 800852c:	f84d cd04 	str.w	ip, [sp, #-4]!
 8008530:	ea4f 0c41 	mov.w	ip, r1, lsl #1
 8008534:	ea7f 5c6c 	mvns.w	ip, ip, asr #21
 8008538:	ea4f 0c43 	mov.w	ip, r3, lsl #1
 800853c:	bf18      	it	ne
 800853e:	ea7f 5c6c 	mvnsne.w	ip, ip, asr #21
 8008542:	d01b      	beq.n	800857c <__cmpdf2+0x54>
 8008544:	b001      	add	sp, #4
 8008546:	ea50 0c41 	orrs.w	ip, r0, r1, lsl #1
 800854a:	bf0c      	ite	eq
 800854c:	ea52 0c43 	orrseq.w	ip, r2, r3, lsl #1
 8008550:	ea91 0f03 	teqne	r1, r3
 8008554:	bf02      	ittt	eq
 8008556:	ea90 0f02 	teqeq	r0, r2
 800855a:	2000      	moveq	r0, #0
 800855c:	4770      	bxeq	lr
 800855e:	f110 0f00 	cmn.w	r0, #0
 8008562:	ea91 0f03 	teq	r1, r3
 8008566:	bf58      	it	pl
 8008568:	4299      	cmppl	r1, r3
 800856a:	bf08      	it	eq
 800856c:	4290      	cmpeq	r0, r2
 800856e:	bf2c      	ite	cs
 8008570:	17d8      	asrcs	r0, r3, #31
 8008572:	ea6f 70e3 	mvncc.w	r0, r3, asr #31
 8008576:	f040 0001 	orr.w	r0, r0, #1
 800857a:	4770      	bx	lr
 800857c:	ea4f 0c41 	mov.w	ip, r1, lsl #1
 8008580:	ea7f 5c6c 	mvns.w	ip, ip, asr #21
 8008584:	d102      	bne.n	800858c <__cmpdf2+0x64>
 8008586:	ea50 3c01 	orrs.w	ip, r0, r1, lsl #12
 800858a:	d107      	bne.n	800859c <__cmpdf2+0x74>
 800858c:	ea4f 0c43 	mov.w	ip, r3, lsl #1
 8008590:	ea7f 5c6c 	mvns.w	ip, ip, asr #21
 8008594:	d1d6      	bne.n	8008544 <__cmpdf2+0x1c>
 8008596:	ea52 3c03 	orrs.w	ip, r2, r3, lsl #12
 800859a:	d0d3      	beq.n	8008544 <__cmpdf2+0x1c>
 800859c:	f85d 0b04 	ldr.w	r0, [sp], #4
 80085a0:	4770      	bx	lr
 80085a2:	bf00      	nop

080085a4 <__aeabi_cdrcmple>:
 80085a4:	4684      	mov	ip, r0
 80085a6:	4610      	mov	r0, r2
 80085a8:	4662      	mov	r2, ip
 80085aa:	468c      	mov	ip, r1
 80085ac:	4619      	mov	r1, r3
 80085ae:	4663      	mov	r3, ip
 80085b0:	e000      	b.n	80085b4 <__aeabi_cdcmpeq>
 80085b2:	bf00      	nop

080085b4 <__aeabi_cdcmpeq>:
 80085b4:	b501      	push	{r0, lr}
 80085b6:	f7ff ffb7 	bl	8008528 <__cmpdf2>
 80085ba:	2800      	cmp	r0, #0
 80085bc:	bf48      	it	mi
 80085be:	f110 0f00 	cmnmi.w	r0, #0
 80085c2:	bd01      	pop	{r0, pc}

080085c4 <__aeabi_dcmpeq>:
 80085c4:	f84d ed08 	str.w	lr, [sp, #-8]!
 80085c8:	f7ff fff4 	bl	80085b4 <__aeabi_cdcmpeq>
 80085cc:	bf0c      	ite	eq
 80085ce:	2001      	moveq	r0, #1
 80085d0:	2000      	movne	r0, #0
 80085d2:	f85d fb08 	ldr.w	pc, [sp], #8
 80085d6:	bf00      	nop

080085d8 <__aeabi_dcmplt>:
 80085d8:	f84d ed08 	str.w	lr, [sp, #-8]!
 80085dc:	f7ff ffea 	bl	80085b4 <__aeabi_cdcmpeq>
 80085e0:	bf34      	ite	cc
 80085e2:	2001      	movcc	r0, #1
 80085e4:	2000      	movcs	r0, #0
 80085e6:	f85d fb08 	ldr.w	pc, [sp], #8
 80085ea:	bf00      	nop

080085ec <__aeabi_dcmple>:
 80085ec:	f84d ed08 	str.w	lr, [sp, #-8]!
 80085f0:	f7ff ffe0 	bl	80085b4 <__aeabi_cdcmpeq>
 80085f4:	bf94      	ite	ls
 80085f6:	2001      	movls	r0, #1
 80085f8:	2000      	movhi	r0, #0
 80085fa:	f85d fb08 	ldr.w	pc, [sp], #8
 80085fe:	bf00      	nop

08008600 <__aeabi_dcmpge>:
 8008600:	f84d ed08 	str.w	lr, [sp, #-8]!
 8008604:	f7ff ffce 	bl	80085a4 <__aeabi_cdrcmple>
 8008608:	bf94      	ite	ls
 800860a:	2001      	movls	r0, #1
 800860c:	2000      	movhi	r0, #0
 800860e:	f85d fb08 	ldr.w	pc, [sp], #8
 8008612:	bf00      	nop

08008614 <__aeabi_dcmpgt>:
 8008614:	f84d ed08 	str.w	lr, [sp, #-8]!
 8008618:	f7ff ffc4 	bl	80085a4 <__aeabi_cdrcmple>
 800861c:	bf34      	ite	cc
 800861e:	2001      	movcc	r0, #1
 8008620:	2000      	movcs	r0, #0
 8008622:	f85d fb08 	ldr.w	pc, [sp], #8
 8008626:	bf00      	nop

08008628 <__aeabi_d2uiz>:
 8008628:	004a      	lsls	r2, r1, #1
 800862a:	d211      	bcs.n	8008650 <__aeabi_d2uiz+0x28>
 800862c:	f512 1200 	adds.w	r2, r2, #2097152	; 0x200000
 8008630:	d211      	bcs.n	8008656 <__aeabi_d2uiz+0x2e>
 8008632:	d50d      	bpl.n	8008650 <__aeabi_d2uiz+0x28>
 8008634:	f46f 7378 	mvn.w	r3, #992	; 0x3e0
 8008638:	ebb3 5262 	subs.w	r2, r3, r2, asr #21
 800863c:	d40e      	bmi.n	800865c <__aeabi_d2uiz+0x34>
 800863e:	ea4f 23c1 	mov.w	r3, r1, lsl #11
 8008642:	f043 4300 	orr.w	r3, r3, #2147483648	; 0x80000000
 8008646:	ea43 5350 	orr.w	r3, r3, r0, lsr #21
 800864a:	fa23 f002 	lsr.w	r0, r3, r2
 800864e:	4770      	bx	lr
 8008650:	f04f 0000 	mov.w	r0, #0
 8008654:	4770      	bx	lr
 8008656:	ea50 3001 	orrs.w	r0, r0, r1, lsl #12
 800865a:	d102      	bne.n	8008662 <__aeabi_d2uiz+0x3a>
 800865c:	f04f 30ff 	mov.w	r0, #4294967295
 8008660:	4770      	bx	lr
 8008662:	f04f 0000 	mov.w	r0, #0
 8008666:	4770      	bx	lr

08008668 <HAL_InitTick>:
 8008668:	b538      	push	{r3, r4, r5, lr}
 800866a:	4b0e      	ldr	r3, [pc, #56]	; (80086a4 <HAL_InitTick+0x3c>)
 800866c:	4605      	mov	r5, r0
 800866e:	7818      	ldrb	r0, [r3, #0]
 8008670:	f44f 737a 	mov.w	r3, #1000	; 0x3e8
 8008674:	fbb3 f3f0 	udiv	r3, r3, r0
 8008678:	4a0b      	ldr	r2, [pc, #44]	; (80086a8 <HAL_InitTick+0x40>)
 800867a:	6810      	ldr	r0, [r2, #0]
 800867c:	fbb0 f0f3 	udiv	r0, r0, r3
 8008680:	f000 f88c 	bl	800879c <HAL_SYSTICK_Config>
 8008684:	4604      	mov	r4, r0
 8008686:	b958      	cbnz	r0, 80086a0 <HAL_InitTick+0x38>
 8008688:	2d0f      	cmp	r5, #15
 800868a:	d809      	bhi.n	80086a0 <HAL_InitTick+0x38>
 800868c:	4602      	mov	r2, r0
 800868e:	4629      	mov	r1, r5
 8008690:	f04f 30ff 	mov.w	r0, #4294967295
 8008694:	f000 f842 	bl	800871c <HAL_NVIC_SetPriority>
 8008698:	4b04      	ldr	r3, [pc, #16]	; (80086ac <HAL_InitTick+0x44>)
 800869a:	4620      	mov	r0, r4
 800869c:	601d      	str	r5, [r3, #0]
 800869e:	bd38      	pop	{r3, r4, r5, pc}
 80086a0:	2001      	movs	r0, #1
 80086a2:	bd38      	pop	{r3, r4, r5, pc}
 80086a4:	200006b4 	.word	0x200006b4
 80086a8:	200007cc 	.word	0x200007cc
 80086ac:	200006b8 	.word	0x200006b8

080086b0 <HAL_Init>:
 80086b0:	4a07      	ldr	r2, [pc, #28]	; (80086d0 <HAL_Init+0x20>)
 80086b2:	b508      	push	{r3, lr}
 80086b4:	6813      	ldr	r3, [r2, #0]
 80086b6:	2003      	movs	r0, #3
 80086b8:	f043 0310 	orr.w	r3, r3, #16
 80086bc:	6013      	str	r3, [r2, #0]
 80086be:	f000 f81b 	bl	80086f8 <HAL_NVIC_SetPriorityGrouping>
 80086c2:	2000      	movs	r0, #0
 80086c4:	f7ff ffd0 	bl	8008668 <HAL_InitTick>
 80086c8:	f008 fce0 	bl	801108c <HAL_MspInit>
 80086cc:	2000      	movs	r0, #0
 80086ce:	bd08      	pop	{r3, pc}
 80086d0:	40022000 	.word	0x40022000

080086d4 <HAL_IncTick>:
 80086d4:	4a03      	ldr	r2, [pc, #12]	; (80086e4 <HAL_IncTick+0x10>)
 80086d6:	4b04      	ldr	r3, [pc, #16]	; (80086e8 <HAL_IncTick+0x14>)
 80086d8:	6811      	ldr	r1, [r2, #0]
 80086da:	781b      	ldrb	r3, [r3, #0]
 80086dc:	440b      	add	r3, r1
 80086de:	6013      	str	r3, [r2, #0]
 80086e0:	4770      	bx	lr
 80086e2:	bf00      	nop
 80086e4:	20002974 	.word	0x20002974
 80086e8:	200006b4 	.word	0x200006b4

080086ec <HAL_GetTick>:
 80086ec:	4b01      	ldr	r3, [pc, #4]	; (80086f4 <HAL_GetTick+0x8>)
 80086ee:	6818      	ldr	r0, [r3, #0]
 80086f0:	4770      	bx	lr
 80086f2:	bf00      	nop
 80086f4:	20002974 	.word	0x20002974

080086f8 <HAL_NVIC_SetPriorityGrouping>:
 80086f8:	4a07      	ldr	r2, [pc, #28]	; (8008718 <HAL_NVIC_SetPriorityGrouping+0x20>)
 80086fa:	0200      	lsls	r0, r0, #8
 80086fc:	68d3      	ldr	r3, [r2, #12]
 80086fe:	f400 60e0 	and.w	r0, r0, #1792	; 0x700
 8008702:	f423 63e0 	bic.w	r3, r3, #1792	; 0x700
 8008706:	041b      	lsls	r3, r3, #16
 8008708:	0c1b      	lsrs	r3, r3, #16
 800870a:	f043 63bf 	orr.w	r3, r3, #100139008	; 0x5f80000
 800870e:	f443 3300 	orr.w	r3, r3, #131072	; 0x20000
 8008712:	4303      	orrs	r3, r0
 8008714:	60d3      	str	r3, [r2, #12]
 8008716:	4770      	bx	lr
 8008718:	e000ed00 	.word	0xe000ed00

0800871c <HAL_NVIC_SetPriority>:
 800871c:	4b17      	ldr	r3, [pc, #92]	; (800877c <HAL_NVIC_SetPriority+0x60>)
 800871e:	b530      	push	{r4, r5, lr}
 8008720:	68dc      	ldr	r4, [r3, #12]
 8008722:	f3c4 2402 	ubfx	r4, r4, #8, #3
 8008726:	f1c4 0307 	rsb	r3, r4, #7
 800872a:	1d25      	adds	r5, r4, #4
 800872c:	2b04      	cmp	r3, #4
 800872e:	bf28      	it	cs
 8008730:	2304      	movcs	r3, #4
 8008732:	2d06      	cmp	r5, #6
 8008734:	f04f 0501 	mov.w	r5, #1
 8008738:	bf98      	it	ls
 800873a:	2400      	movls	r4, #0
 800873c:	fa05 f303 	lsl.w	r3, r5, r3
 8008740:	f103 33ff 	add.w	r3, r3, #4294967295
 8008744:	bf88      	it	hi
 8008746:	3c03      	subhi	r4, #3
 8008748:	4019      	ands	r1, r3
 800874a:	40a1      	lsls	r1, r4
 800874c:	fa05 f404 	lsl.w	r4, r5, r4
 8008750:	3c01      	subs	r4, #1
 8008752:	4022      	ands	r2, r4
 8008754:	2800      	cmp	r0, #0
 8008756:	ea42 0201 	orr.w	r2, r2, r1
 800875a:	ea4f 1202 	mov.w	r2, r2, lsl #4
 800875e:	bfaf      	iteee	ge
 8008760:	f100 4060 	addge.w	r0, r0, #3758096384	; 0xe0000000
 8008764:	4b06      	ldrlt	r3, [pc, #24]	; (8008780 <HAL_NVIC_SetPriority+0x64>)
 8008766:	f000 000f 	andlt.w	r0, r0, #15
 800876a:	b2d2      	uxtblt	r2, r2
 800876c:	bfa5      	ittet	ge
 800876e:	b2d2      	uxtbge	r2, r2
 8008770:	f500 4061 	addge.w	r0, r0, #57600	; 0xe100
 8008774:	541a      	strblt	r2, [r3, r0]
 8008776:	f880 2300 	strbge.w	r2, [r0, #768]	; 0x300
 800877a:	bd30      	pop	{r4, r5, pc}
 800877c:	e000ed00 	.word	0xe000ed00
 8008780:	e000ed14 	.word	0xe000ed14

08008784 <HAL_NVIC_EnableIRQ>:
 8008784:	2301      	movs	r3, #1
 8008786:	0942      	lsrs	r2, r0, #5
 8008788:	f000 001f 	and.w	r0, r0, #31
 800878c:	fa03 f000 	lsl.w	r0, r3, r0
 8008790:	4b01      	ldr	r3, [pc, #4]	; (8008798 <HAL_NVIC_EnableIRQ+0x14>)
 8008792:	f843 0022 	str.w	r0, [r3, r2, lsl #2]
 8008796:	4770      	bx	lr
 8008798:	e000e100 	.word	0xe000e100

0800879c <HAL_SYSTICK_Config>:
 800879c:	3801      	subs	r0, #1
 800879e:	f1b0 7f80 	cmp.w	r0, #16777216	; 0x1000000
 80087a2:	d20a      	bcs.n	80087ba <HAL_SYSTICK_Config+0x1e>
 80087a4:	21f0      	movs	r1, #240	; 0xf0
 80087a6:	4b06      	ldr	r3, [pc, #24]	; (80087c0 <HAL_SYSTICK_Config+0x24>)
 80087a8:	4a06      	ldr	r2, [pc, #24]	; (80087c4 <HAL_SYSTICK_Config+0x28>)
 80087aa:	6058      	str	r0, [r3, #4]
 80087ac:	f882 1023 	strb.w	r1, [r2, #35]	; 0x23
 80087b0:	2000      	movs	r0, #0
 80087b2:	2207      	movs	r2, #7
 80087b4:	6098      	str	r0, [r3, #8]
 80087b6:	601a      	str	r2, [r3, #0]
 80087b8:	4770      	bx	lr
 80087ba:	2001      	movs	r0, #1
 80087bc:	4770      	bx	lr
 80087be:	bf00      	nop
 80087c0:	e000e010 	.word	0xe000e010
 80087c4:	e000ed00 	.word	0xe000ed00

080087c8 <HAL_SYSTICK_IRQHandler>:
 80087c8:	b508      	push	{r3, lr}
 80087ca:	f009 fba7 	bl	8011f1c <HAL_SYSTICK_Callback>
 80087ce:	bd08      	pop	{r3, pc}

080087d0 <HAL_DMA_Init>:
 80087d0:	b510      	push	{r4, lr}
 80087d2:	b330      	cbz	r0, 8008822 <HAL_DMA_Init+0x52>
 80087d4:	2214      	movs	r2, #20
 80087d6:	6801      	ldr	r1, [r0, #0]
 80087d8:	4b13      	ldr	r3, [pc, #76]	; (8008828 <HAL_DMA_Init+0x58>)
 80087da:	6884      	ldr	r4, [r0, #8]
 80087dc:	440b      	add	r3, r1
 80087de:	fbb3 f3f2 	udiv	r3, r3, r2
 80087e2:	009b      	lsls	r3, r3, #2
 80087e4:	6403      	str	r3, [r0, #64]	; 0x40
 80087e6:	4b11      	ldr	r3, [pc, #68]	; (800882c <HAL_DMA_Init+0x5c>)
 80087e8:	680a      	ldr	r2, [r1, #0]
 80087ea:	63c3      	str	r3, [r0, #60]	; 0x3c
 80087ec:	6843      	ldr	r3, [r0, #4]
 80087ee:	f422 527f 	bic.w	r2, r2, #16320	; 0x3fc0
 80087f2:	4323      	orrs	r3, r4
 80087f4:	68c4      	ldr	r4, [r0, #12]
 80087f6:	f022 0230 	bic.w	r2, r2, #48	; 0x30
 80087fa:	4323      	orrs	r3, r4
 80087fc:	6904      	ldr	r4, [r0, #16]
 80087fe:	4323      	orrs	r3, r4
 8008800:	6944      	ldr	r4, [r0, #20]
 8008802:	4323      	orrs	r3, r4
 8008804:	6984      	ldr	r4, [r0, #24]
 8008806:	4323      	orrs	r3, r4
 8008808:	69c4      	ldr	r4, [r0, #28]
 800880a:	4323      	orrs	r3, r4
 800880c:	4313      	orrs	r3, r2
 800880e:	600b      	str	r3, [r1, #0]
 8008810:	2201      	movs	r2, #1
 8008812:	2300      	movs	r3, #0
 8008814:	f880 2021 	strb.w	r2, [r0, #33]	; 0x21
 8008818:	6383      	str	r3, [r0, #56]	; 0x38
 800881a:	f880 3020 	strb.w	r3, [r0, #32]
 800881e:	4618      	mov	r0, r3
 8008820:	bd10      	pop	{r4, pc}
 8008822:	2001      	movs	r0, #1
 8008824:	bd10      	pop	{r4, pc}
 8008826:	bf00      	nop
 8008828:	bffdfff8 	.word	0xbffdfff8
 800882c:	40020000 	.word	0x40020000

08008830 <HAL_DMA_Start_IT>:
 8008830:	b5f0      	push	{r4, r5, r6, r7, lr}
 8008832:	f890 4020 	ldrb.w	r4, [r0, #32]
 8008836:	2c01      	cmp	r4, #1
 8008838:	d035      	beq.n	80088a6 <HAL_DMA_Start_IT+0x76>
 800883a:	2401      	movs	r4, #1
 800883c:	f890 5021 	ldrb.w	r5, [r0, #33]	; 0x21
 8008840:	f880 4020 	strb.w	r4, [r0, #32]
 8008844:	42a5      	cmp	r5, r4
 8008846:	f04f 0600 	mov.w	r6, #0
 800884a:	f04f 0402 	mov.w	r4, #2
 800884e:	d128      	bne.n	80088a2 <HAL_DMA_Start_IT+0x72>
 8008850:	f880 4021 	strb.w	r4, [r0, #33]	; 0x21
 8008854:	6804      	ldr	r4, [r0, #0]
 8008856:	6386      	str	r6, [r0, #56]	; 0x38
 8008858:	6826      	ldr	r6, [r4, #0]
 800885a:	6c07      	ldr	r7, [r0, #64]	; 0x40
 800885c:	f026 0601 	bic.w	r6, r6, #1
 8008860:	6026      	str	r6, [r4, #0]
 8008862:	6bc6      	ldr	r6, [r0, #60]	; 0x3c
 8008864:	40bd      	lsls	r5, r7
 8008866:	6075      	str	r5, [r6, #4]
 8008868:	6063      	str	r3, [r4, #4]
 800886a:	6843      	ldr	r3, [r0, #4]
 800886c:	6805      	ldr	r5, [r0, #0]
 800886e:	2b10      	cmp	r3, #16
 8008870:	6ac3      	ldr	r3, [r0, #44]	; 0x2c
 8008872:	bf0b      	itete	eq
 8008874:	60a2      	streq	r2, [r4, #8]
 8008876:	60a1      	strne	r1, [r4, #8]
 8008878:	60e1      	streq	r1, [r4, #12]
 800887a:	60e2      	strne	r2, [r4, #12]
 800887c:	b14b      	cbz	r3, 8008892 <HAL_DMA_Start_IT+0x62>
 800887e:	6823      	ldr	r3, [r4, #0]
 8008880:	f043 030e 	orr.w	r3, r3, #14
 8008884:	6023      	str	r3, [r4, #0]
 8008886:	682b      	ldr	r3, [r5, #0]
 8008888:	2000      	movs	r0, #0
 800888a:	f043 0301 	orr.w	r3, r3, #1
 800888e:	602b      	str	r3, [r5, #0]
 8008890:	bdf0      	pop	{r4, r5, r6, r7, pc}
 8008892:	6823      	ldr	r3, [r4, #0]
 8008894:	f023 0304 	bic.w	r3, r3, #4
 8008898:	6023      	str	r3, [r4, #0]
 800889a:	6823      	ldr	r3, [r4, #0]
 800889c:	f043 030a 	orr.w	r3, r3, #10
 80088a0:	e7f0      	b.n	8008884 <HAL_DMA_Start_IT+0x54>
 80088a2:	f880 6020 	strb.w	r6, [r0, #32]
 80088a6:	2002      	movs	r0, #2
 80088a8:	bdf0      	pop	{r4, r5, r6, r7, pc}
	...

080088ac <HAL_DMA_IRQHandler>:
 80088ac:	b470      	push	{r4, r5, r6}
 80088ae:	2504      	movs	r5, #4
 80088b0:	6bc6      	ldr	r6, [r0, #60]	; 0x3c
 80088b2:	6c02      	ldr	r2, [r0, #64]	; 0x40
 80088b4:	6834      	ldr	r4, [r6, #0]
 80088b6:	6803      	ldr	r3, [r0, #0]
 80088b8:	4095      	lsls	r5, r2
 80088ba:	4225      	tst	r5, r4
 80088bc:	6819      	ldr	r1, [r3, #0]
 80088be:	d032      	beq.n	8008926 <HAL_DMA_IRQHandler+0x7a>
 80088c0:	074d      	lsls	r5, r1, #29
 80088c2:	d530      	bpl.n	8008926 <HAL_DMA_IRQHandler+0x7a>
 80088c4:	681a      	ldr	r2, [r3, #0]
 80088c6:	0696      	lsls	r6, r2, #26
 80088c8:	bf5e      	ittt	pl
 80088ca:	681a      	ldrpl	r2, [r3, #0]
 80088cc:	f022 0204 	bicpl.w	r2, r2, #4
 80088d0:	601a      	strpl	r2, [r3, #0]
 80088d2:	4a3e      	ldr	r2, [pc, #248]	; (80089cc <HAL_DMA_IRQHandler+0x120>)
 80088d4:	4293      	cmp	r3, r2
 80088d6:	d019      	beq.n	800890c <HAL_DMA_IRQHandler+0x60>
 80088d8:	3214      	adds	r2, #20
 80088da:	4293      	cmp	r3, r2
 80088dc:	d018      	beq.n	8008910 <HAL_DMA_IRQHandler+0x64>
 80088de:	3214      	adds	r2, #20
 80088e0:	4293      	cmp	r3, r2
 80088e2:	d017      	beq.n	8008914 <HAL_DMA_IRQHandler+0x68>
 80088e4:	3214      	adds	r2, #20
 80088e6:	4293      	cmp	r3, r2
 80088e8:	d017      	beq.n	800891a <HAL_DMA_IRQHandler+0x6e>
 80088ea:	3214      	adds	r2, #20
 80088ec:	4293      	cmp	r3, r2
 80088ee:	d017      	beq.n	8008920 <HAL_DMA_IRQHandler+0x74>
 80088f0:	3214      	adds	r2, #20
 80088f2:	4293      	cmp	r3, r2
 80088f4:	bf0c      	ite	eq
 80088f6:	f44f 0380 	moveq.w	r3, #4194304	; 0x400000
 80088fa:	f04f 6380 	movne.w	r3, #67108864	; 0x4000000
 80088fe:	4a34      	ldr	r2, [pc, #208]	; (80089d0 <HAL_DMA_IRQHandler+0x124>)
 8008900:	6053      	str	r3, [r2, #4]
 8008902:	6ac3      	ldr	r3, [r0, #44]	; 0x2c
 8008904:	2b00      	cmp	r3, #0
 8008906:	d05e      	beq.n	80089c6 <HAL_DMA_IRQHandler+0x11a>
 8008908:	bc70      	pop	{r4, r5, r6}
 800890a:	4718      	bx	r3
 800890c:	2304      	movs	r3, #4
 800890e:	e7f6      	b.n	80088fe <HAL_DMA_IRQHandler+0x52>
 8008910:	2340      	movs	r3, #64	; 0x40
 8008912:	e7f4      	b.n	80088fe <HAL_DMA_IRQHandler+0x52>
 8008914:	f44f 6380 	mov.w	r3, #1024	; 0x400
 8008918:	e7f1      	b.n	80088fe <HAL_DMA_IRQHandler+0x52>
 800891a:	f44f 4380 	mov.w	r3, #16384	; 0x4000
 800891e:	e7ee      	b.n	80088fe <HAL_DMA_IRQHandler+0x52>
 8008920:	f44f 2380 	mov.w	r3, #262144	; 0x40000
 8008924:	e7eb      	b.n	80088fe <HAL_DMA_IRQHandler+0x52>
 8008926:	2502      	movs	r5, #2
 8008928:	4095      	lsls	r5, r2
 800892a:	4225      	tst	r5, r4
 800892c:	d035      	beq.n	800899a <HAL_DMA_IRQHandler+0xee>
 800892e:	078d      	lsls	r5, r1, #30
 8008930:	d533      	bpl.n	800899a <HAL_DMA_IRQHandler+0xee>
 8008932:	681a      	ldr	r2, [r3, #0]
 8008934:	0694      	lsls	r4, r2, #26
 8008936:	d406      	bmi.n	8008946 <HAL_DMA_IRQHandler+0x9a>
 8008938:	681a      	ldr	r2, [r3, #0]
 800893a:	f022 020a 	bic.w	r2, r2, #10
 800893e:	601a      	str	r2, [r3, #0]
 8008940:	2201      	movs	r2, #1
 8008942:	f880 2021 	strb.w	r2, [r0, #33]	; 0x21
 8008946:	4a21      	ldr	r2, [pc, #132]	; (80089cc <HAL_DMA_IRQHandler+0x120>)
 8008948:	4293      	cmp	r3, r2
 800894a:	d019      	beq.n	8008980 <HAL_DMA_IRQHandler+0xd4>
 800894c:	3214      	adds	r2, #20
 800894e:	4293      	cmp	r3, r2
 8008950:	d018      	beq.n	8008984 <HAL_DMA_IRQHandler+0xd8>
 8008952:	3214      	adds	r2, #20
 8008954:	4293      	cmp	r3, r2
 8008956:	d017      	beq.n	8008988 <HAL_DMA_IRQHandler+0xdc>
 8008958:	3214      	adds	r2, #20
 800895a:	4293      	cmp	r3, r2
 800895c:	d017      	beq.n	800898e <HAL_DMA_IRQHandler+0xe2>
 800895e:	3214      	adds	r2, #20
 8008960:	4293      	cmp	r3, r2
 8008962:	d017      	beq.n	8008994 <HAL_DMA_IRQHandler+0xe8>
 8008964:	3214      	adds	r2, #20
 8008966:	4293      	cmp	r3, r2
 8008968:	bf0c      	ite	eq
 800896a:	f44f 1300 	moveq.w	r3, #2097152	; 0x200000
 800896e:	f04f 7300 	movne.w	r3, #33554432	; 0x2000000
 8008972:	4a17      	ldr	r2, [pc, #92]	; (80089d0 <HAL_DMA_IRQHandler+0x124>)
 8008974:	6053      	str	r3, [r2, #4]
 8008976:	2300      	movs	r3, #0
 8008978:	f880 3020 	strb.w	r3, [r0, #32]
 800897c:	6a83      	ldr	r3, [r0, #40]	; 0x28
 800897e:	e7c1      	b.n	8008904 <HAL_DMA_IRQHandler+0x58>
 8008980:	2302      	movs	r3, #2
 8008982:	e7f6      	b.n	8008972 <HAL_DMA_IRQHandler+0xc6>
 8008984:	2320      	movs	r3, #32
 8008986:	e7f4      	b.n	8008972 <HAL_DMA_IRQHandler+0xc6>
 8008988:	f44f 7300 	mov.w	r3, #512	; 0x200
 800898c:	e7f1      	b.n	8008972 <HAL_DMA_IRQHandler+0xc6>
 800898e:	f44f 5300 	mov.w	r3, #8192	; 0x2000
 8008992:	e7ee      	b.n	8008972 <HAL_DMA_IRQHandler+0xc6>
 8008994:	f44f 3300 	mov.w	r3, #131072	; 0x20000
 8008998:	e7eb      	b.n	8008972 <HAL_DMA_IRQHandler+0xc6>
 800899a:	2508      	movs	r5, #8
 800899c:	4095      	lsls	r5, r2
 800899e:	4225      	tst	r5, r4
 80089a0:	d011      	beq.n	80089c6 <HAL_DMA_IRQHandler+0x11a>
 80089a2:	0709      	lsls	r1, r1, #28
 80089a4:	d50f      	bpl.n	80089c6 <HAL_DMA_IRQHandler+0x11a>
 80089a6:	6819      	ldr	r1, [r3, #0]
 80089a8:	f021 010e 	bic.w	r1, r1, #14
 80089ac:	6019      	str	r1, [r3, #0]
 80089ae:	2301      	movs	r3, #1
 80089b0:	fa03 f202 	lsl.w	r2, r3, r2
 80089b4:	6072      	str	r2, [r6, #4]
 80089b6:	6383      	str	r3, [r0, #56]	; 0x38
 80089b8:	f880 3021 	strb.w	r3, [r0, #33]	; 0x21
 80089bc:	2300      	movs	r3, #0
 80089be:	f880 3020 	strb.w	r3, [r0, #32]
 80089c2:	6b03      	ldr	r3, [r0, #48]	; 0x30
 80089c4:	e79e      	b.n	8008904 <HAL_DMA_IRQHandler+0x58>
 80089c6:	bc70      	pop	{r4, r5, r6}
 80089c8:	4770      	bx	lr
 80089ca:	bf00      	nop
 80089cc:	40020008 	.word	0x40020008
 80089d0:	40020000 	.word	0x40020000

080089d4 <HAL_GPIO_Init>:
 80089d4:	e92d 4ff7 	stmdb	sp!, {r0, r1, r2, r4, r5, r6, r7, r8, r9, sl, fp, lr}
 80089d8:	2400      	movs	r4, #0
 80089da:	4626      	mov	r6, r4
 80089dc:	4b66      	ldr	r3, [pc, #408]	; (8008b78 <HAL_GPIO_Init+0x1a4>)
 80089de:	f8df e1a8 	ldr.w	lr, [pc, #424]	; 8008b88 <HAL_GPIO_Init+0x1b4>
 80089e2:	f8df c1a8 	ldr.w	ip, [pc, #424]	; 8008b8c <HAL_GPIO_Init+0x1b8>
 80089e6:	680a      	ldr	r2, [r1, #0]
 80089e8:	fa32 f506 	lsrs.w	r5, r2, r6
 80089ec:	d102      	bne.n	80089f4 <HAL_GPIO_Init+0x20>
 80089ee:	b003      	add	sp, #12
 80089f0:	e8bd 8ff0 	ldmia.w	sp!, {r4, r5, r6, r7, r8, r9, sl, fp, pc}
 80089f4:	f04f 0801 	mov.w	r8, #1
 80089f8:	fa08 f806 	lsl.w	r8, r8, r6
 80089fc:	ea02 0208 	and.w	r2, r2, r8
 8008a00:	4590      	cmp	r8, r2
 8008a02:	d17f      	bne.n	8008b04 <HAL_GPIO_Init+0x130>
 8008a04:	684d      	ldr	r5, [r1, #4]
 8008a06:	2d12      	cmp	r5, #18
 8008a08:	f000 80aa 	beq.w	8008b60 <HAL_GPIO_Init+0x18c>
 8008a0c:	f200 8083 	bhi.w	8008b16 <HAL_GPIO_Init+0x142>
 8008a10:	2d02      	cmp	r5, #2
 8008a12:	f000 80a2 	beq.w	8008b5a <HAL_GPIO_Init+0x186>
 8008a16:	d877      	bhi.n	8008b08 <HAL_GPIO_Init+0x134>
 8008a18:	2d00      	cmp	r5, #0
 8008a1a:	f000 8089 	beq.w	8008b30 <HAL_GPIO_Init+0x15c>
 8008a1e:	2d01      	cmp	r5, #1
 8008a20:	f000 8099 	beq.w	8008b56 <HAL_GPIO_Init+0x182>
 8008a24:	f04f 090f 	mov.w	r9, #15
 8008a28:	2aff      	cmp	r2, #255	; 0xff
 8008a2a:	bf93      	iteet	ls
 8008a2c:	4682      	movls	sl, r0
 8008a2e:	f106 4580 	addhi.w	r5, r6, #1073741824	; 0x40000000
 8008a32:	3d08      	subhi	r5, #8
 8008a34:	f8d0 b000 	ldrls.w	fp, [r0]
 8008a38:	bf92      	itee	ls
 8008a3a:	00b5      	lslls	r5, r6, #2
 8008a3c:	f8d0 b004 	ldrhi.w	fp, [r0, #4]
 8008a40:	00ad      	lslhi	r5, r5, #2
 8008a42:	fa09 f805 	lsl.w	r8, r9, r5
 8008a46:	ea2b 0808 	bic.w	r8, fp, r8
 8008a4a:	fa04 f505 	lsl.w	r5, r4, r5
 8008a4e:	bf88      	it	hi
 8008a50:	f100 0a04 	addhi.w	sl, r0, #4
 8008a54:	ea48 0505 	orr.w	r5, r8, r5
 8008a58:	f8ca 5000 	str.w	r5, [sl]
 8008a5c:	f8d1 a004 	ldr.w	sl, [r1, #4]
 8008a60:	f01a 5f80 	tst.w	sl, #268435456	; 0x10000000
 8008a64:	d04e      	beq.n	8008b04 <HAL_GPIO_Init+0x130>
 8008a66:	4d45      	ldr	r5, [pc, #276]	; (8008b7c <HAL_GPIO_Init+0x1a8>)
 8008a68:	4f44      	ldr	r7, [pc, #272]	; (8008b7c <HAL_GPIO_Init+0x1a8>)
 8008a6a:	69ad      	ldr	r5, [r5, #24]
 8008a6c:	f026 0803 	bic.w	r8, r6, #3
 8008a70:	f045 0501 	orr.w	r5, r5, #1
 8008a74:	61bd      	str	r5, [r7, #24]
 8008a76:	69bd      	ldr	r5, [r7, #24]
 8008a78:	f108 4880 	add.w	r8, r8, #1073741824	; 0x40000000
 8008a7c:	f005 0501 	and.w	r5, r5, #1
 8008a80:	9501      	str	r5, [sp, #4]
 8008a82:	f508 3880 	add.w	r8, r8, #65536	; 0x10000
 8008a86:	f006 0b03 	and.w	fp, r6, #3
 8008a8a:	9d01      	ldr	r5, [sp, #4]
 8008a8c:	ea4f 0b8b 	mov.w	fp, fp, lsl #2
 8008a90:	f8d8 5008 	ldr.w	r5, [r8, #8]
 8008a94:	fa09 f90b 	lsl.w	r9, r9, fp
 8008a98:	ea25 0909 	bic.w	r9, r5, r9
 8008a9c:	4d38      	ldr	r5, [pc, #224]	; (8008b80 <HAL_GPIO_Init+0x1ac>)
 8008a9e:	42a8      	cmp	r0, r5
 8008aa0:	d063      	beq.n	8008b6a <HAL_GPIO_Init+0x196>
 8008aa2:	f505 6580 	add.w	r5, r5, #1024	; 0x400
 8008aa6:	42a8      	cmp	r0, r5
 8008aa8:	d061      	beq.n	8008b6e <HAL_GPIO_Init+0x19a>
 8008aaa:	f505 6580 	add.w	r5, r5, #1024	; 0x400
 8008aae:	42a8      	cmp	r0, r5
 8008ab0:	d05f      	beq.n	8008b72 <HAL_GPIO_Init+0x19e>
 8008ab2:	f505 6580 	add.w	r5, r5, #1024	; 0x400
 8008ab6:	42a8      	cmp	r0, r5
 8008ab8:	bf0c      	ite	eq
 8008aba:	2503      	moveq	r5, #3
 8008abc:	2504      	movne	r5, #4
 8008abe:	fa05 f50b 	lsl.w	r5, r5, fp
 8008ac2:	ea45 0509 	orr.w	r5, r5, r9
 8008ac6:	f8c8 5008 	str.w	r5, [r8, #8]
 8008aca:	681d      	ldr	r5, [r3, #0]
 8008acc:	f41a 3f80 	tst.w	sl, #65536	; 0x10000
 8008ad0:	bf14      	ite	ne
 8008ad2:	4315      	orrne	r5, r2
 8008ad4:	4395      	biceq	r5, r2
 8008ad6:	601d      	str	r5, [r3, #0]
 8008ad8:	685d      	ldr	r5, [r3, #4]
 8008ada:	f41a 3f00 	tst.w	sl, #131072	; 0x20000
 8008ade:	bf14      	ite	ne
 8008ae0:	4315      	orrne	r5, r2
 8008ae2:	4395      	biceq	r5, r2
 8008ae4:	605d      	str	r5, [r3, #4]
 8008ae6:	689d      	ldr	r5, [r3, #8]
 8008ae8:	f41a 1f80 	tst.w	sl, #1048576	; 0x100000
 8008aec:	bf14      	ite	ne
 8008aee:	4315      	orrne	r5, r2
 8008af0:	4395      	biceq	r5, r2
 8008af2:	609d      	str	r5, [r3, #8]
 8008af4:	68dd      	ldr	r5, [r3, #12]
 8008af6:	f41a 1f00 	tst.w	sl, #2097152	; 0x200000
 8008afa:	bf14      	ite	ne
 8008afc:	432a      	orrne	r2, r5
 8008afe:	ea25 0202 	biceq.w	r2, r5, r2
 8008b02:	60da      	str	r2, [r3, #12]
 8008b04:	3601      	adds	r6, #1
 8008b06:	e76e      	b.n	80089e6 <HAL_GPIO_Init+0x12>
 8008b08:	2d03      	cmp	r5, #3
 8008b0a:	d022      	beq.n	8008b52 <HAL_GPIO_Init+0x17e>
 8008b0c:	2d11      	cmp	r5, #17
 8008b0e:	d189      	bne.n	8008a24 <HAL_GPIO_Init+0x50>
 8008b10:	68cc      	ldr	r4, [r1, #12]
 8008b12:	3404      	adds	r4, #4
 8008b14:	e786      	b.n	8008a24 <HAL_GPIO_Init+0x50>
 8008b16:	4f1b      	ldr	r7, [pc, #108]	; (8008b84 <HAL_GPIO_Init+0x1b0>)
 8008b18:	42bd      	cmp	r5, r7
 8008b1a:	d009      	beq.n	8008b30 <HAL_GPIO_Init+0x15c>
 8008b1c:	d812      	bhi.n	8008b44 <HAL_GPIO_Init+0x170>
 8008b1e:	f8df 9070 	ldr.w	r9, [pc, #112]	; 8008b90 <HAL_GPIO_Init+0x1bc>
 8008b22:	454d      	cmp	r5, r9
 8008b24:	d004      	beq.n	8008b30 <HAL_GPIO_Init+0x15c>
 8008b26:	f509 3980 	add.w	r9, r9, #65536	; 0x10000
 8008b2a:	454d      	cmp	r5, r9
 8008b2c:	f47f af7a 	bne.w	8008a24 <HAL_GPIO_Init+0x50>
 8008b30:	688c      	ldr	r4, [r1, #8]
 8008b32:	b1c4      	cbz	r4, 8008b66 <HAL_GPIO_Init+0x192>
 8008b34:	2c01      	cmp	r4, #1
 8008b36:	bf0c      	ite	eq
 8008b38:	f8c0 8010 	streq.w	r8, [r0, #16]
 8008b3c:	f8c0 8014 	strne.w	r8, [r0, #20]
 8008b40:	2408      	movs	r4, #8
 8008b42:	e76f      	b.n	8008a24 <HAL_GPIO_Init+0x50>
 8008b44:	4575      	cmp	r5, lr
 8008b46:	d0f3      	beq.n	8008b30 <HAL_GPIO_Init+0x15c>
 8008b48:	4565      	cmp	r5, ip
 8008b4a:	d0f1      	beq.n	8008b30 <HAL_GPIO_Init+0x15c>
 8008b4c:	f8df 9044 	ldr.w	r9, [pc, #68]	; 8008b94 <HAL_GPIO_Init+0x1c0>
 8008b50:	e7eb      	b.n	8008b2a <HAL_GPIO_Init+0x156>
 8008b52:	2400      	movs	r4, #0
 8008b54:	e766      	b.n	8008a24 <HAL_GPIO_Init+0x50>
 8008b56:	68cc      	ldr	r4, [r1, #12]
 8008b58:	e764      	b.n	8008a24 <HAL_GPIO_Init+0x50>
 8008b5a:	68cc      	ldr	r4, [r1, #12]
 8008b5c:	3408      	adds	r4, #8
 8008b5e:	e761      	b.n	8008a24 <HAL_GPIO_Init+0x50>
 8008b60:	68cc      	ldr	r4, [r1, #12]
 8008b62:	340c      	adds	r4, #12
 8008b64:	e75e      	b.n	8008a24 <HAL_GPIO_Init+0x50>
 8008b66:	2404      	movs	r4, #4
 8008b68:	e75c      	b.n	8008a24 <HAL_GPIO_Init+0x50>
 8008b6a:	2500      	movs	r5, #0
 8008b6c:	e7a7      	b.n	8008abe <HAL_GPIO_Init+0xea>
 8008b6e:	2501      	movs	r5, #1
 8008b70:	e7a5      	b.n	8008abe <HAL_GPIO_Init+0xea>
 8008b72:	2502      	movs	r5, #2
 8008b74:	e7a3      	b.n	8008abe <HAL_GPIO_Init+0xea>
 8008b76:	bf00      	nop
 8008b78:	40010400 	.word	0x40010400
 8008b7c:	40021000 	.word	0x40021000
 8008b80:	40010800 	.word	0x40010800
 8008b84:	10210000 	.word	0x10210000
 8008b88:	10310000 	.word	0x10310000
 8008b8c:	10320000 	.word	0x10320000
 8008b90:	10110000 	.word	0x10110000
 8008b94:	10220000 	.word	0x10220000

08008b98 <HAL_GPIO_DeInit>:
 8008b98:	e92d 4ff0 	stmdb	sp!, {r4, r5, r6, r7, r8, r9, sl, fp, lr}
 8008b9c:	f04f 0a04 	mov.w	sl, #4
 8008ba0:	2300      	movs	r3, #0
 8008ba2:	f04f 0901 	mov.w	r9, #1
 8008ba6:	f04f 0c0f 	mov.w	ip, #15
 8008baa:	4a30      	ldr	r2, [pc, #192]	; (8008c6c <HAL_GPIO_DeInit+0xd4>)
 8008bac:	eb00 0b0a 	add.w	fp, r0, sl
 8008bb0:	fa31 f403 	lsrs.w	r4, r1, r3
 8008bb4:	d101      	bne.n	8008bba <HAL_GPIO_DeInit+0x22>
 8008bb6:	e8bd 8ff0 	ldmia.w	sp!, {r4, r5, r6, r7, r8, r9, sl, fp, pc}
 8008bba:	fa09 f603 	lsl.w	r6, r9, r3
 8008bbe:	400e      	ands	r6, r1
 8008bc0:	d04c      	beq.n	8008c5c <HAL_GPIO_DeInit+0xc4>
 8008bc2:	f023 0403 	bic.w	r4, r3, #3
 8008bc6:	f104 4480 	add.w	r4, r4, #1073741824	; 0x40000000
 8008bca:	f504 3480 	add.w	r4, r4, #65536	; 0x10000
 8008bce:	f003 0703 	and.w	r7, r3, #3
 8008bd2:	68a5      	ldr	r5, [r4, #8]
 8008bd4:	00bf      	lsls	r7, r7, #2
 8008bd6:	fa0c f807 	lsl.w	r8, ip, r7
 8008bda:	ea05 0e08 	and.w	lr, r5, r8
 8008bde:	4d24      	ldr	r5, [pc, #144]	; (8008c70 <HAL_GPIO_DeInit+0xd8>)
 8008be0:	42a8      	cmp	r0, r5
 8008be2:	d03d      	beq.n	8008c60 <HAL_GPIO_DeInit+0xc8>
 8008be4:	f505 6580 	add.w	r5, r5, #1024	; 0x400
 8008be8:	42a8      	cmp	r0, r5
 8008bea:	d03b      	beq.n	8008c64 <HAL_GPIO_DeInit+0xcc>
 8008bec:	f505 6580 	add.w	r5, r5, #1024	; 0x400
 8008bf0:	42a8      	cmp	r0, r5
 8008bf2:	d039      	beq.n	8008c68 <HAL_GPIO_DeInit+0xd0>
 8008bf4:	f505 6580 	add.w	r5, r5, #1024	; 0x400
 8008bf8:	42a8      	cmp	r0, r5
 8008bfa:	bf0c      	ite	eq
 8008bfc:	2503      	moveq	r5, #3
 8008bfe:	2504      	movne	r5, #4
 8008c00:	40bd      	lsls	r5, r7
 8008c02:	45ae      	cmp	lr, r5
 8008c04:	ea6f 0506 	mvn.w	r5, r6
 8008c08:	d10f      	bne.n	8008c2a <HAL_GPIO_DeInit+0x92>
 8008c0a:	68a7      	ldr	r7, [r4, #8]
 8008c0c:	ea27 0708 	bic.w	r7, r7, r8
 8008c10:	60a7      	str	r7, [r4, #8]
 8008c12:	6814      	ldr	r4, [r2, #0]
 8008c14:	402c      	ands	r4, r5
 8008c16:	6014      	str	r4, [r2, #0]
 8008c18:	6854      	ldr	r4, [r2, #4]
 8008c1a:	402c      	ands	r4, r5
 8008c1c:	6054      	str	r4, [r2, #4]
 8008c1e:	6894      	ldr	r4, [r2, #8]
 8008c20:	402c      	ands	r4, r5
 8008c22:	6094      	str	r4, [r2, #8]
 8008c24:	68d4      	ldr	r4, [r2, #12]
 8008c26:	402c      	ands	r4, r5
 8008c28:	60d4      	str	r4, [r2, #12]
 8008c2a:	2eff      	cmp	r6, #255	; 0xff
 8008c2c:	bf91      	iteee	ls
 8008c2e:	4607      	movls	r7, r0
 8008c30:	465f      	movhi	r7, fp
 8008c32:	f103 4480 	addhi.w	r4, r3, #1073741824	; 0x40000000
 8008c36:	3c08      	subhi	r4, #8
 8008c38:	bf95      	itete	ls
 8008c3a:	f8d0 e000 	ldrls.w	lr, [r0]
 8008c3e:	f8d0 e004 	ldrhi.w	lr, [r0, #4]
 8008c42:	009c      	lslls	r4, r3, #2
 8008c44:	00a4      	lslhi	r4, r4, #2
 8008c46:	fa0c f604 	lsl.w	r6, ip, r4
 8008c4a:	ea2e 0606 	bic.w	r6, lr, r6
 8008c4e:	fa0a f404 	lsl.w	r4, sl, r4
 8008c52:	4326      	orrs	r6, r4
 8008c54:	603e      	str	r6, [r7, #0]
 8008c56:	68c4      	ldr	r4, [r0, #12]
 8008c58:	4025      	ands	r5, r4
 8008c5a:	60c5      	str	r5, [r0, #12]
 8008c5c:	3301      	adds	r3, #1
 8008c5e:	e7a7      	b.n	8008bb0 <HAL_GPIO_DeInit+0x18>
 8008c60:	2500      	movs	r5, #0
 8008c62:	e7cd      	b.n	8008c00 <HAL_GPIO_DeInit+0x68>
 8008c64:	2501      	movs	r5, #1
 8008c66:	e7cb      	b.n	8008c00 <HAL_GPIO_DeInit+0x68>
 8008c68:	2502      	movs	r5, #2
 8008c6a:	e7c9      	b.n	8008c00 <HAL_GPIO_DeInit+0x68>
 8008c6c:	40010400 	.word	0x40010400
 8008c70:	40010800 	.word	0x40010800

08008c74 <HAL_GPIO_ReadPin>:
 8008c74:	6883      	ldr	r3, [r0, #8]
 8008c76:	4219      	tst	r1, r3
 8008c78:	bf14      	ite	ne
 8008c7a:	2001      	movne	r0, #1
 8008c7c:	2000      	moveq	r0, #0
 8008c7e:	4770      	bx	lr

08008c80 <HAL_GPIO_WritePin>:
 8008c80:	b10a      	cbz	r2, 8008c86 <HAL_GPIO_WritePin+0x6>
 8008c82:	6101      	str	r1, [r0, #16]
 8008c84:	4770      	bx	lr
 8008c86:	0409      	lsls	r1, r1, #16
 8008c88:	e7fb      	b.n	8008c82 <HAL_GPIO_WritePin+0x2>

08008c8a <I2C_IsAcknowledgeFailed>:
 8008c8a:	6801      	ldr	r1, [r0, #0]
 8008c8c:	2200      	movs	r2, #0
 8008c8e:	694b      	ldr	r3, [r1, #20]
 8008c90:	f413 6380 	ands.w	r3, r3, #1024	; 0x400
 8008c94:	d010      	beq.n	8008cb8 <I2C_IsAcknowledgeFailed+0x2e>
 8008c96:	f46f 6380 	mvn.w	r3, #1024	; 0x400
 8008c9a:	614b      	str	r3, [r1, #20]
 8008c9c:	2320      	movs	r3, #32
 8008c9e:	6302      	str	r2, [r0, #48]	; 0x30
 8008ca0:	f880 303d 	strb.w	r3, [r0, #61]	; 0x3d
 8008ca4:	f880 203e 	strb.w	r2, [r0, #62]	; 0x3e
 8008ca8:	6c03      	ldr	r3, [r0, #64]	; 0x40
 8008caa:	f880 203c 	strb.w	r2, [r0, #60]	; 0x3c
 8008cae:	f043 0304 	orr.w	r3, r3, #4
 8008cb2:	6403      	str	r3, [r0, #64]	; 0x40
 8008cb4:	2001      	movs	r0, #1
 8008cb6:	4770      	bx	lr
 8008cb8:	4618      	mov	r0, r3
 8008cba:	4770      	bx	lr

08008cbc <HAL_I2C_Init>:
 8008cbc:	b570      	push	{r4, r5, r6, lr}
 8008cbe:	4604      	mov	r4, r0
 8008cc0:	b908      	cbnz	r0, 8008cc6 <HAL_I2C_Init+0xa>
 8008cc2:	2001      	movs	r0, #1
 8008cc4:	bd70      	pop	{r4, r5, r6, pc}
 8008cc6:	f890 303d 	ldrb.w	r3, [r0, #61]	; 0x3d
 8008cca:	f003 02ff 	and.w	r2, r3, #255	; 0xff
 8008cce:	b91b      	cbnz	r3, 8008cd8 <HAL_I2C_Init+0x1c>
 8008cd0:	f880 203c 	strb.w	r2, [r0, #60]	; 0x3c
 8008cd4:	f008 f822 	bl	8010d1c <HAL_I2C_MspInit>
 8008cd8:	2324      	movs	r3, #36	; 0x24
 8008cda:	6822      	ldr	r2, [r4, #0]
 8008cdc:	f884 303d 	strb.w	r3, [r4, #61]	; 0x3d
 8008ce0:	6813      	ldr	r3, [r2, #0]
 8008ce2:	f023 0301 	bic.w	r3, r3, #1
 8008ce6:	6013      	str	r3, [r2, #0]
 8008ce8:	f000 ffa2 	bl	8009c30 <HAL_RCC_GetPCLK1Freq>
 8008cec:	6865      	ldr	r5, [r4, #4]
 8008cee:	4b41      	ldr	r3, [pc, #260]	; (8008df4 <HAL_I2C_Init+0x138>)
 8008cf0:	429d      	cmp	r5, r3
 8008cf2:	d84d      	bhi.n	8008d90 <HAL_I2C_Init+0xd4>
 8008cf4:	4b40      	ldr	r3, [pc, #256]	; (8008df8 <HAL_I2C_Init+0x13c>)
 8008cf6:	4298      	cmp	r0, r3
 8008cf8:	d9e3      	bls.n	8008cc2 <HAL_I2C_Init+0x6>
 8008cfa:	4940      	ldr	r1, [pc, #256]	; (8008dfc <HAL_I2C_Init+0x140>)
 8008cfc:	6822      	ldr	r2, [r4, #0]
 8008cfe:	fbb0 f1f1 	udiv	r1, r0, r1
 8008d02:	6853      	ldr	r3, [r2, #4]
 8008d04:	f023 033f 	bic.w	r3, r3, #63	; 0x3f
 8008d08:	430b      	orrs	r3, r1
 8008d0a:	6053      	str	r3, [r2, #4]
 8008d0c:	6a13      	ldr	r3, [r2, #32]
 8008d0e:	f023 033f 	bic.w	r3, r3, #63	; 0x3f
 8008d12:	3101      	adds	r1, #1
 8008d14:	4319      	orrs	r1, r3
 8008d16:	6211      	str	r1, [r2, #32]
 8008d18:	69d1      	ldr	r1, [r2, #28]
 8008d1a:	4b36      	ldr	r3, [pc, #216]	; (8008df4 <HAL_I2C_Init+0x138>)
 8008d1c:	f421 414f 	bic.w	r1, r1, #52992	; 0xcf00
 8008d20:	429d      	cmp	r5, r3
 8008d22:	f021 01ff 	bic.w	r1, r1, #255	; 0xff
 8008d26:	f100 30ff 	add.w	r0, r0, #4294967295
 8008d2a:	d848      	bhi.n	8008dbe <HAL_I2C_Init+0x102>
 8008d2c:	006d      	lsls	r5, r5, #1
 8008d2e:	fbb0 f0f5 	udiv	r0, r0, r5
 8008d32:	3001      	adds	r0, #1
 8008d34:	f3c0 030b 	ubfx	r3, r0, #0, #12
 8008d38:	2b04      	cmp	r3, #4
 8008d3a:	bf38      	it	cc
 8008d3c:	2304      	movcc	r3, #4
 8008d3e:	430b      	orrs	r3, r1
 8008d40:	61d3      	str	r3, [r2, #28]
 8008d42:	6811      	ldr	r1, [r2, #0]
 8008d44:	6a20      	ldr	r0, [r4, #32]
 8008d46:	69e3      	ldr	r3, [r4, #28]
 8008d48:	f021 01c0 	bic.w	r1, r1, #192	; 0xc0
 8008d4c:	4303      	orrs	r3, r0
 8008d4e:	430b      	orrs	r3, r1
 8008d50:	6013      	str	r3, [r2, #0]
 8008d52:	6891      	ldr	r1, [r2, #8]
 8008d54:	68e0      	ldr	r0, [r4, #12]
 8008d56:	6923      	ldr	r3, [r4, #16]
 8008d58:	f421 4103 	bic.w	r1, r1, #33536	; 0x8300
 8008d5c:	4303      	orrs	r3, r0
 8008d5e:	f021 01ff 	bic.w	r1, r1, #255	; 0xff
 8008d62:	430b      	orrs	r3, r1
 8008d64:	6093      	str	r3, [r2, #8]
 8008d66:	68d1      	ldr	r1, [r2, #12]
 8008d68:	69a0      	ldr	r0, [r4, #24]
 8008d6a:	6963      	ldr	r3, [r4, #20]
 8008d6c:	f021 01ff 	bic.w	r1, r1, #255	; 0xff
 8008d70:	4303      	orrs	r3, r0
 8008d72:	430b      	orrs	r3, r1
 8008d74:	60d3      	str	r3, [r2, #12]
 8008d76:	6813      	ldr	r3, [r2, #0]
 8008d78:	2000      	movs	r0, #0
 8008d7a:	f043 0301 	orr.w	r3, r3, #1
 8008d7e:	6013      	str	r3, [r2, #0]
 8008d80:	2320      	movs	r3, #32
 8008d82:	6420      	str	r0, [r4, #64]	; 0x40
 8008d84:	f884 303d 	strb.w	r3, [r4, #61]	; 0x3d
 8008d88:	6320      	str	r0, [r4, #48]	; 0x30
 8008d8a:	f884 003e 	strb.w	r0, [r4, #62]	; 0x3e
 8008d8e:	bd70      	pop	{r4, r5, r6, pc}
 8008d90:	4b1b      	ldr	r3, [pc, #108]	; (8008e00 <HAL_I2C_Init+0x144>)
 8008d92:	4298      	cmp	r0, r3
 8008d94:	d995      	bls.n	8008cc2 <HAL_I2C_Init+0x6>
 8008d96:	4e19      	ldr	r6, [pc, #100]	; (8008dfc <HAL_I2C_Init+0x140>)
 8008d98:	f44f 7196 	mov.w	r1, #300	; 0x12c
 8008d9c:	fbb0 f6f6 	udiv	r6, r0, r6
 8008da0:	6822      	ldr	r2, [r4, #0]
 8008da2:	4371      	muls	r1, r6
 8008da4:	6853      	ldr	r3, [r2, #4]
 8008da6:	f023 033f 	bic.w	r3, r3, #63	; 0x3f
 8008daa:	4333      	orrs	r3, r6
 8008dac:	f44f 767a 	mov.w	r6, #1000	; 0x3e8
 8008db0:	6053      	str	r3, [r2, #4]
 8008db2:	6a13      	ldr	r3, [r2, #32]
 8008db4:	fbb1 f1f6 	udiv	r1, r1, r6
 8008db8:	f023 033f 	bic.w	r3, r3, #63	; 0x3f
 8008dbc:	e7a9      	b.n	8008d12 <HAL_I2C_Init+0x56>
 8008dbe:	68a3      	ldr	r3, [r4, #8]
 8008dc0:	b953      	cbnz	r3, 8008dd8 <HAL_I2C_Init+0x11c>
 8008dc2:	eb05 0345 	add.w	r3, r5, r5, lsl #1
 8008dc6:	fbb0 f0f3 	udiv	r0, r0, r3
 8008dca:	1c43      	adds	r3, r0, #1
 8008dcc:	f3c3 030b 	ubfx	r3, r3, #0, #12
 8008dd0:	b16b      	cbz	r3, 8008dee <HAL_I2C_Init+0x132>
 8008dd2:	f443 4300 	orr.w	r3, r3, #32768	; 0x8000
 8008dd6:	e7b2      	b.n	8008d3e <HAL_I2C_Init+0x82>
 8008dd8:	2319      	movs	r3, #25
 8008dda:	436b      	muls	r3, r5
 8008ddc:	fbb0 f0f3 	udiv	r0, r0, r3
 8008de0:	1c43      	adds	r3, r0, #1
 8008de2:	f3c3 030b 	ubfx	r3, r3, #0, #12
 8008de6:	b113      	cbz	r3, 8008dee <HAL_I2C_Init+0x132>
 8008de8:	f443 4340 	orr.w	r3, r3, #49152	; 0xc000
 8008dec:	e7a7      	b.n	8008d3e <HAL_I2C_Init+0x82>
 8008dee:	2301      	movs	r3, #1
 8008df0:	e7a5      	b.n	8008d3e <HAL_I2C_Init+0x82>
 8008df2:	bf00      	nop
 8008df4:	000186a0 	.word	0x000186a0
 8008df8:	001e847f 	.word	0x001e847f
 8008dfc:	000f4240 	.word	0x000f4240
 8008e00:	003d08ff 	.word	0x003d08ff

08008e04 <I2C_WaitOnFlagUntilTimeout>:
 8008e04:	e92d 43f8 	stmdb	sp!, {r3, r4, r5, r6, r7, r8, r9, lr}
 8008e08:	4604      	mov	r4, r0
 8008e0a:	4690      	mov	r8, r2
 8008e0c:	461f      	mov	r7, r3
 8008e0e:	9e08      	ldr	r6, [sp, #32]
 8008e10:	f3c1 4907 	ubfx	r9, r1, #16, #8
 8008e14:	b28d      	uxth	r5, r1
 8008e16:	6823      	ldr	r3, [r4, #0]
 8008e18:	f1b9 0f01 	cmp.w	r9, #1
 8008e1c:	bf0c      	ite	eq
 8008e1e:	695b      	ldreq	r3, [r3, #20]
 8008e20:	699b      	ldrne	r3, [r3, #24]
 8008e22:	ea35 0303 	bics.w	r3, r5, r3
 8008e26:	bf0c      	ite	eq
 8008e28:	2301      	moveq	r3, #1
 8008e2a:	2300      	movne	r3, #0
 8008e2c:	4543      	cmp	r3, r8
 8008e2e:	d002      	beq.n	8008e36 <I2C_WaitOnFlagUntilTimeout+0x32>
 8008e30:	2000      	movs	r0, #0
 8008e32:	e8bd 83f8 	ldmia.w	sp!, {r3, r4, r5, r6, r7, r8, r9, pc}
 8008e36:	1c7b      	adds	r3, r7, #1
 8008e38:	d0ed      	beq.n	8008e16 <I2C_WaitOnFlagUntilTimeout+0x12>
 8008e3a:	f7ff fc57 	bl	80086ec <HAL_GetTick>
 8008e3e:	1b80      	subs	r0, r0, r6
 8008e40:	4287      	cmp	r7, r0
 8008e42:	d301      	bcc.n	8008e48 <I2C_WaitOnFlagUntilTimeout+0x44>
 8008e44:	2f00      	cmp	r7, #0
 8008e46:	d1e6      	bne.n	8008e16 <I2C_WaitOnFlagUntilTimeout+0x12>
 8008e48:	2300      	movs	r3, #0
 8008e4a:	2220      	movs	r2, #32
 8008e4c:	6323      	str	r3, [r4, #48]	; 0x30
 8008e4e:	f884 203d 	strb.w	r2, [r4, #61]	; 0x3d
 8008e52:	f884 303e 	strb.w	r3, [r4, #62]	; 0x3e
 8008e56:	6c22      	ldr	r2, [r4, #64]	; 0x40
 8008e58:	f884 303c 	strb.w	r3, [r4, #60]	; 0x3c
 8008e5c:	f042 0220 	orr.w	r2, r2, #32
 8008e60:	6422      	str	r2, [r4, #64]	; 0x40
 8008e62:	2001      	movs	r0, #1
 8008e64:	e8bd 83f8 	ldmia.w	sp!, {r3, r4, r5, r6, r7, r8, r9, pc}

08008e68 <I2C_WaitOnMasterAddressFlagUntilTimeout>:
 8008e68:	e92d 43f8 	stmdb	sp!, {r3, r4, r5, r6, r7, r8, r9, lr}
 8008e6c:	4604      	mov	r4, r0
 8008e6e:	4617      	mov	r7, r2
 8008e70:	4699      	mov	r9, r3
 8008e72:	f3c1 4807 	ubfx	r8, r1, #16, #8
 8008e76:	b28e      	uxth	r6, r1
 8008e78:	6825      	ldr	r5, [r4, #0]
 8008e7a:	f1b8 0f01 	cmp.w	r8, #1
 8008e7e:	bf0c      	ite	eq
 8008e80:	696b      	ldreq	r3, [r5, #20]
 8008e82:	69ab      	ldrne	r3, [r5, #24]
 8008e84:	ea36 0303 	bics.w	r3, r6, r3
 8008e88:	bf14      	ite	ne
 8008e8a:	2001      	movne	r0, #1
 8008e8c:	2000      	moveq	r0, #0
 8008e8e:	b908      	cbnz	r0, 8008e94 <I2C_WaitOnMasterAddressFlagUntilTimeout+0x2c>
 8008e90:	e8bd 83f8 	ldmia.w	sp!, {r3, r4, r5, r6, r7, r8, r9, pc}
 8008e94:	696b      	ldr	r3, [r5, #20]
 8008e96:	055a      	lsls	r2, r3, #21
 8008e98:	d516      	bpl.n	8008ec8 <I2C_WaitOnMasterAddressFlagUntilTimeout+0x60>
 8008e9a:	682b      	ldr	r3, [r5, #0]
 8008e9c:	2220      	movs	r2, #32
 8008e9e:	f443 7300 	orr.w	r3, r3, #512	; 0x200
 8008ea2:	602b      	str	r3, [r5, #0]
 8008ea4:	f46f 6380 	mvn.w	r3, #1024	; 0x400
 8008ea8:	616b      	str	r3, [r5, #20]
 8008eaa:	2300      	movs	r3, #0
 8008eac:	6323      	str	r3, [r4, #48]	; 0x30
 8008eae:	f884 203d 	strb.w	r2, [r4, #61]	; 0x3d
 8008eb2:	f884 303e 	strb.w	r3, [r4, #62]	; 0x3e
 8008eb6:	6c22      	ldr	r2, [r4, #64]	; 0x40
 8008eb8:	f042 0204 	orr.w	r2, r2, #4
 8008ebc:	6422      	str	r2, [r4, #64]	; 0x40
 8008ebe:	f884 303c 	strb.w	r3, [r4, #60]	; 0x3c
 8008ec2:	2001      	movs	r0, #1
 8008ec4:	e8bd 83f8 	ldmia.w	sp!, {r3, r4, r5, r6, r7, r8, r9, pc}
 8008ec8:	1c7b      	adds	r3, r7, #1
 8008eca:	d0d5      	beq.n	8008e78 <I2C_WaitOnMasterAddressFlagUntilTimeout+0x10>
 8008ecc:	f7ff fc0e 	bl	80086ec <HAL_GetTick>
 8008ed0:	eba0 0009 	sub.w	r0, r0, r9
 8008ed4:	4287      	cmp	r7, r0
 8008ed6:	d301      	bcc.n	8008edc <I2C_WaitOnMasterAddressFlagUntilTimeout+0x74>
 8008ed8:	2f00      	cmp	r7, #0
 8008eda:	d1cd      	bne.n	8008e78 <I2C_WaitOnMasterAddressFlagUntilTimeout+0x10>
 8008edc:	2300      	movs	r3, #0
 8008ede:	2220      	movs	r2, #32
 8008ee0:	6323      	str	r3, [r4, #48]	; 0x30
 8008ee2:	f884 203d 	strb.w	r2, [r4, #61]	; 0x3d
 8008ee6:	f884 303e 	strb.w	r3, [r4, #62]	; 0x3e
 8008eea:	6c22      	ldr	r2, [r4, #64]	; 0x40
 8008eec:	f042 0220 	orr.w	r2, r2, #32
 8008ef0:	e7e4      	b.n	8008ebc <I2C_WaitOnMasterAddressFlagUntilTimeout+0x54>

08008ef2 <I2C_WaitOnTXEFlagUntilTimeout>:
 8008ef2:	b570      	push	{r4, r5, r6, lr}
 8008ef4:	4604      	mov	r4, r0
 8008ef6:	460d      	mov	r5, r1
 8008ef8:	4616      	mov	r6, r2
 8008efa:	6823      	ldr	r3, [r4, #0]
 8008efc:	695b      	ldr	r3, [r3, #20]
 8008efe:	061b      	lsls	r3, r3, #24
 8008f00:	d501      	bpl.n	8008f06 <I2C_WaitOnTXEFlagUntilTimeout+0x14>
 8008f02:	2000      	movs	r0, #0
 8008f04:	bd70      	pop	{r4, r5, r6, pc}
 8008f06:	4620      	mov	r0, r4
 8008f08:	f7ff febf 	bl	8008c8a <I2C_IsAcknowledgeFailed>
 8008f0c:	b9a8      	cbnz	r0, 8008f3a <I2C_WaitOnTXEFlagUntilTimeout+0x48>
 8008f0e:	1c6a      	adds	r2, r5, #1
 8008f10:	d0f3      	beq.n	8008efa <I2C_WaitOnTXEFlagUntilTimeout+0x8>
 8008f12:	f7ff fbeb 	bl	80086ec <HAL_GetTick>
 8008f16:	1b80      	subs	r0, r0, r6
 8008f18:	4285      	cmp	r5, r0
 8008f1a:	d301      	bcc.n	8008f20 <I2C_WaitOnTXEFlagUntilTimeout+0x2e>
 8008f1c:	2d00      	cmp	r5, #0
 8008f1e:	d1ec      	bne.n	8008efa <I2C_WaitOnTXEFlagUntilTimeout+0x8>
 8008f20:	2300      	movs	r3, #0
 8008f22:	2220      	movs	r2, #32
 8008f24:	6323      	str	r3, [r4, #48]	; 0x30
 8008f26:	f884 203d 	strb.w	r2, [r4, #61]	; 0x3d
 8008f2a:	f884 303e 	strb.w	r3, [r4, #62]	; 0x3e
 8008f2e:	6c22      	ldr	r2, [r4, #64]	; 0x40
 8008f30:	f884 303c 	strb.w	r3, [r4, #60]	; 0x3c
 8008f34:	f042 0220 	orr.w	r2, r2, #32
 8008f38:	6422      	str	r2, [r4, #64]	; 0x40
 8008f3a:	2001      	movs	r0, #1
 8008f3c:	bd70      	pop	{r4, r5, r6, pc}

08008f3e <I2C_WaitOnBTFFlagUntilTimeout>:
 8008f3e:	b570      	push	{r4, r5, r6, lr}
 8008f40:	4604      	mov	r4, r0
 8008f42:	460d      	mov	r5, r1
 8008f44:	4616      	mov	r6, r2
 8008f46:	6823      	ldr	r3, [r4, #0]
 8008f48:	695b      	ldr	r3, [r3, #20]
 8008f4a:	075b      	lsls	r3, r3, #29
 8008f4c:	d501      	bpl.n	8008f52 <I2C_WaitOnBTFFlagUntilTimeout+0x14>
 8008f4e:	2000      	movs	r0, #0
 8008f50:	bd70      	pop	{r4, r5, r6, pc}
 8008f52:	4620      	mov	r0, r4
 8008f54:	f7ff fe99 	bl	8008c8a <I2C_IsAcknowledgeFailed>
 8008f58:	b9a8      	cbnz	r0, 8008f86 <I2C_WaitOnBTFFlagUntilTimeout+0x48>
 8008f5a:	1c6a      	adds	r2, r5, #1
 8008f5c:	d0f3      	beq.n	8008f46 <I2C_WaitOnBTFFlagUntilTimeout+0x8>
 8008f5e:	f7ff fbc5 	bl	80086ec <HAL_GetTick>
 8008f62:	1b80      	subs	r0, r0, r6
 8008f64:	4285      	cmp	r5, r0
 8008f66:	d301      	bcc.n	8008f6c <I2C_WaitOnBTFFlagUntilTimeout+0x2e>
 8008f68:	2d00      	cmp	r5, #0
 8008f6a:	d1ec      	bne.n	8008f46 <I2C_WaitOnBTFFlagUntilTimeout+0x8>
 8008f6c:	2300      	movs	r3, #0
 8008f6e:	2220      	movs	r2, #32
 8008f70:	6323      	str	r3, [r4, #48]	; 0x30
 8008f72:	f884 203d 	strb.w	r2, [r4, #61]	; 0x3d
 8008f76:	f884 303e 	strb.w	r3, [r4, #62]	; 0x3e
 8008f7a:	6c22      	ldr	r2, [r4, #64]	; 0x40
 8008f7c:	f884 303c 	strb.w	r3, [r4, #60]	; 0x3c
 8008f80:	f042 0220 	orr.w	r2, r2, #32
 8008f84:	6422      	str	r2, [r4, #64]	; 0x40
 8008f86:	2001      	movs	r0, #1
 8008f88:	bd70      	pop	{r4, r5, r6, pc}

08008f8a <HAL_PCD_Init>:
 8008f8a:	b5f0      	push	{r4, r5, r6, r7, lr}
 8008f8c:	4604      	mov	r4, r0
 8008f8e:	b087      	sub	sp, #28
 8008f90:	b310      	cbz	r0, 8008fd8 <HAL_PCD_Init+0x4e>
 8008f92:	f890 3229 	ldrb.w	r3, [r0, #553]	; 0x229
 8008f96:	f003 02ff 	and.w	r2, r3, #255	; 0xff
 8008f9a:	b91b      	cbnz	r3, 8008fa4 <HAL_PCD_Init+0x1a>
 8008f9c:	f880 2228 	strb.w	r2, [r0, #552]	; 0x228
 8008fa0:	f008 fa7e 	bl	80114a0 <HAL_PCD_MspInit>
 8008fa4:	4625      	mov	r5, r4
 8008fa6:	2303      	movs	r3, #3
 8008fa8:	466e      	mov	r6, sp
 8008faa:	f855 0b10 	ldr.w	r0, [r5], #16
 8008fae:	f884 3229 	strb.w	r3, [r4, #553]	; 0x229
 8008fb2:	f001 fcb7 	bl	800a924 <USB_DisableGlobalInt>
 8008fb6:	cd0f      	ldmia	r5!, {r0, r1, r2, r3}
 8008fb8:	c60f      	stmia	r6!, {r0, r1, r2, r3}
 8008fba:	682b      	ldr	r3, [r5, #0]
 8008fbc:	4625      	mov	r5, r4
 8008fbe:	6033      	str	r3, [r6, #0]
 8008fc0:	1d27      	adds	r7, r4, #4
 8008fc2:	e897 000e 	ldmia.w	r7, {r1, r2, r3}
 8008fc6:	f855 0b10 	ldr.w	r0, [r5], #16
 8008fca:	f001 fc9b 	bl	800a904 <USB_CoreInit>
 8008fce:	4606      	mov	r6, r0
 8008fd0:	b120      	cbz	r0, 8008fdc <HAL_PCD_Init+0x52>
 8008fd2:	2302      	movs	r3, #2
 8008fd4:	f884 3229 	strb.w	r3, [r4, #553]	; 0x229
 8008fd8:	2501      	movs	r5, #1
 8008fda:	e048      	b.n	800906e <HAL_PCD_Init+0xe4>
 8008fdc:	4601      	mov	r1, r0
 8008fde:	6820      	ldr	r0, [r4, #0]
 8008fe0:	f001 fcaa 	bl	800a938 <USB_SetCurrentMode>
 8008fe4:	4630      	mov	r0, r6
 8008fe6:	f04f 0e01 	mov.w	lr, #1
 8008fea:	6861      	ldr	r1, [r4, #4]
 8008fec:	b2c3      	uxtb	r3, r0
 8008fee:	4299      	cmp	r1, r3
 8008ff0:	f100 0001 	add.w	r0, r0, #1
 8008ff4:	d817      	bhi.n	8009026 <HAL_PCD_Init+0x9c>
 8008ff6:	2200      	movs	r2, #0
 8008ff8:	4610      	mov	r0, r2
 8008ffa:	b2d3      	uxtb	r3, r2
 8008ffc:	4299      	cmp	r1, r3
 8008ffe:	f102 0201 	add.w	r2, r2, #1
 8009002:	d81d      	bhi.n	8009040 <HAL_PCD_Init+0xb6>
 8009004:	466e      	mov	r6, sp
 8009006:	cd0f      	ldmia	r5!, {r0, r1, r2, r3}
 8009008:	c60f      	stmia	r6!, {r0, r1, r2, r3}
 800900a:	682b      	ldr	r3, [r5, #0]
 800900c:	6033      	str	r3, [r6, #0]
 800900e:	e897 000e 	ldmia.w	r7, {r1, r2, r3}
 8009012:	6820      	ldr	r0, [r4, #0]
 8009014:	f001 fc92 	bl	800a93c <USB_DevInit>
 8009018:	2301      	movs	r3, #1
 800901a:	4605      	mov	r5, r0
 800901c:	b300      	cbz	r0, 8009060 <HAL_PCD_Init+0xd6>
 800901e:	2202      	movs	r2, #2
 8009020:	f884 2229 	strb.w	r2, [r4, #553]	; 0x229
 8009024:	e7d8      	b.n	8008fd8 <HAL_PCD_Init+0x4e>
 8009026:	eb04 1243 	add.w	r2, r4, r3, lsl #5
 800902a:	f882 e029 	strb.w	lr, [r2, #41]	; 0x29
 800902e:	f882 3028 	strb.w	r3, [r2, #40]	; 0x28
 8009032:	86d3      	strh	r3, [r2, #54]	; 0x36
 8009034:	f882 602b 	strb.w	r6, [r2, #43]	; 0x2b
 8009038:	6396      	str	r6, [r2, #56]	; 0x38
 800903a:	63d6      	str	r6, [r2, #60]	; 0x3c
 800903c:	6416      	str	r6, [r2, #64]	; 0x40
 800903e:	e7d5      	b.n	8008fec <HAL_PCD_Init+0x62>
 8009040:	eb04 1643 	add.w	r6, r4, r3, lsl #5
 8009044:	f886 3128 	strb.w	r3, [r6, #296]	; 0x128
 8009048:	330a      	adds	r3, #10
 800904a:	015b      	lsls	r3, r3, #5
 800904c:	f886 0129 	strb.w	r0, [r6, #297]	; 0x129
 8009050:	f886 012b 	strb.w	r0, [r6, #299]	; 0x12b
 8009054:	f8c6 0138 	str.w	r0, [r6, #312]	; 0x138
 8009058:	f8c6 013c 	str.w	r0, [r6, #316]	; 0x13c
 800905c:	50e0      	str	r0, [r4, r3]
 800905e:	e7cc      	b.n	8008ffa <HAL_PCD_Init+0x70>
 8009060:	f884 0024 	strb.w	r0, [r4, #36]	; 0x24
 8009064:	f884 3229 	strb.w	r3, [r4, #553]	; 0x229
 8009068:	6820      	ldr	r0, [r4, #0]
 800906a:	f001 ff4d 	bl	800af08 <USB_DevDisconnect>
 800906e:	4628      	mov	r0, r5
 8009070:	b007      	add	sp, #28
 8009072:	bdf0      	pop	{r4, r5, r6, r7, pc}

08009074 <HAL_PCD_Start>:
 8009074:	f890 3228 	ldrb.w	r3, [r0, #552]	; 0x228
 8009078:	b510      	push	{r4, lr}
 800907a:	2b01      	cmp	r3, #1
 800907c:	4604      	mov	r4, r0
 800907e:	d00e      	beq.n	800909e <HAL_PCD_Start+0x2a>
 8009080:	2101      	movs	r1, #1
 8009082:	f880 1228 	strb.w	r1, [r0, #552]	; 0x228
 8009086:	f008 fb34 	bl	80116f2 <HAL_PCDEx_SetConnectionState>
 800908a:	6820      	ldr	r0, [r4, #0]
 800908c:	f001 ff3a 	bl	800af04 <USB_DevConnect>
 8009090:	6820      	ldr	r0, [r4, #0]
 8009092:	f001 fc3e 	bl	800a912 <USB_EnableGlobalInt>
 8009096:	2000      	movs	r0, #0
 8009098:	f884 0228 	strb.w	r0, [r4, #552]	; 0x228
 800909c:	bd10      	pop	{r4, pc}
 800909e:	2002      	movs	r0, #2
 80090a0:	bd10      	pop	{r4, pc}

080090a2 <HAL_PCD_SetAddress>:
 80090a2:	f890 2228 	ldrb.w	r2, [r0, #552]	; 0x228
 80090a6:	b510      	push	{r4, lr}
 80090a8:	2a01      	cmp	r2, #1
 80090aa:	4604      	mov	r4, r0
 80090ac:	d00b      	beq.n	80090c6 <HAL_PCD_SetAddress+0x24>
 80090ae:	2201      	movs	r2, #1
 80090b0:	f880 2228 	strb.w	r2, [r0, #552]	; 0x228
 80090b4:	f884 1024 	strb.w	r1, [r4, #36]	; 0x24
 80090b8:	6800      	ldr	r0, [r0, #0]
 80090ba:	f001 ff1d 	bl	800aef8 <USB_SetDevAddress>
 80090be:	2000      	movs	r0, #0
 80090c0:	f884 0228 	strb.w	r0, [r4, #552]	; 0x228
 80090c4:	bd10      	pop	{r4, pc}
 80090c6:	2002      	movs	r0, #2
 80090c8:	bd10      	pop	{r4, pc}

080090ca <HAL_PCD_EP_Open>:
 80090ca:	b570      	push	{r4, r5, r6, lr}
 80090cc:	f011 0f80 	tst.w	r1, #128	; 0x80
 80090d0:	4604      	mov	r4, r0
 80090d2:	f001 0007 	and.w	r0, r1, #7
 80090d6:	ea4f 1540 	mov.w	r5, r0, lsl #5
 80090da:	d01f      	beq.n	800911c <HAL_PCD_EP_Open+0x52>
 80090dc:	2601      	movs	r6, #1
 80090de:	f105 0128 	add.w	r1, r5, #40	; 0x28
 80090e2:	4425      	add	r5, r4
 80090e4:	4421      	add	r1, r4
 80090e6:	f885 6029 	strb.w	r6, [r5, #41]	; 0x29
 80090ea:	610a      	str	r2, [r1, #16]
 80090ec:	784a      	ldrb	r2, [r1, #1]
 80090ee:	b2c0      	uxtb	r0, r0
 80090f0:	7008      	strb	r0, [r1, #0]
 80090f2:	70cb      	strb	r3, [r1, #3]
 80090f4:	b102      	cbz	r2, 80090f8 <HAL_PCD_EP_Open+0x2e>
 80090f6:	81c8      	strh	r0, [r1, #14]
 80090f8:	2b02      	cmp	r3, #2
 80090fa:	bf04      	itt	eq
 80090fc:	2300      	moveq	r3, #0
 80090fe:	710b      	strbeq	r3, [r1, #4]
 8009100:	f894 3228 	ldrb.w	r3, [r4, #552]	; 0x228
 8009104:	2b01      	cmp	r3, #1
 8009106:	d011      	beq.n	800912c <HAL_PCD_EP_Open+0x62>
 8009108:	2301      	movs	r3, #1
 800910a:	6820      	ldr	r0, [r4, #0]
 800910c:	f884 3228 	strb.w	r3, [r4, #552]	; 0x228
 8009110:	f001 fc30 	bl	800a974 <USB_ActivateEndpoint>
 8009114:	2000      	movs	r0, #0
 8009116:	f884 0228 	strb.w	r0, [r4, #552]	; 0x228
 800911a:	bd70      	pop	{r4, r5, r6, pc}
 800911c:	2600      	movs	r6, #0
 800911e:	f505 7194 	add.w	r1, r5, #296	; 0x128
 8009122:	4425      	add	r5, r4
 8009124:	4421      	add	r1, r4
 8009126:	f885 6129 	strb.w	r6, [r5, #297]	; 0x129
 800912a:	e7de      	b.n	80090ea <HAL_PCD_EP_Open+0x20>
 800912c:	2002      	movs	r0, #2
 800912e:	bd70      	pop	{r4, r5, r6, pc}

08009130 <HAL_PCD_EP_Close>:
 8009130:	f001 0307 	and.w	r3, r1, #7
 8009134:	f011 0f80 	tst.w	r1, #128	; 0x80
 8009138:	b510      	push	{r4, lr}
 800913a:	ea4f 1243 	mov.w	r2, r3, lsl #5
 800913e:	4604      	mov	r4, r0
 8009140:	d015      	beq.n	800916e <HAL_PCD_EP_Close+0x3e>
 8009142:	f102 0128 	add.w	r1, r2, #40	; 0x28
 8009146:	4401      	add	r1, r0
 8009148:	4402      	add	r2, r0
 800914a:	2001      	movs	r0, #1
 800914c:	f882 0029 	strb.w	r0, [r2, #41]	; 0x29
 8009150:	700b      	strb	r3, [r1, #0]
 8009152:	f894 3228 	ldrb.w	r3, [r4, #552]	; 0x228
 8009156:	2b01      	cmp	r3, #1
 8009158:	d011      	beq.n	800917e <HAL_PCD_EP_Close+0x4e>
 800915a:	2301      	movs	r3, #1
 800915c:	6820      	ldr	r0, [r4, #0]
 800915e:	f884 3228 	strb.w	r3, [r4, #552]	; 0x228
 8009162:	f001 fd7f 	bl	800ac64 <USB_DeactivateEndpoint>
 8009166:	2000      	movs	r0, #0
 8009168:	f884 0228 	strb.w	r0, [r4, #552]	; 0x228
 800916c:	bd10      	pop	{r4, pc}
 800916e:	f502 7194 	add.w	r1, r2, #296	; 0x128
 8009172:	4401      	add	r1, r0
 8009174:	4402      	add	r2, r0
 8009176:	2000      	movs	r0, #0
 8009178:	f882 0129 	strb.w	r0, [r2, #297]	; 0x129
 800917c:	e7e8      	b.n	8009150 <HAL_PCD_EP_Close+0x20>
 800917e:	2002      	movs	r0, #2
 8009180:	bd10      	pop	{r4, pc}

08009182 <HAL_PCD_EP_Receive>:
 8009182:	b570      	push	{r4, r5, r6, lr}
 8009184:	2600      	movs	r6, #0
 8009186:	f001 0107 	and.w	r1, r1, #7
 800918a:	014d      	lsls	r5, r1, #5
 800918c:	1944      	adds	r4, r0, r5
 800918e:	f884 1128 	strb.w	r1, [r4, #296]	; 0x128
 8009192:	f505 7194 	add.w	r1, r5, #296	; 0x128
 8009196:	4401      	add	r1, r0
 8009198:	f8c4 213c 	str.w	r2, [r4, #316]	; 0x13c
 800919c:	f8c4 3140 	str.w	r3, [r4, #320]	; 0x140
 80091a0:	f8c4 6144 	str.w	r6, [r4, #324]	; 0x144
 80091a4:	f884 6129 	strb.w	r6, [r4, #297]	; 0x129
 80091a8:	6800      	ldr	r0, [r0, #0]
 80091aa:	f001 fec5 	bl	800af38 <USB_EPStartXfer>
 80091ae:	4630      	mov	r0, r6
 80091b0:	bd70      	pop	{r4, r5, r6, pc}

080091b2 <HAL_PCD_EP_GetRxCount>:
 80091b2:	f001 0107 	and.w	r1, r1, #7
 80091b6:	eb00 1141 	add.w	r1, r0, r1, lsl #5
 80091ba:	f8d1 0144 	ldr.w	r0, [r1, #324]	; 0x144
 80091be:	4770      	bx	lr

080091c0 <HAL_PCD_EP_Transmit>:
 80091c0:	f001 0107 	and.w	r1, r1, #7
 80091c4:	b570      	push	{r4, r5, r6, lr}
 80091c6:	014d      	lsls	r5, r1, #5
 80091c8:	1944      	adds	r4, r0, r5
 80091ca:	6423      	str	r3, [r4, #64]	; 0x40
 80091cc:	2600      	movs	r6, #0
 80091ce:	2301      	movs	r3, #1
 80091d0:	f884 1028 	strb.w	r1, [r4, #40]	; 0x28
 80091d4:	f105 0128 	add.w	r1, r5, #40	; 0x28
 80091d8:	4401      	add	r1, r0
 80091da:	63e2      	str	r2, [r4, #60]	; 0x3c
 80091dc:	6466      	str	r6, [r4, #68]	; 0x44
 80091de:	f884 3029 	strb.w	r3, [r4, #41]	; 0x29
 80091e2:	6800      	ldr	r0, [r0, #0]
 80091e4:	f001 fea8 	bl	800af38 <USB_EPStartXfer>
 80091e8:	4630      	mov	r0, r6
 80091ea:	bd70      	pop	{r4, r5, r6, pc}

080091ec <HAL_PCD_IRQHandler>:
 80091ec:	e92d 4ff8 	stmdb	sp!, {r3, r4, r5, r6, r7, r8, r9, sl, fp, lr}
 80091f0:	4604      	mov	r4, r0
 80091f2:	6800      	ldr	r0, [r0, #0]
 80091f4:	f001 fe8a 	bl	800af0c <USB_ReadInterrupts>
 80091f8:	0402      	lsls	r2, r0, #16
 80091fa:	f100 8210 	bmi.w	800961e <HAL_PCD_IRQHandler+0x432>
 80091fe:	6820      	ldr	r0, [r4, #0]
 8009200:	f001 fe84 	bl	800af0c <USB_ReadInterrupts>
 8009204:	0543      	lsls	r3, r0, #21
 8009206:	d50f      	bpl.n	8009228 <HAL_PCD_IRQHandler+0x3c>
 8009208:	6822      	ldr	r2, [r4, #0]
 800920a:	4620      	mov	r0, r4
 800920c:	f8b2 3044 	ldrh.w	r3, [r2, #68]	; 0x44
 8009210:	f423 6380 	bic.w	r3, r3, #1024	; 0x400
 8009214:	041b      	lsls	r3, r3, #16
 8009216:	0c1b      	lsrs	r3, r3, #16
 8009218:	f8a2 3044 	strh.w	r3, [r2, #68]	; 0x44
 800921c:	f008 f977 	bl	801150e <HAL_PCD_ResetCallback>
 8009220:	2100      	movs	r1, #0
 8009222:	4620      	mov	r0, r4
 8009224:	f7ff ff3d 	bl	80090a2 <HAL_PCD_SetAddress>
 8009228:	6820      	ldr	r0, [r4, #0]
 800922a:	f001 fe6f 	bl	800af0c <USB_ReadInterrupts>
 800922e:	0447      	lsls	r7, r0, #17
 8009230:	d508      	bpl.n	8009244 <HAL_PCD_IRQHandler+0x58>
 8009232:	6822      	ldr	r2, [r4, #0]
 8009234:	f8b2 3044 	ldrh.w	r3, [r2, #68]	; 0x44
 8009238:	f423 4380 	bic.w	r3, r3, #16384	; 0x4000
 800923c:	041b      	lsls	r3, r3, #16
 800923e:	0c1b      	lsrs	r3, r3, #16
 8009240:	f8a2 3044 	strh.w	r3, [r2, #68]	; 0x44
 8009244:	6820      	ldr	r0, [r4, #0]
 8009246:	f001 fe61 	bl	800af0c <USB_ReadInterrupts>
 800924a:	0486      	lsls	r6, r0, #18
 800924c:	d508      	bpl.n	8009260 <HAL_PCD_IRQHandler+0x74>
 800924e:	6822      	ldr	r2, [r4, #0]
 8009250:	f8b2 3044 	ldrh.w	r3, [r2, #68]	; 0x44
 8009254:	f423 5300 	bic.w	r3, r3, #8192	; 0x2000
 8009258:	041b      	lsls	r3, r3, #16
 800925a:	0c1b      	lsrs	r3, r3, #16
 800925c:	f8a2 3044 	strh.w	r3, [r2, #68]	; 0x44
 8009260:	6820      	ldr	r0, [r4, #0]
 8009262:	f001 fe53 	bl	800af0c <USB_ReadInterrupts>
 8009266:	04c5      	lsls	r5, r0, #19
 8009268:	d51c      	bpl.n	80092a4 <HAL_PCD_IRQHandler+0xb8>
 800926a:	6822      	ldr	r2, [r4, #0]
 800926c:	4620      	mov	r0, r4
 800926e:	f8b2 3040 	ldrh.w	r3, [r2, #64]	; 0x40
 8009272:	f023 0304 	bic.w	r3, r3, #4
 8009276:	041b      	lsls	r3, r3, #16
 8009278:	0c1b      	lsrs	r3, r3, #16
 800927a:	f8a2 3040 	strh.w	r3, [r2, #64]	; 0x40
 800927e:	f8b2 3040 	ldrh.w	r3, [r2, #64]	; 0x40
 8009282:	f023 0308 	bic.w	r3, r3, #8
 8009286:	041b      	lsls	r3, r3, #16
 8009288:	0c1b      	lsrs	r3, r3, #16
 800928a:	f8a2 3040 	strh.w	r3, [r2, #64]	; 0x40
 800928e:	f008 f961 	bl	8011554 <HAL_PCD_ResumeCallback>
 8009292:	6822      	ldr	r2, [r4, #0]
 8009294:	f8b2 3044 	ldrh.w	r3, [r2, #68]	; 0x44
 8009298:	f423 5380 	bic.w	r3, r3, #4096	; 0x1000
 800929c:	041b      	lsls	r3, r3, #16
 800929e:	0c1b      	lsrs	r3, r3, #16
 80092a0:	f8a2 3044 	strh.w	r3, [r2, #68]	; 0x44
 80092a4:	6820      	ldr	r0, [r4, #0]
 80092a6:	f001 fe31 	bl	800af0c <USB_ReadInterrupts>
 80092aa:	0500      	lsls	r0, r0, #20
 80092ac:	d526      	bpl.n	80092fc <HAL_PCD_IRQHandler+0x110>
 80092ae:	6820      	ldr	r0, [r4, #0]
 80092b0:	f8b0 3040 	ldrh.w	r3, [r0, #64]	; 0x40
 80092b4:	b29b      	uxth	r3, r3
 80092b6:	f043 0308 	orr.w	r3, r3, #8
 80092ba:	f8a0 3040 	strh.w	r3, [r0, #64]	; 0x40
 80092be:	f8b0 3044 	ldrh.w	r3, [r0, #68]	; 0x44
 80092c2:	f423 6300 	bic.w	r3, r3, #2048	; 0x800
 80092c6:	041b      	lsls	r3, r3, #16
 80092c8:	0c1b      	lsrs	r3, r3, #16
 80092ca:	f8a0 3044 	strh.w	r3, [r0, #68]	; 0x44
 80092ce:	f8b0 3040 	ldrh.w	r3, [r0, #64]	; 0x40
 80092d2:	b29b      	uxth	r3, r3
 80092d4:	f043 0304 	orr.w	r3, r3, #4
 80092d8:	f8a0 3040 	strh.w	r3, [r0, #64]	; 0x40
 80092dc:	f001 fe16 	bl	800af0c <USB_ReadInterrupts>
 80092e0:	04c1      	lsls	r1, r0, #19
 80092e2:	d508      	bpl.n	80092f6 <HAL_PCD_IRQHandler+0x10a>
 80092e4:	6822      	ldr	r2, [r4, #0]
 80092e6:	f8b2 3044 	ldrh.w	r3, [r2, #68]	; 0x44
 80092ea:	f423 5380 	bic.w	r3, r3, #4096	; 0x1000
 80092ee:	041b      	lsls	r3, r3, #16
 80092f0:	0c1b      	lsrs	r3, r3, #16
 80092f2:	f8a2 3044 	strh.w	r3, [r2, #68]	; 0x44
 80092f6:	4620      	mov	r0, r4
 80092f8:	f008 f91c 	bl	8011534 <HAL_PCD_SuspendCallback>
 80092fc:	6820      	ldr	r0, [r4, #0]
 80092fe:	f001 fe05 	bl	800af0c <USB_ReadInterrupts>
 8009302:	0582      	lsls	r2, r0, #22
 8009304:	d50b      	bpl.n	800931e <HAL_PCD_IRQHandler+0x132>
 8009306:	6822      	ldr	r2, [r4, #0]
 8009308:	4620      	mov	r0, r4
 800930a:	f8b2 3044 	ldrh.w	r3, [r2, #68]	; 0x44
 800930e:	f423 7300 	bic.w	r3, r3, #512	; 0x200
 8009312:	041b      	lsls	r3, r3, #16
 8009314:	0c1b      	lsrs	r3, r3, #16
 8009316:	f8a2 3044 	strh.w	r3, [r2, #68]	; 0x44
 800931a:	f008 f8f4 	bl	8011506 <HAL_PCD_SOFCallback>
 800931e:	6820      	ldr	r0, [r4, #0]
 8009320:	f001 fdf4 	bl	800af0c <USB_ReadInterrupts>
 8009324:	05c3      	lsls	r3, r0, #23
 8009326:	d508      	bpl.n	800933a <HAL_PCD_IRQHandler+0x14e>
 8009328:	6822      	ldr	r2, [r4, #0]
 800932a:	f8b2 3044 	ldrh.w	r3, [r2, #68]	; 0x44
 800932e:	f423 7380 	bic.w	r3, r3, #256	; 0x100
 8009332:	041b      	lsls	r3, r3, #16
 8009334:	0c1b      	lsrs	r3, r3, #16
 8009336:	f8a2 3044 	strh.w	r3, [r2, #68]	; 0x44
 800933a:	e8bd 8ff8 	ldmia.w	sp!, {r3, r4, r5, r6, r7, r8, r9, sl, fp, pc}
 800933e:	f8b0 1044 	ldrh.w	r1, [r0, #68]	; 0x44
 8009342:	b289      	uxth	r1, r1
 8009344:	f011 060f 	ands.w	r6, r1, #15
 8009348:	f040 80b7 	bne.w	80094ba <HAL_PCD_IRQHandler+0x2ce>
 800934c:	8803      	ldrh	r3, [r0, #0]
 800934e:	f011 0110 	ands.w	r1, r1, #16
 8009352:	b29b      	uxth	r3, r3
 8009354:	d12c      	bne.n	80093b0 <HAL_PCD_IRQHandler+0x1c4>
 8009356:	ea03 0309 	and.w	r3, r3, r9
 800935a:	f443 4300 	orr.w	r3, r3, #32768	; 0x8000
 800935e:	8003      	strh	r3, [r0, #0]
 8009360:	f8b0 3050 	ldrh.w	r3, [r0, #80]	; 0x50
 8009364:	f894 2028 	ldrb.w	r2, [r4, #40]	; 0x28
 8009368:	b29b      	uxth	r3, r3
 800936a:	eb03 03c2 	add.w	r3, r3, r2, lsl #3
 800936e:	eb00 0043 	add.w	r0, r0, r3, lsl #1
 8009372:	f8b0 3404 	ldrh.w	r3, [r0, #1028]	; 0x404
 8009376:	6be2      	ldr	r2, [r4, #60]	; 0x3c
 8009378:	f3c3 0309 	ubfx	r3, r3, #0, #10
 800937c:	6463      	str	r3, [r4, #68]	; 0x44
 800937e:	4413      	add	r3, r2
 8009380:	63e3      	str	r3, [r4, #60]	; 0x3c
 8009382:	4620      	mov	r0, r4
 8009384:	f008 f8b8 	bl	80114f8 <HAL_PCD_DataInStageCallback>
 8009388:	f894 3024 	ldrb.w	r3, [r4, #36]	; 0x24
 800938c:	b153      	cbz	r3, 80093a4 <HAL_PCD_IRQHandler+0x1b8>
 800938e:	6c22      	ldr	r2, [r4, #64]	; 0x40
 8009390:	b942      	cbnz	r2, 80093a4 <HAL_PCD_IRQHandler+0x1b8>
 8009392:	f894 3024 	ldrb.w	r3, [r4, #36]	; 0x24
 8009396:	6821      	ldr	r1, [r4, #0]
 8009398:	f043 0380 	orr.w	r3, r3, #128	; 0x80
 800939c:	f8a1 304c 	strh.w	r3, [r1, #76]	; 0x4c
 80093a0:	f884 2024 	strb.w	r2, [r4, #36]	; 0x24
 80093a4:	6820      	ldr	r0, [r4, #0]
 80093a6:	f8b0 3044 	ldrh.w	r3, [r0, #68]	; 0x44
 80093aa:	041b      	lsls	r3, r3, #16
 80093ac:	d4c7      	bmi.n	800933e <HAL_PCD_IRQHandler+0x152>
 80093ae:	e726      	b.n	80091fe <HAL_PCD_IRQHandler+0x12>
 80093b0:	f413 6500 	ands.w	r5, r3, #2048	; 0x800
 80093b4:	d021      	beq.n	80093fa <HAL_PCD_IRQHandler+0x20e>
 80093b6:	f8b0 3050 	ldrh.w	r3, [r0, #80]	; 0x50
 80093ba:	f894 2128 	ldrb.w	r2, [r4, #296]	; 0x128
 80093be:	b29b      	uxth	r3, r3
 80093c0:	eb03 03c2 	add.w	r3, r3, r2, lsl #3
 80093c4:	eb00 0343 	add.w	r3, r0, r3, lsl #1
 80093c8:	f8b3 340c 	ldrh.w	r3, [r3, #1036]	; 0x40c
 80093cc:	f8b4 212e 	ldrh.w	r2, [r4, #302]	; 0x12e
 80093d0:	f3c3 0309 	ubfx	r3, r3, #0, #10
 80093d4:	f8c4 3144 	str.w	r3, [r4, #324]	; 0x144
 80093d8:	f504 710c 	add.w	r1, r4, #560	; 0x230
 80093dc:	f001 fe94 	bl	800b108 <USB_ReadPMA>
 80093e0:	6822      	ldr	r2, [r4, #0]
 80093e2:	4620      	mov	r0, r4
 80093e4:	8813      	ldrh	r3, [r2, #0]
 80093e6:	f023 0370 	bic.w	r3, r3, #112	; 0x70
 80093ea:	051b      	lsls	r3, r3, #20
 80093ec:	0d1b      	lsrs	r3, r3, #20
 80093ee:	f043 0380 	orr.w	r3, r3, #128	; 0x80
 80093f2:	8013      	strh	r3, [r2, #0]
 80093f4:	f008 f872 	bl	80114dc <HAL_PCD_SetupStageCallback>
 80093f8:	e7d4      	b.n	80093a4 <HAL_PCD_IRQHandler+0x1b8>
 80093fa:	041f      	lsls	r7, r3, #16
 80093fc:	d5d2      	bpl.n	80093a4 <HAL_PCD_IRQHandler+0x1b8>
 80093fe:	8803      	ldrh	r3, [r0, #0]
 8009400:	f023 0370 	bic.w	r3, r3, #112	; 0x70
 8009404:	051b      	lsls	r3, r3, #20
 8009406:	0d1b      	lsrs	r3, r3, #20
 8009408:	f043 0380 	orr.w	r3, r3, #128	; 0x80
 800940c:	8003      	strh	r3, [r0, #0]
 800940e:	f8b0 3050 	ldrh.w	r3, [r0, #80]	; 0x50
 8009412:	f894 2128 	ldrb.w	r2, [r4, #296]	; 0x128
 8009416:	b29b      	uxth	r3, r3
 8009418:	eb03 03c2 	add.w	r3, r3, r2, lsl #3
 800941c:	eb00 0343 	add.w	r3, r0, r3, lsl #1
 8009420:	f8b3 340c 	ldrh.w	r3, [r3, #1036]	; 0x40c
 8009424:	f3c3 0309 	ubfx	r3, r3, #0, #10
 8009428:	f8c4 3144 	str.w	r3, [r4, #324]	; 0x144
 800942c:	b18b      	cbz	r3, 8009452 <HAL_PCD_IRQHandler+0x266>
 800942e:	f8d4 113c 	ldr.w	r1, [r4, #316]	; 0x13c
 8009432:	b171      	cbz	r1, 8009452 <HAL_PCD_IRQHandler+0x266>
 8009434:	f8b4 212e 	ldrh.w	r2, [r4, #302]	; 0x12e
 8009438:	f001 fe66 	bl	800b108 <USB_ReadPMA>
 800943c:	f8d4 313c 	ldr.w	r3, [r4, #316]	; 0x13c
 8009440:	f8d4 2144 	ldr.w	r2, [r4, #324]	; 0x144
 8009444:	4629      	mov	r1, r5
 8009446:	4413      	add	r3, r2
 8009448:	f8c4 313c 	str.w	r3, [r4, #316]	; 0x13c
 800944c:	4620      	mov	r0, r4
 800944e:	f008 f84b 	bl	80114e8 <HAL_PCD_DataOutStageCallback>
 8009452:	6821      	ldr	r1, [r4, #0]
 8009454:	f8d4 5138 	ldr.w	r5, [r4, #312]	; 0x138
 8009458:	f8b1 3050 	ldrh.w	r3, [r1, #80]	; 0x50
 800945c:	f201 400c 	addw	r0, r1, #1036	; 0x40c
 8009460:	b29b      	uxth	r3, r3
 8009462:	b9cd      	cbnz	r5, 8009498 <HAL_PCD_IRQHandler+0x2ac>
 8009464:	5ac2      	ldrh	r2, [r0, r3]
 8009466:	f422 42f8 	bic.w	r2, r2, #31744	; 0x7c00
 800946a:	0412      	lsls	r2, r2, #16
 800946c:	0c12      	lsrs	r2, r2, #16
 800946e:	52c2      	strh	r2, [r0, r3]
 8009470:	5ac2      	ldrh	r2, [r0, r3]
 8009472:	b292      	uxth	r2, r2
 8009474:	f442 4200 	orr.w	r2, r2, #32768	; 0x8000
 8009478:	52c2      	strh	r2, [r0, r3]
 800947a:	880b      	ldrh	r3, [r1, #0]
 800947c:	f423 4380 	bic.w	r3, r3, #16384	; 0x4000
 8009480:	f023 0370 	bic.w	r3, r3, #112	; 0x70
 8009484:	041b      	lsls	r3, r3, #16
 8009486:	0c1b      	lsrs	r3, r3, #16
 8009488:	f483 5340 	eor.w	r3, r3, #12288	; 0x3000
 800948c:	f443 4300 	orr.w	r3, r3, #32768	; 0x8000
 8009490:	f043 0380 	orr.w	r3, r3, #128	; 0x80
 8009494:	800b      	strh	r3, [r1, #0]
 8009496:	e785      	b.n	80093a4 <HAL_PCD_IRQHandler+0x1b8>
 8009498:	2d3e      	cmp	r5, #62	; 0x3e
 800949a:	d806      	bhi.n	80094aa <HAL_PCD_IRQHandler+0x2be>
 800949c:	086a      	lsrs	r2, r5, #1
 800949e:	07ee      	lsls	r6, r5, #31
 80094a0:	bf48      	it	mi
 80094a2:	3201      	addmi	r2, #1
 80094a4:	0292      	lsls	r2, r2, #10
 80094a6:	b292      	uxth	r2, r2
 80094a8:	e7e6      	b.n	8009478 <HAL_PCD_IRQHandler+0x28c>
 80094aa:	096a      	lsrs	r2, r5, #5
 80094ac:	06ed      	lsls	r5, r5, #27
 80094ae:	bf08      	it	eq
 80094b0:	f102 32ff 	addeq.w	r2, r2, #4294967295
 80094b4:	ea4a 2282 	orr.w	r2, sl, r2, lsl #10
 80094b8:	e7f5      	b.n	80094a6 <HAL_PCD_IRQHandler+0x2ba>
 80094ba:	f830 8026 	ldrh.w	r8, [r0, r6, lsl #2]
 80094be:	fa1f f888 	uxth.w	r8, r8
 80094c2:	f418 4f00 	tst.w	r8, #32768	; 0x8000
 80094c6:	d03d      	beq.n	8009544 <HAL_PCD_IRQHandler+0x358>
 80094c8:	f830 3026 	ldrh.w	r3, [r0, r6, lsl #2]
 80094cc:	0177      	lsls	r7, r6, #5
 80094ce:	f023 0370 	bic.w	r3, r3, #112	; 0x70
 80094d2:	051b      	lsls	r3, r3, #20
 80094d4:	0d1b      	lsrs	r3, r3, #20
 80094d6:	f043 0380 	orr.w	r3, r3, #128	; 0x80
 80094da:	f820 3026 	strh.w	r3, [r0, r6, lsl #2]
 80094de:	19e1      	adds	r1, r4, r7
 80094e0:	f891 3134 	ldrb.w	r3, [r1, #308]	; 0x134
 80094e4:	2b00      	cmp	r3, #0
 80094e6:	d158      	bne.n	800959a <HAL_PCD_IRQHandler+0x3ae>
 80094e8:	f8b0 3050 	ldrh.w	r3, [r0, #80]	; 0x50
 80094ec:	f891 2128 	ldrb.w	r2, [r1, #296]	; 0x128
 80094f0:	b29b      	uxth	r3, r3
 80094f2:	3306      	adds	r3, #6
 80094f4:	eb03 03c2 	add.w	r3, r3, r2, lsl #3
 80094f8:	eb00 0343 	add.w	r3, r0, r3, lsl #1
 80094fc:	f8b3 5400 	ldrh.w	r5, [r3, #1024]	; 0x400
 8009500:	f3c5 0509 	ubfx	r5, r5, #0, #10
 8009504:	b135      	cbz	r5, 8009514 <HAL_PCD_IRQHandler+0x328>
 8009506:	f8b1 212e 	ldrh.w	r2, [r1, #302]	; 0x12e
 800950a:	462b      	mov	r3, r5
 800950c:	f8d1 113c 	ldr.w	r1, [r1, #316]	; 0x13c
 8009510:	f001 fdfa 	bl	800b108 <USB_ReadPMA>
 8009514:	19e1      	adds	r1, r4, r7
 8009516:	f8d1 3144 	ldr.w	r3, [r1, #324]	; 0x144
 800951a:	f8d1 213c 	ldr.w	r2, [r1, #316]	; 0x13c
 800951e:	442b      	add	r3, r5
 8009520:	f8c1 3144 	str.w	r3, [r1, #324]	; 0x144
 8009524:	f8d1 3140 	ldr.w	r3, [r1, #320]	; 0x140
 8009528:	442a      	add	r2, r5
 800952a:	f8c1 213c 	str.w	r2, [r1, #316]	; 0x13c
 800952e:	b11b      	cbz	r3, 8009538 <HAL_PCD_IRQHandler+0x34c>
 8009530:	f8d1 0138 	ldr.w	r0, [r1, #312]	; 0x138
 8009534:	4285      	cmp	r5, r0
 8009536:	d269      	bcs.n	800960c <HAL_PCD_IRQHandler+0x420>
 8009538:	4427      	add	r7, r4
 800953a:	f897 1128 	ldrb.w	r1, [r7, #296]	; 0x128
 800953e:	4620      	mov	r0, r4
 8009540:	f007 ffd2 	bl	80114e8 <HAL_PCD_DataOutStageCallback>
 8009544:	f018 0f80 	tst.w	r8, #128	; 0x80
 8009548:	f43f af2c 	beq.w	80093a4 <HAL_PCD_IRQHandler+0x1b8>
 800954c:	6821      	ldr	r1, [r4, #0]
 800954e:	4620      	mov	r0, r4
 8009550:	f831 2026 	ldrh.w	r2, [r1, r6, lsl #2]
 8009554:	b292      	uxth	r2, r2
 8009556:	ea02 0209 	and.w	r2, r2, r9
 800955a:	f442 4200 	orr.w	r2, r2, #32768	; 0x8000
 800955e:	f821 2026 	strh.w	r2, [r1, r6, lsl #2]
 8009562:	f8b1 3050 	ldrh.w	r3, [r1, #80]	; 0x50
 8009566:	eb04 1646 	add.w	r6, r4, r6, lsl #5
 800956a:	f896 2028 	ldrb.w	r2, [r6, #40]	; 0x28
 800956e:	b29b      	uxth	r3, r3
 8009570:	3302      	adds	r3, #2
 8009572:	eb03 03c2 	add.w	r3, r3, r2, lsl #3
 8009576:	eb01 0343 	add.w	r3, r1, r3, lsl #1
 800957a:	f8b3 2400 	ldrh.w	r2, [r3, #1024]	; 0x400
 800957e:	6bf3      	ldr	r3, [r6, #60]	; 0x3c
 8009580:	f3c2 0209 	ubfx	r2, r2, #0, #10
 8009584:	6472      	str	r2, [r6, #68]	; 0x44
 8009586:	441a      	add	r2, r3
 8009588:	6c33      	ldr	r3, [r6, #64]	; 0x40
 800958a:	63f2      	str	r2, [r6, #60]	; 0x3c
 800958c:	f896 1028 	ldrb.w	r1, [r6, #40]	; 0x28
 8009590:	2b00      	cmp	r3, #0
 8009592:	d141      	bne.n	8009618 <HAL_PCD_IRQHandler+0x42c>
 8009594:	f007 ffb0 	bl	80114f8 <HAL_PCD_DataInStageCallback>
 8009598:	e704      	b.n	80093a4 <HAL_PCD_IRQHandler+0x1b8>
 800959a:	f891 3128 	ldrb.w	r3, [r1, #296]	; 0x128
 800959e:	f830 2023 	ldrh.w	r2, [r0, r3, lsl #2]
 80095a2:	00db      	lsls	r3, r3, #3
 80095a4:	f412 4f80 	tst.w	r2, #16384	; 0x4000
 80095a8:	f8b0 2050 	ldrh.w	r2, [r0, #80]	; 0x50
 80095ac:	b292      	uxth	r2, r2
 80095ae:	d01f      	beq.n	80095f0 <HAL_PCD_IRQHandler+0x404>
 80095b0:	3202      	adds	r2, #2
 80095b2:	4413      	add	r3, r2
 80095b4:	eb00 0343 	add.w	r3, r0, r3, lsl #1
 80095b8:	f8b3 5400 	ldrh.w	r5, [r3, #1024]	; 0x400
 80095bc:	f3c5 0509 	ubfx	r5, r5, #0, #10
 80095c0:	b135      	cbz	r5, 80095d0 <HAL_PCD_IRQHandler+0x3e4>
 80095c2:	462b      	mov	r3, r5
 80095c4:	f8b1 2130 	ldrh.w	r2, [r1, #304]	; 0x130
 80095c8:	f8d1 113c 	ldr.w	r1, [r1, #316]	; 0x13c
 80095cc:	f001 fd9c 	bl	800b108 <USB_ReadPMA>
 80095d0:	19e3      	adds	r3, r4, r7
 80095d2:	f893 1128 	ldrb.w	r1, [r3, #296]	; 0x128
 80095d6:	6822      	ldr	r2, [r4, #0]
 80095d8:	f832 3021 	ldrh.w	r3, [r2, r1, lsl #2]
 80095dc:	b29b      	uxth	r3, r3
 80095de:	ea03 030b 	and.w	r3, r3, fp
 80095e2:	f443 4300 	orr.w	r3, r3, #32768	; 0x8000
 80095e6:	f043 03c0 	orr.w	r3, r3, #192	; 0xc0
 80095ea:	f822 3021 	strh.w	r3, [r2, r1, lsl #2]
 80095ee:	e791      	b.n	8009514 <HAL_PCD_IRQHandler+0x328>
 80095f0:	3206      	adds	r2, #6
 80095f2:	4413      	add	r3, r2
 80095f4:	eb00 0343 	add.w	r3, r0, r3, lsl #1
 80095f8:	f8b3 5400 	ldrh.w	r5, [r3, #1024]	; 0x400
 80095fc:	f3c5 0509 	ubfx	r5, r5, #0, #10
 8009600:	2d00      	cmp	r5, #0
 8009602:	d0e5      	beq.n	80095d0 <HAL_PCD_IRQHandler+0x3e4>
 8009604:	462b      	mov	r3, r5
 8009606:	f8b1 2132 	ldrh.w	r2, [r1, #306]	; 0x132
 800960a:	e7dd      	b.n	80095c8 <HAL_PCD_IRQHandler+0x3dc>
 800960c:	f891 1128 	ldrb.w	r1, [r1, #296]	; 0x128
 8009610:	4620      	mov	r0, r4
 8009612:	f7ff fdb6 	bl	8009182 <HAL_PCD_EP_Receive>
 8009616:	e795      	b.n	8009544 <HAL_PCD_IRQHandler+0x358>
 8009618:	f7ff fdd2 	bl	80091c0 <HAL_PCD_EP_Transmit>
 800961c:	e6c2      	b.n	80093a4 <HAL_PCD_IRQHandler+0x1b8>
 800961e:	f8df 900c 	ldr.w	r9, [pc, #12]	; 800962c <HAL_PCD_IRQHandler+0x440>
 8009622:	f8df a00c 	ldr.w	sl, [pc, #12]	; 8009630 <HAL_PCD_IRQHandler+0x444>
 8009626:	f8df b00c 	ldr.w	fp, [pc, #12]	; 8009634 <HAL_PCD_IRQHandler+0x448>
 800962a:	e6bb      	b.n	80093a4 <HAL_PCD_IRQHandler+0x1b8>
 800962c:	ffff8f0f 	.word	0xffff8f0f
 8009630:	ffff8000 	.word	0xffff8000
 8009634:	ffff8f8f 	.word	0xffff8f8f

08009638 <HAL_PCD_EP_SetStall>:
 8009638:	b538      	push	{r3, r4, r5, lr}
 800963a:	6843      	ldr	r3, [r0, #4]
 800963c:	f001 0507 	and.w	r5, r1, #7
 8009640:	429d      	cmp	r5, r3
 8009642:	4604      	mov	r4, r0
 8009644:	d828      	bhi.n	8009698 <HAL_PCD_EP_SetStall+0x60>
 8009646:	060b      	lsls	r3, r1, #24
 8009648:	d51d      	bpl.n	8009686 <HAL_PCD_EP_SetStall+0x4e>
 800964a:	2201      	movs	r2, #1
 800964c:	016b      	lsls	r3, r5, #5
 800964e:	f103 0128 	add.w	r1, r3, #40	; 0x28
 8009652:	4403      	add	r3, r0
 8009654:	4401      	add	r1, r0
 8009656:	f883 2029 	strb.w	r2, [r3, #41]	; 0x29
 800965a:	2301      	movs	r3, #1
 800965c:	700d      	strb	r5, [r1, #0]
 800965e:	708b      	strb	r3, [r1, #2]
 8009660:	f894 2228 	ldrb.w	r2, [r4, #552]	; 0x228
 8009664:	429a      	cmp	r2, r3
 8009666:	d019      	beq.n	800969c <HAL_PCD_EP_SetStall+0x64>
 8009668:	f884 3228 	strb.w	r3, [r4, #552]	; 0x228
 800966c:	6820      	ldr	r0, [r4, #0]
 800966e:	f001 fbd8 	bl	800ae22 <USB_EPSetStall>
 8009672:	b925      	cbnz	r5, 800967e <HAL_PCD_EP_SetStall+0x46>
 8009674:	f504 710c 	add.w	r1, r4, #560	; 0x230
 8009678:	6820      	ldr	r0, [r4, #0]
 800967a:	f001 fc4b 	bl	800af14 <USB_EP0_OutStart>
 800967e:	2000      	movs	r0, #0
 8009680:	f884 0228 	strb.w	r0, [r4, #552]	; 0x228
 8009684:	bd38      	pop	{r3, r4, r5, pc}
 8009686:	2200      	movs	r2, #0
 8009688:	014b      	lsls	r3, r1, #5
 800968a:	f503 7194 	add.w	r1, r3, #296	; 0x128
 800968e:	4403      	add	r3, r0
 8009690:	4401      	add	r1, r0
 8009692:	f883 2129 	strb.w	r2, [r3, #297]	; 0x129
 8009696:	e7e0      	b.n	800965a <HAL_PCD_EP_SetStall+0x22>
 8009698:	2001      	movs	r0, #1
 800969a:	bd38      	pop	{r3, r4, r5, pc}
 800969c:	2002      	movs	r0, #2
 800969e:	bd38      	pop	{r3, r4, r5, pc}

080096a0 <HAL_PCD_EP_ClrStall>:
 80096a0:	b538      	push	{r3, r4, r5, lr}
 80096a2:	6843      	ldr	r3, [r0, #4]
 80096a4:	f001 020f 	and.w	r2, r1, #15
 80096a8:	429a      	cmp	r2, r3
 80096aa:	4604      	mov	r4, r0
 80096ac:	d826      	bhi.n	80096fc <HAL_PCD_EP_ClrStall+0x5c>
 80096ae:	f001 0307 	and.w	r3, r1, #7
 80096b2:	f011 0f80 	tst.w	r1, #128	; 0x80
 80096b6:	ea4f 1243 	mov.w	r2, r3, lsl #5
 80096ba:	d017      	beq.n	80096ec <HAL_PCD_EP_ClrStall+0x4c>
 80096bc:	f102 0128 	add.w	r1, r2, #40	; 0x28
 80096c0:	4401      	add	r1, r0
 80096c2:	4402      	add	r2, r0
 80096c4:	2001      	movs	r0, #1
 80096c6:	f882 0029 	strb.w	r0, [r2, #41]	; 0x29
 80096ca:	2500      	movs	r5, #0
 80096cc:	700b      	strb	r3, [r1, #0]
 80096ce:	708d      	strb	r5, [r1, #2]
 80096d0:	f894 3228 	ldrb.w	r3, [r4, #552]	; 0x228
 80096d4:	2b01      	cmp	r3, #1
 80096d6:	d013      	beq.n	8009700 <HAL_PCD_EP_ClrStall+0x60>
 80096d8:	2301      	movs	r3, #1
 80096da:	6820      	ldr	r0, [r4, #0]
 80096dc:	f884 3228 	strb.w	r3, [r4, #552]	; 0x228
 80096e0:	f001 fbbf 	bl	800ae62 <USB_EPClearStall>
 80096e4:	f884 5228 	strb.w	r5, [r4, #552]	; 0x228
 80096e8:	4628      	mov	r0, r5
 80096ea:	bd38      	pop	{r3, r4, r5, pc}
 80096ec:	f502 7194 	add.w	r1, r2, #296	; 0x128
 80096f0:	4401      	add	r1, r0
 80096f2:	4402      	add	r2, r0
 80096f4:	2000      	movs	r0, #0
 80096f6:	f882 0129 	strb.w	r0, [r2, #297]	; 0x129
 80096fa:	e7e6      	b.n	80096ca <HAL_PCD_EP_ClrStall+0x2a>
 80096fc:	2001      	movs	r0, #1
 80096fe:	bd38      	pop	{r3, r4, r5, pc}
 8009700:	2002      	movs	r0, #2
 8009702:	bd38      	pop	{r3, r4, r5, pc}

08009704 <HAL_PCDEx_PMAConfig>:
 8009704:	f011 0f80 	tst.w	r1, #128	; 0x80
 8009708:	bf1b      	ittet	ne
 800970a:	f001 0107 	andne.w	r1, r1, #7
 800970e:	eb00 1041 	addne.w	r0, r0, r1, lsl #5
 8009712:	eb00 1041 	addeq.w	r0, r0, r1, lsl #5
 8009716:	3028      	addne	r0, #40	; 0x28
 8009718:	bf08      	it	eq
 800971a:	f500 7094 	addeq.w	r0, r0, #296	; 0x128
 800971e:	b91a      	cbnz	r2, 8009728 <HAL_PCDEx_PMAConfig+0x24>
 8009720:	7302      	strb	r2, [r0, #12]
 8009722:	80c3      	strh	r3, [r0, #6]
 8009724:	2000      	movs	r0, #0
 8009726:	4770      	bx	lr
 8009728:	2201      	movs	r2, #1
 800972a:	8103      	strh	r3, [r0, #8]
 800972c:	0c1b      	lsrs	r3, r3, #16
 800972e:	7302      	strb	r2, [r0, #12]
 8009730:	8143      	strh	r3, [r0, #10]
 8009732:	e7f7      	b.n	8009724 <HAL_PCDEx_PMAConfig+0x20>

08009734 <HAL_PWR_EnableBkUpAccess>:
 8009734:	2201      	movs	r2, #1
 8009736:	4b01      	ldr	r3, [pc, #4]	; (800973c <HAL_PWR_EnableBkUpAccess+0x8>)
 8009738:	601a      	str	r2, [r3, #0]
 800973a:	4770      	bx	lr
 800973c:	420e0020 	.word	0x420e0020

08009740 <HAL_RCC_OscConfig>:
 8009740:	e92d 41f3 	stmdb	sp!, {r0, r1, r4, r5, r6, r7, r8, lr}
 8009744:	4605      	mov	r5, r0
 8009746:	b908      	cbnz	r0, 800974c <HAL_RCC_OscConfig+0xc>
 8009748:	2001      	movs	r0, #1
 800974a:	e03c      	b.n	80097c6 <HAL_RCC_OscConfig+0x86>
 800974c:	6803      	ldr	r3, [r0, #0]
 800974e:	07db      	lsls	r3, r3, #31
 8009750:	d410      	bmi.n	8009774 <HAL_RCC_OscConfig+0x34>
 8009752:	682b      	ldr	r3, [r5, #0]
 8009754:	079f      	lsls	r7, r3, #30
 8009756:	d45d      	bmi.n	8009814 <HAL_RCC_OscConfig+0xd4>
 8009758:	682b      	ldr	r3, [r5, #0]
 800975a:	0719      	lsls	r1, r3, #28
 800975c:	f100 8094 	bmi.w	8009888 <HAL_RCC_OscConfig+0x148>
 8009760:	682b      	ldr	r3, [r5, #0]
 8009762:	075a      	lsls	r2, r3, #29
 8009764:	f100 80be 	bmi.w	80098e4 <HAL_RCC_OscConfig+0x1a4>
 8009768:	69e8      	ldr	r0, [r5, #28]
 800976a:	2800      	cmp	r0, #0
 800976c:	f040 812c 	bne.w	80099c8 <HAL_RCC_OscConfig+0x288>
 8009770:	2000      	movs	r0, #0
 8009772:	e028      	b.n	80097c6 <HAL_RCC_OscConfig+0x86>
 8009774:	4c8f      	ldr	r4, [pc, #572]	; (80099b4 <HAL_RCC_OscConfig+0x274>)
 8009776:	6863      	ldr	r3, [r4, #4]
 8009778:	f003 030c 	and.w	r3, r3, #12
 800977c:	2b04      	cmp	r3, #4
 800977e:	d007      	beq.n	8009790 <HAL_RCC_OscConfig+0x50>
 8009780:	6863      	ldr	r3, [r4, #4]
 8009782:	f003 030c 	and.w	r3, r3, #12
 8009786:	2b08      	cmp	r3, #8
 8009788:	d109      	bne.n	800979e <HAL_RCC_OscConfig+0x5e>
 800978a:	6863      	ldr	r3, [r4, #4]
 800978c:	03de      	lsls	r6, r3, #15
 800978e:	d506      	bpl.n	800979e <HAL_RCC_OscConfig+0x5e>
 8009790:	6823      	ldr	r3, [r4, #0]
 8009792:	039c      	lsls	r4, r3, #14
 8009794:	d5dd      	bpl.n	8009752 <HAL_RCC_OscConfig+0x12>
 8009796:	686b      	ldr	r3, [r5, #4]
 8009798:	2b00      	cmp	r3, #0
 800979a:	d1da      	bne.n	8009752 <HAL_RCC_OscConfig+0x12>
 800979c:	e7d4      	b.n	8009748 <HAL_RCC_OscConfig+0x8>
 800979e:	686b      	ldr	r3, [r5, #4]
 80097a0:	f5b3 3f80 	cmp.w	r3, #65536	; 0x10000
 80097a4:	d112      	bne.n	80097cc <HAL_RCC_OscConfig+0x8c>
 80097a6:	6823      	ldr	r3, [r4, #0]
 80097a8:	f443 3380 	orr.w	r3, r3, #65536	; 0x10000
 80097ac:	6023      	str	r3, [r4, #0]
 80097ae:	f7fe ff9d 	bl	80086ec <HAL_GetTick>
 80097b2:	4606      	mov	r6, r0
 80097b4:	6823      	ldr	r3, [r4, #0]
 80097b6:	0398      	lsls	r0, r3, #14
 80097b8:	d4cb      	bmi.n	8009752 <HAL_RCC_OscConfig+0x12>
 80097ba:	f7fe ff97 	bl	80086ec <HAL_GetTick>
 80097be:	1b80      	subs	r0, r0, r6
 80097c0:	2864      	cmp	r0, #100	; 0x64
 80097c2:	d9f7      	bls.n	80097b4 <HAL_RCC_OscConfig+0x74>
 80097c4:	2003      	movs	r0, #3
 80097c6:	b002      	add	sp, #8
 80097c8:	e8bd 81f0 	ldmia.w	sp!, {r4, r5, r6, r7, r8, pc}
 80097cc:	b99b      	cbnz	r3, 80097f6 <HAL_RCC_OscConfig+0xb6>
 80097ce:	6823      	ldr	r3, [r4, #0]
 80097d0:	f423 3380 	bic.w	r3, r3, #65536	; 0x10000
 80097d4:	6023      	str	r3, [r4, #0]
 80097d6:	6823      	ldr	r3, [r4, #0]
 80097d8:	f423 2380 	bic.w	r3, r3, #262144	; 0x40000
 80097dc:	6023      	str	r3, [r4, #0]
 80097de:	f7fe ff85 	bl	80086ec <HAL_GetTick>
 80097e2:	4606      	mov	r6, r0
 80097e4:	6823      	ldr	r3, [r4, #0]
 80097e6:	0399      	lsls	r1, r3, #14
 80097e8:	d5b3      	bpl.n	8009752 <HAL_RCC_OscConfig+0x12>
 80097ea:	f7fe ff7f 	bl	80086ec <HAL_GetTick>
 80097ee:	1b80      	subs	r0, r0, r6
 80097f0:	2864      	cmp	r0, #100	; 0x64
 80097f2:	d9f7      	bls.n	80097e4 <HAL_RCC_OscConfig+0xa4>
 80097f4:	e7e6      	b.n	80097c4 <HAL_RCC_OscConfig+0x84>
 80097f6:	f5b3 2fa0 	cmp.w	r3, #327680	; 0x50000
 80097fa:	6823      	ldr	r3, [r4, #0]
 80097fc:	d103      	bne.n	8009806 <HAL_RCC_OscConfig+0xc6>
 80097fe:	f443 2380 	orr.w	r3, r3, #262144	; 0x40000
 8009802:	6023      	str	r3, [r4, #0]
 8009804:	e7cf      	b.n	80097a6 <HAL_RCC_OscConfig+0x66>
 8009806:	f423 3380 	bic.w	r3, r3, #65536	; 0x10000
 800980a:	6023      	str	r3, [r4, #0]
 800980c:	6823      	ldr	r3, [r4, #0]
 800980e:	f423 2380 	bic.w	r3, r3, #262144	; 0x40000
 8009812:	e7cb      	b.n	80097ac <HAL_RCC_OscConfig+0x6c>
 8009814:	4c67      	ldr	r4, [pc, #412]	; (80099b4 <HAL_RCC_OscConfig+0x274>)
 8009816:	6863      	ldr	r3, [r4, #4]
 8009818:	f013 0f0c 	tst.w	r3, #12
 800981c:	d007      	beq.n	800982e <HAL_RCC_OscConfig+0xee>
 800981e:	6863      	ldr	r3, [r4, #4]
 8009820:	f003 030c 	and.w	r3, r3, #12
 8009824:	2b08      	cmp	r3, #8
 8009826:	d110      	bne.n	800984a <HAL_RCC_OscConfig+0x10a>
 8009828:	6863      	ldr	r3, [r4, #4]
 800982a:	03da      	lsls	r2, r3, #15
 800982c:	d40d      	bmi.n	800984a <HAL_RCC_OscConfig+0x10a>
 800982e:	6823      	ldr	r3, [r4, #0]
 8009830:	079b      	lsls	r3, r3, #30
 8009832:	d502      	bpl.n	800983a <HAL_RCC_OscConfig+0xfa>
 8009834:	692b      	ldr	r3, [r5, #16]
 8009836:	2b01      	cmp	r3, #1
 8009838:	d186      	bne.n	8009748 <HAL_RCC_OscConfig+0x8>
 800983a:	6823      	ldr	r3, [r4, #0]
 800983c:	696a      	ldr	r2, [r5, #20]
 800983e:	f023 03f8 	bic.w	r3, r3, #248	; 0xf8
 8009842:	ea43 03c2 	orr.w	r3, r3, r2, lsl #3
 8009846:	6023      	str	r3, [r4, #0]
 8009848:	e786      	b.n	8009758 <HAL_RCC_OscConfig+0x18>
 800984a:	692a      	ldr	r2, [r5, #16]
 800984c:	4b5a      	ldr	r3, [pc, #360]	; (80099b8 <HAL_RCC_OscConfig+0x278>)
 800984e:	b16a      	cbz	r2, 800986c <HAL_RCC_OscConfig+0x12c>
 8009850:	2201      	movs	r2, #1
 8009852:	601a      	str	r2, [r3, #0]
 8009854:	f7fe ff4a 	bl	80086ec <HAL_GetTick>
 8009858:	4606      	mov	r6, r0
 800985a:	6823      	ldr	r3, [r4, #0]
 800985c:	079f      	lsls	r7, r3, #30
 800985e:	d4ec      	bmi.n	800983a <HAL_RCC_OscConfig+0xfa>
 8009860:	f7fe ff44 	bl	80086ec <HAL_GetTick>
 8009864:	1b80      	subs	r0, r0, r6
 8009866:	2802      	cmp	r0, #2
 8009868:	d9f7      	bls.n	800985a <HAL_RCC_OscConfig+0x11a>
 800986a:	e7ab      	b.n	80097c4 <HAL_RCC_OscConfig+0x84>
 800986c:	601a      	str	r2, [r3, #0]
 800986e:	f7fe ff3d 	bl	80086ec <HAL_GetTick>
 8009872:	4606      	mov	r6, r0
 8009874:	6823      	ldr	r3, [r4, #0]
 8009876:	0798      	lsls	r0, r3, #30
 8009878:	f57f af6e 	bpl.w	8009758 <HAL_RCC_OscConfig+0x18>
 800987c:	f7fe ff36 	bl	80086ec <HAL_GetTick>
 8009880:	1b80      	subs	r0, r0, r6
 8009882:	2802      	cmp	r0, #2
 8009884:	d9f6      	bls.n	8009874 <HAL_RCC_OscConfig+0x134>
 8009886:	e79d      	b.n	80097c4 <HAL_RCC_OscConfig+0x84>
 8009888:	69aa      	ldr	r2, [r5, #24]
 800988a:	4c4a      	ldr	r4, [pc, #296]	; (80099b4 <HAL_RCC_OscConfig+0x274>)
 800988c:	4b4b      	ldr	r3, [pc, #300]	; (80099bc <HAL_RCC_OscConfig+0x27c>)
 800988e:	b1da      	cbz	r2, 80098c8 <HAL_RCC_OscConfig+0x188>
 8009890:	2201      	movs	r2, #1
 8009892:	601a      	str	r2, [r3, #0]
 8009894:	f7fe ff2a 	bl	80086ec <HAL_GetTick>
 8009898:	4606      	mov	r6, r0
 800989a:	6a63      	ldr	r3, [r4, #36]	; 0x24
 800989c:	079b      	lsls	r3, r3, #30
 800989e:	d50d      	bpl.n	80098bc <HAL_RCC_OscConfig+0x17c>
 80098a0:	f44f 52fa 	mov.w	r2, #8000	; 0x1f40
 80098a4:	4b46      	ldr	r3, [pc, #280]	; (80099c0 <HAL_RCC_OscConfig+0x280>)
 80098a6:	681b      	ldr	r3, [r3, #0]
 80098a8:	fbb3 f3f2 	udiv	r3, r3, r2
 80098ac:	9301      	str	r3, [sp, #4]
 80098ae:	bf00      	nop
 80098b0:	9b01      	ldr	r3, [sp, #4]
 80098b2:	1e5a      	subs	r2, r3, #1
 80098b4:	9201      	str	r2, [sp, #4]
 80098b6:	2b00      	cmp	r3, #0
 80098b8:	d1f9      	bne.n	80098ae <HAL_RCC_OscConfig+0x16e>
 80098ba:	e751      	b.n	8009760 <HAL_RCC_OscConfig+0x20>
 80098bc:	f7fe ff16 	bl	80086ec <HAL_GetTick>
 80098c0:	1b80      	subs	r0, r0, r6
 80098c2:	2802      	cmp	r0, #2
 80098c4:	d9e9      	bls.n	800989a <HAL_RCC_OscConfig+0x15a>
 80098c6:	e77d      	b.n	80097c4 <HAL_RCC_OscConfig+0x84>
 80098c8:	601a      	str	r2, [r3, #0]
 80098ca:	f7fe ff0f 	bl	80086ec <HAL_GetTick>
 80098ce:	4606      	mov	r6, r0
 80098d0:	6a63      	ldr	r3, [r4, #36]	; 0x24
 80098d2:	079f      	lsls	r7, r3, #30
 80098d4:	f57f af44 	bpl.w	8009760 <HAL_RCC_OscConfig+0x20>
 80098d8:	f7fe ff08 	bl	80086ec <HAL_GetTick>
 80098dc:	1b80      	subs	r0, r0, r6
 80098de:	2802      	cmp	r0, #2
 80098e0:	d9f6      	bls.n	80098d0 <HAL_RCC_OscConfig+0x190>
 80098e2:	e76f      	b.n	80097c4 <HAL_RCC_OscConfig+0x84>
 80098e4:	4c33      	ldr	r4, [pc, #204]	; (80099b4 <HAL_RCC_OscConfig+0x274>)
 80098e6:	69e3      	ldr	r3, [r4, #28]
 80098e8:	00d8      	lsls	r0, r3, #3
 80098ea:	d424      	bmi.n	8009936 <HAL_RCC_OscConfig+0x1f6>
 80098ec:	2701      	movs	r7, #1
 80098ee:	69e3      	ldr	r3, [r4, #28]
 80098f0:	f043 5380 	orr.w	r3, r3, #268435456	; 0x10000000
 80098f4:	61e3      	str	r3, [r4, #28]
 80098f6:	69e3      	ldr	r3, [r4, #28]
 80098f8:	f003 5380 	and.w	r3, r3, #268435456	; 0x10000000
 80098fc:	9300      	str	r3, [sp, #0]
 80098fe:	9b00      	ldr	r3, [sp, #0]
 8009900:	4e30      	ldr	r6, [pc, #192]	; (80099c4 <HAL_RCC_OscConfig+0x284>)
 8009902:	6833      	ldr	r3, [r6, #0]
 8009904:	05d9      	lsls	r1, r3, #23
 8009906:	d518      	bpl.n	800993a <HAL_RCC_OscConfig+0x1fa>
 8009908:	68eb      	ldr	r3, [r5, #12]
 800990a:	2b01      	cmp	r3, #1
 800990c:	d126      	bne.n	800995c <HAL_RCC_OscConfig+0x21c>
 800990e:	6a23      	ldr	r3, [r4, #32]
 8009910:	f043 0301 	orr.w	r3, r3, #1
 8009914:	6223      	str	r3, [r4, #32]
 8009916:	f7fe fee9 	bl	80086ec <HAL_GetTick>
 800991a:	f241 3688 	movw	r6, #5000	; 0x1388
 800991e:	4680      	mov	r8, r0
 8009920:	6a23      	ldr	r3, [r4, #32]
 8009922:	079b      	lsls	r3, r3, #30
 8009924:	d53f      	bpl.n	80099a6 <HAL_RCC_OscConfig+0x266>
 8009926:	2f00      	cmp	r7, #0
 8009928:	f43f af1e 	beq.w	8009768 <HAL_RCC_OscConfig+0x28>
 800992c:	69e3      	ldr	r3, [r4, #28]
 800992e:	f023 5380 	bic.w	r3, r3, #268435456	; 0x10000000
 8009932:	61e3      	str	r3, [r4, #28]
 8009934:	e718      	b.n	8009768 <HAL_RCC_OscConfig+0x28>
 8009936:	2700      	movs	r7, #0
 8009938:	e7e2      	b.n	8009900 <HAL_RCC_OscConfig+0x1c0>
 800993a:	6833      	ldr	r3, [r6, #0]
 800993c:	f443 7380 	orr.w	r3, r3, #256	; 0x100
 8009940:	6033      	str	r3, [r6, #0]
 8009942:	f7fe fed3 	bl	80086ec <HAL_GetTick>
 8009946:	4680      	mov	r8, r0
 8009948:	6833      	ldr	r3, [r6, #0]
 800994a:	05da      	lsls	r2, r3, #23
 800994c:	d4dc      	bmi.n	8009908 <HAL_RCC_OscConfig+0x1c8>
 800994e:	f7fe fecd 	bl	80086ec <HAL_GetTick>
 8009952:	eba0 0008 	sub.w	r0, r0, r8
 8009956:	2864      	cmp	r0, #100	; 0x64
 8009958:	d9f6      	bls.n	8009948 <HAL_RCC_OscConfig+0x208>
 800995a:	e733      	b.n	80097c4 <HAL_RCC_OscConfig+0x84>
 800995c:	b9ab      	cbnz	r3, 800998a <HAL_RCC_OscConfig+0x24a>
 800995e:	6a23      	ldr	r3, [r4, #32]
 8009960:	f241 3888 	movw	r8, #5000	; 0x1388
 8009964:	f023 0301 	bic.w	r3, r3, #1
 8009968:	6223      	str	r3, [r4, #32]
 800996a:	6a23      	ldr	r3, [r4, #32]
 800996c:	f023 0304 	bic.w	r3, r3, #4
 8009970:	6223      	str	r3, [r4, #32]
 8009972:	f7fe febb 	bl	80086ec <HAL_GetTick>
 8009976:	4606      	mov	r6, r0
 8009978:	6a23      	ldr	r3, [r4, #32]
 800997a:	0798      	lsls	r0, r3, #30
 800997c:	d5d3      	bpl.n	8009926 <HAL_RCC_OscConfig+0x1e6>
 800997e:	f7fe feb5 	bl	80086ec <HAL_GetTick>
 8009982:	1b80      	subs	r0, r0, r6
 8009984:	4540      	cmp	r0, r8
 8009986:	d9f7      	bls.n	8009978 <HAL_RCC_OscConfig+0x238>
 8009988:	e71c      	b.n	80097c4 <HAL_RCC_OscConfig+0x84>
 800998a:	2b05      	cmp	r3, #5
 800998c:	6a23      	ldr	r3, [r4, #32]
 800998e:	d103      	bne.n	8009998 <HAL_RCC_OscConfig+0x258>
 8009990:	f043 0304 	orr.w	r3, r3, #4
 8009994:	6223      	str	r3, [r4, #32]
 8009996:	e7ba      	b.n	800990e <HAL_RCC_OscConfig+0x1ce>
 8009998:	f023 0301 	bic.w	r3, r3, #1
 800999c:	6223      	str	r3, [r4, #32]
 800999e:	6a23      	ldr	r3, [r4, #32]
 80099a0:	f023 0304 	bic.w	r3, r3, #4
 80099a4:	e7b6      	b.n	8009914 <HAL_RCC_OscConfig+0x1d4>
 80099a6:	f7fe fea1 	bl	80086ec <HAL_GetTick>
 80099aa:	eba0 0008 	sub.w	r0, r0, r8
 80099ae:	42b0      	cmp	r0, r6
 80099b0:	d9b6      	bls.n	8009920 <HAL_RCC_OscConfig+0x1e0>
 80099b2:	e707      	b.n	80097c4 <HAL_RCC_OscConfig+0x84>
 80099b4:	40021000 	.word	0x40021000
 80099b8:	42420000 	.word	0x42420000
 80099bc:	42420480 	.word	0x42420480
 80099c0:	200007cc 	.word	0x200007cc
 80099c4:	40007000 	.word	0x40007000
 80099c8:	4b2a      	ldr	r3, [pc, #168]	; (8009a74 <HAL_RCC_OscConfig+0x334>)
 80099ca:	685a      	ldr	r2, [r3, #4]
 80099cc:	461c      	mov	r4, r3
 80099ce:	f002 020c 	and.w	r2, r2, #12
 80099d2:	2a08      	cmp	r2, #8
 80099d4:	d03d      	beq.n	8009a52 <HAL_RCC_OscConfig+0x312>
 80099d6:	2300      	movs	r3, #0
 80099d8:	4e27      	ldr	r6, [pc, #156]	; (8009a78 <HAL_RCC_OscConfig+0x338>)
 80099da:	2802      	cmp	r0, #2
 80099dc:	6033      	str	r3, [r6, #0]
 80099de:	d12b      	bne.n	8009a38 <HAL_RCC_OscConfig+0x2f8>
 80099e0:	f7fe fe84 	bl	80086ec <HAL_GetTick>
 80099e4:	4607      	mov	r7, r0
 80099e6:	6823      	ldr	r3, [r4, #0]
 80099e8:	0199      	lsls	r1, r3, #6
 80099ea:	d41f      	bmi.n	8009a2c <HAL_RCC_OscConfig+0x2ec>
 80099ec:	6a2b      	ldr	r3, [r5, #32]
 80099ee:	f5b3 3f80 	cmp.w	r3, #65536	; 0x10000
 80099f2:	d105      	bne.n	8009a00 <HAL_RCC_OscConfig+0x2c0>
 80099f4:	6862      	ldr	r2, [r4, #4]
 80099f6:	68a9      	ldr	r1, [r5, #8]
 80099f8:	f422 3200 	bic.w	r2, r2, #131072	; 0x20000
 80099fc:	430a      	orrs	r2, r1
 80099fe:	6062      	str	r2, [r4, #4]
 8009a00:	6a69      	ldr	r1, [r5, #36]	; 0x24
 8009a02:	6862      	ldr	r2, [r4, #4]
 8009a04:	430b      	orrs	r3, r1
 8009a06:	f422 1274 	bic.w	r2, r2, #3997696	; 0x3d0000
 8009a0a:	4313      	orrs	r3, r2
 8009a0c:	6063      	str	r3, [r4, #4]
 8009a0e:	2301      	movs	r3, #1
 8009a10:	6033      	str	r3, [r6, #0]
 8009a12:	f7fe fe6b 	bl	80086ec <HAL_GetTick>
 8009a16:	4605      	mov	r5, r0
 8009a18:	6823      	ldr	r3, [r4, #0]
 8009a1a:	019a      	lsls	r2, r3, #6
 8009a1c:	f53f aea8 	bmi.w	8009770 <HAL_RCC_OscConfig+0x30>
 8009a20:	f7fe fe64 	bl	80086ec <HAL_GetTick>
 8009a24:	1b40      	subs	r0, r0, r5
 8009a26:	2802      	cmp	r0, #2
 8009a28:	d9f6      	bls.n	8009a18 <HAL_RCC_OscConfig+0x2d8>
 8009a2a:	e6cb      	b.n	80097c4 <HAL_RCC_OscConfig+0x84>
 8009a2c:	f7fe fe5e 	bl	80086ec <HAL_GetTick>
 8009a30:	1bc0      	subs	r0, r0, r7
 8009a32:	2802      	cmp	r0, #2
 8009a34:	d9d7      	bls.n	80099e6 <HAL_RCC_OscConfig+0x2a6>
 8009a36:	e6c5      	b.n	80097c4 <HAL_RCC_OscConfig+0x84>
 8009a38:	f7fe fe58 	bl	80086ec <HAL_GetTick>
 8009a3c:	4605      	mov	r5, r0
 8009a3e:	6823      	ldr	r3, [r4, #0]
 8009a40:	019b      	lsls	r3, r3, #6
 8009a42:	f57f ae95 	bpl.w	8009770 <HAL_RCC_OscConfig+0x30>
 8009a46:	f7fe fe51 	bl	80086ec <HAL_GetTick>
 8009a4a:	1b40      	subs	r0, r0, r5
 8009a4c:	2802      	cmp	r0, #2
 8009a4e:	d9f6      	bls.n	8009a3e <HAL_RCC_OscConfig+0x2fe>
 8009a50:	e6b8      	b.n	80097c4 <HAL_RCC_OscConfig+0x84>
 8009a52:	2801      	cmp	r0, #1
 8009a54:	f43f aeb7 	beq.w	80097c6 <HAL_RCC_OscConfig+0x86>
 8009a58:	6858      	ldr	r0, [r3, #4]
 8009a5a:	6a2b      	ldr	r3, [r5, #32]
 8009a5c:	f400 3280 	and.w	r2, r0, #65536	; 0x10000
 8009a60:	429a      	cmp	r2, r3
 8009a62:	f47f ae71 	bne.w	8009748 <HAL_RCC_OscConfig+0x8>
 8009a66:	6a6b      	ldr	r3, [r5, #36]	; 0x24
 8009a68:	f400 1070 	and.w	r0, r0, #3932160	; 0x3c0000
 8009a6c:	1ac0      	subs	r0, r0, r3
 8009a6e:	bf18      	it	ne
 8009a70:	2001      	movne	r0, #1
 8009a72:	e6a8      	b.n	80097c6 <HAL_RCC_OscConfig+0x86>
 8009a74:	40021000 	.word	0x40021000
 8009a78:	42420060 	.word	0x42420060

08009a7c <HAL_RCC_GetSysClockFreq>:
 8009a7c:	b530      	push	{r4, r5, lr}
 8009a7e:	4b19      	ldr	r3, [pc, #100]	; (8009ae4 <HAL_RCC_GetSysClockFreq+0x68>)
 8009a80:	b087      	sub	sp, #28
 8009a82:	ac02      	add	r4, sp, #8
 8009a84:	f103 0510 	add.w	r5, r3, #16
 8009a88:	4622      	mov	r2, r4
 8009a8a:	6818      	ldr	r0, [r3, #0]
 8009a8c:	6859      	ldr	r1, [r3, #4]
 8009a8e:	3308      	adds	r3, #8
 8009a90:	c203      	stmia	r2!, {r0, r1}
 8009a92:	42ab      	cmp	r3, r5
 8009a94:	4614      	mov	r4, r2
 8009a96:	d1f7      	bne.n	8009a88 <HAL_RCC_GetSysClockFreq+0xc>
 8009a98:	2301      	movs	r3, #1
 8009a9a:	f88d 3004 	strb.w	r3, [sp, #4]
 8009a9e:	2302      	movs	r3, #2
 8009aa0:	4911      	ldr	r1, [pc, #68]	; (8009ae8 <HAL_RCC_GetSysClockFreq+0x6c>)
 8009aa2:	f88d 3005 	strb.w	r3, [sp, #5]
 8009aa6:	684b      	ldr	r3, [r1, #4]
 8009aa8:	f003 020c 	and.w	r2, r3, #12
 8009aac:	2a08      	cmp	r2, #8
 8009aae:	d117      	bne.n	8009ae0 <HAL_RCC_GetSysClockFreq+0x64>
 8009ab0:	f3c3 4283 	ubfx	r2, r3, #18, #4
 8009ab4:	a806      	add	r0, sp, #24
 8009ab6:	4402      	add	r2, r0
 8009ab8:	03db      	lsls	r3, r3, #15
 8009aba:	f812 2c10 	ldrb.w	r2, [r2, #-16]
 8009abe:	d50c      	bpl.n	8009ada <HAL_RCC_GetSysClockFreq+0x5e>
 8009ac0:	684b      	ldr	r3, [r1, #4]
 8009ac2:	480a      	ldr	r0, [pc, #40]	; (8009aec <HAL_RCC_GetSysClockFreq+0x70>)
 8009ac4:	f3c3 4340 	ubfx	r3, r3, #17, #1
 8009ac8:	4350      	muls	r0, r2
 8009aca:	aa06      	add	r2, sp, #24
 8009acc:	4413      	add	r3, r2
 8009ace:	f813 3c14 	ldrb.w	r3, [r3, #-20]
 8009ad2:	fbb0 f0f3 	udiv	r0, r0, r3
 8009ad6:	b007      	add	sp, #28
 8009ad8:	bd30      	pop	{r4, r5, pc}
 8009ada:	4805      	ldr	r0, [pc, #20]	; (8009af0 <HAL_RCC_GetSysClockFreq+0x74>)
 8009adc:	4350      	muls	r0, r2
 8009ade:	e7fa      	b.n	8009ad6 <HAL_RCC_GetSysClockFreq+0x5a>
 8009ae0:	4802      	ldr	r0, [pc, #8]	; (8009aec <HAL_RCC_GetSysClockFreq+0x70>)
 8009ae2:	e7f8      	b.n	8009ad6 <HAL_RCC_GetSysClockFreq+0x5a>
 8009ae4:	08013b5c 	.word	0x08013b5c
 8009ae8:	40021000 	.word	0x40021000
 8009aec:	007a1200 	.word	0x007a1200
 8009af0:	003d0900 	.word	0x003d0900

08009af4 <HAL_RCC_ClockConfig>:
 8009af4:	e92d 41f0 	stmdb	sp!, {r4, r5, r6, r7, r8, lr}
 8009af8:	460d      	mov	r5, r1
 8009afa:	4604      	mov	r4, r0
 8009afc:	b910      	cbnz	r0, 8009b04 <HAL_RCC_ClockConfig+0x10>
 8009afe:	2001      	movs	r0, #1
 8009b00:	e8bd 81f0 	ldmia.w	sp!, {r4, r5, r6, r7, r8, pc}
 8009b04:	4a45      	ldr	r2, [pc, #276]	; (8009c1c <HAL_RCC_ClockConfig+0x128>)
 8009b06:	6813      	ldr	r3, [r2, #0]
 8009b08:	f003 0307 	and.w	r3, r3, #7
 8009b0c:	428b      	cmp	r3, r1
 8009b0e:	d329      	bcc.n	8009b64 <HAL_RCC_ClockConfig+0x70>
 8009b10:	6821      	ldr	r1, [r4, #0]
 8009b12:	078e      	lsls	r6, r1, #30
 8009b14:	d431      	bmi.n	8009b7a <HAL_RCC_ClockConfig+0x86>
 8009b16:	07ca      	lsls	r2, r1, #31
 8009b18:	d444      	bmi.n	8009ba4 <HAL_RCC_ClockConfig+0xb0>
 8009b1a:	4a40      	ldr	r2, [pc, #256]	; (8009c1c <HAL_RCC_ClockConfig+0x128>)
 8009b1c:	6813      	ldr	r3, [r2, #0]
 8009b1e:	f003 0307 	and.w	r3, r3, #7
 8009b22:	429d      	cmp	r5, r3
 8009b24:	d367      	bcc.n	8009bf6 <HAL_RCC_ClockConfig+0x102>
 8009b26:	6822      	ldr	r2, [r4, #0]
 8009b28:	4d3d      	ldr	r5, [pc, #244]	; (8009c20 <HAL_RCC_ClockConfig+0x12c>)
 8009b2a:	f012 0f04 	tst.w	r2, #4
 8009b2e:	d16e      	bne.n	8009c0e <HAL_RCC_ClockConfig+0x11a>
 8009b30:	0713      	lsls	r3, r2, #28
 8009b32:	d506      	bpl.n	8009b42 <HAL_RCC_ClockConfig+0x4e>
 8009b34:	686b      	ldr	r3, [r5, #4]
 8009b36:	6922      	ldr	r2, [r4, #16]
 8009b38:	f423 5360 	bic.w	r3, r3, #14336	; 0x3800
 8009b3c:	ea43 03c2 	orr.w	r3, r3, r2, lsl #3
 8009b40:	606b      	str	r3, [r5, #4]
 8009b42:	f7ff ff9b 	bl	8009a7c <HAL_RCC_GetSysClockFreq>
 8009b46:	686b      	ldr	r3, [r5, #4]
 8009b48:	4a36      	ldr	r2, [pc, #216]	; (8009c24 <HAL_RCC_ClockConfig+0x130>)
 8009b4a:	f3c3 1303 	ubfx	r3, r3, #4, #4
 8009b4e:	5cd3      	ldrb	r3, [r2, r3]
 8009b50:	40d8      	lsrs	r0, r3
 8009b52:	4b35      	ldr	r3, [pc, #212]	; (8009c28 <HAL_RCC_ClockConfig+0x134>)
 8009b54:	6018      	str	r0, [r3, #0]
 8009b56:	4b35      	ldr	r3, [pc, #212]	; (8009c2c <HAL_RCC_ClockConfig+0x138>)
 8009b58:	6818      	ldr	r0, [r3, #0]
 8009b5a:	f7fe fd85 	bl	8008668 <HAL_InitTick>
 8009b5e:	2000      	movs	r0, #0
 8009b60:	e8bd 81f0 	ldmia.w	sp!, {r4, r5, r6, r7, r8, pc}
 8009b64:	6813      	ldr	r3, [r2, #0]
 8009b66:	f023 0307 	bic.w	r3, r3, #7
 8009b6a:	430b      	orrs	r3, r1
 8009b6c:	6013      	str	r3, [r2, #0]
 8009b6e:	6813      	ldr	r3, [r2, #0]
 8009b70:	f003 0307 	and.w	r3, r3, #7
 8009b74:	4299      	cmp	r1, r3
 8009b76:	d1c2      	bne.n	8009afe <HAL_RCC_ClockConfig+0xa>
 8009b78:	e7ca      	b.n	8009b10 <HAL_RCC_ClockConfig+0x1c>
 8009b7a:	4b29      	ldr	r3, [pc, #164]	; (8009c20 <HAL_RCC_ClockConfig+0x12c>)
 8009b7c:	f011 0f04 	tst.w	r1, #4
 8009b80:	bf1e      	ittt	ne
 8009b82:	685a      	ldrne	r2, [r3, #4]
 8009b84:	f442 62e0 	orrne.w	r2, r2, #1792	; 0x700
 8009b88:	605a      	strne	r2, [r3, #4]
 8009b8a:	0708      	lsls	r0, r1, #28
 8009b8c:	bf42      	ittt	mi
 8009b8e:	685a      	ldrmi	r2, [r3, #4]
 8009b90:	f442 5260 	orrmi.w	r2, r2, #14336	; 0x3800
 8009b94:	605a      	strmi	r2, [r3, #4]
 8009b96:	685a      	ldr	r2, [r3, #4]
 8009b98:	68a0      	ldr	r0, [r4, #8]
 8009b9a:	f022 02f0 	bic.w	r2, r2, #240	; 0xf0
 8009b9e:	4302      	orrs	r2, r0
 8009ba0:	605a      	str	r2, [r3, #4]
 8009ba2:	e7b8      	b.n	8009b16 <HAL_RCC_ClockConfig+0x22>
 8009ba4:	6862      	ldr	r2, [r4, #4]
 8009ba6:	4e1e      	ldr	r6, [pc, #120]	; (8009c20 <HAL_RCC_ClockConfig+0x12c>)
 8009ba8:	2a01      	cmp	r2, #1
 8009baa:	6833      	ldr	r3, [r6, #0]
 8009bac:	d11b      	bne.n	8009be6 <HAL_RCC_ClockConfig+0xf2>
 8009bae:	f413 3f00 	tst.w	r3, #131072	; 0x20000
 8009bb2:	d0a4      	beq.n	8009afe <HAL_RCC_ClockConfig+0xa>
 8009bb4:	6873      	ldr	r3, [r6, #4]
 8009bb6:	f241 3888 	movw	r8, #5000	; 0x1388
 8009bba:	f023 0303 	bic.w	r3, r3, #3
 8009bbe:	4313      	orrs	r3, r2
 8009bc0:	6073      	str	r3, [r6, #4]
 8009bc2:	f7fe fd93 	bl	80086ec <HAL_GetTick>
 8009bc6:	4607      	mov	r7, r0
 8009bc8:	6873      	ldr	r3, [r6, #4]
 8009bca:	6862      	ldr	r2, [r4, #4]
 8009bcc:	f003 030c 	and.w	r3, r3, #12
 8009bd0:	ebb3 0f82 	cmp.w	r3, r2, lsl #2
 8009bd4:	d0a1      	beq.n	8009b1a <HAL_RCC_ClockConfig+0x26>
 8009bd6:	f7fe fd89 	bl	80086ec <HAL_GetTick>
 8009bda:	1bc0      	subs	r0, r0, r7
 8009bdc:	4540      	cmp	r0, r8
 8009bde:	d9f3      	bls.n	8009bc8 <HAL_RCC_ClockConfig+0xd4>
 8009be0:	2003      	movs	r0, #3
 8009be2:	e8bd 81f0 	ldmia.w	sp!, {r4, r5, r6, r7, r8, pc}
 8009be6:	2a02      	cmp	r2, #2
 8009be8:	d102      	bne.n	8009bf0 <HAL_RCC_ClockConfig+0xfc>
 8009bea:	f013 7f00 	tst.w	r3, #33554432	; 0x2000000
 8009bee:	e7e0      	b.n	8009bb2 <HAL_RCC_ClockConfig+0xbe>
 8009bf0:	f013 0f02 	tst.w	r3, #2
 8009bf4:	e7dd      	b.n	8009bb2 <HAL_RCC_ClockConfig+0xbe>
 8009bf6:	6813      	ldr	r3, [r2, #0]
 8009bf8:	f023 0307 	bic.w	r3, r3, #7
 8009bfc:	432b      	orrs	r3, r5
 8009bfe:	6013      	str	r3, [r2, #0]
 8009c00:	6813      	ldr	r3, [r2, #0]
 8009c02:	f003 0307 	and.w	r3, r3, #7
 8009c06:	429d      	cmp	r5, r3
 8009c08:	f47f af79 	bne.w	8009afe <HAL_RCC_ClockConfig+0xa>
 8009c0c:	e78b      	b.n	8009b26 <HAL_RCC_ClockConfig+0x32>
 8009c0e:	686b      	ldr	r3, [r5, #4]
 8009c10:	68e1      	ldr	r1, [r4, #12]
 8009c12:	f423 63e0 	bic.w	r3, r3, #1792	; 0x700
 8009c16:	430b      	orrs	r3, r1
 8009c18:	606b      	str	r3, [r5, #4]
 8009c1a:	e789      	b.n	8009b30 <HAL_RCC_ClockConfig+0x3c>
 8009c1c:	40022000 	.word	0x40022000
 8009c20:	40021000 	.word	0x40021000
 8009c24:	08014c7c 	.word	0x08014c7c
 8009c28:	200007cc 	.word	0x200007cc
 8009c2c:	200006b8 	.word	0x200006b8

08009c30 <HAL_RCC_GetPCLK1Freq>:
 8009c30:	4b04      	ldr	r3, [pc, #16]	; (8009c44 <HAL_RCC_GetPCLK1Freq+0x14>)
 8009c32:	4a05      	ldr	r2, [pc, #20]	; (8009c48 <HAL_RCC_GetPCLK1Freq+0x18>)
 8009c34:	685b      	ldr	r3, [r3, #4]
 8009c36:	f3c3 2302 	ubfx	r3, r3, #8, #3
 8009c3a:	5cd3      	ldrb	r3, [r2, r3]
 8009c3c:	4a03      	ldr	r2, [pc, #12]	; (8009c4c <HAL_RCC_GetPCLK1Freq+0x1c>)
 8009c3e:	6810      	ldr	r0, [r2, #0]
 8009c40:	40d8      	lsrs	r0, r3
 8009c42:	4770      	bx	lr
 8009c44:	40021000 	.word	0x40021000
 8009c48:	08014c8c 	.word	0x08014c8c
 8009c4c:	200007cc 	.word	0x200007cc

08009c50 <HAL_RCC_GetPCLK2Freq>:
 8009c50:	4b04      	ldr	r3, [pc, #16]	; (8009c64 <HAL_RCC_GetPCLK2Freq+0x14>)
 8009c52:	4a05      	ldr	r2, [pc, #20]	; (8009c68 <HAL_RCC_GetPCLK2Freq+0x18>)
 8009c54:	685b      	ldr	r3, [r3, #4]
 8009c56:	f3c3 23c2 	ubfx	r3, r3, #11, #3
 8009c5a:	5cd3      	ldrb	r3, [r2, r3]
 8009c5c:	4a03      	ldr	r2, [pc, #12]	; (8009c6c <HAL_RCC_GetPCLK2Freq+0x1c>)
 8009c5e:	6810      	ldr	r0, [r2, #0]
 8009c60:	40d8      	lsrs	r0, r3
 8009c62:	4770      	bx	lr
 8009c64:	40021000 	.word	0x40021000
 8009c68:	08014c8c 	.word	0x08014c8c
 8009c6c:	200007cc 	.word	0x200007cc

08009c70 <HAL_RCCEx_PeriphCLKConfig>:
 8009c70:	6803      	ldr	r3, [r0, #0]
 8009c72:	e92d 41f3 	stmdb	sp!, {r0, r1, r4, r5, r6, r7, r8, lr}
 8009c76:	07d9      	lsls	r1, r3, #31
 8009c78:	4605      	mov	r5, r0
 8009c7a:	d520      	bpl.n	8009cbe <HAL_RCCEx_PeriphCLKConfig+0x4e>
 8009c7c:	4c35      	ldr	r4, [pc, #212]	; (8009d54 <HAL_RCCEx_PeriphCLKConfig+0xe4>)
 8009c7e:	69e3      	ldr	r3, [r4, #28]
 8009c80:	00da      	lsls	r2, r3, #3
 8009c82:	d432      	bmi.n	8009cea <HAL_RCCEx_PeriphCLKConfig+0x7a>
 8009c84:	2701      	movs	r7, #1
 8009c86:	69e3      	ldr	r3, [r4, #28]
 8009c88:	f043 5380 	orr.w	r3, r3, #268435456	; 0x10000000
 8009c8c:	61e3      	str	r3, [r4, #28]
 8009c8e:	69e3      	ldr	r3, [r4, #28]
 8009c90:	f003 5380 	and.w	r3, r3, #268435456	; 0x10000000
 8009c94:	9301      	str	r3, [sp, #4]
 8009c96:	9b01      	ldr	r3, [sp, #4]
 8009c98:	4e2f      	ldr	r6, [pc, #188]	; (8009d58 <HAL_RCCEx_PeriphCLKConfig+0xe8>)
 8009c9a:	6833      	ldr	r3, [r6, #0]
 8009c9c:	05db      	lsls	r3, r3, #23
 8009c9e:	d526      	bpl.n	8009cee <HAL_RCCEx_PeriphCLKConfig+0x7e>
 8009ca0:	6a23      	ldr	r3, [r4, #32]
 8009ca2:	f413 7340 	ands.w	r3, r3, #768	; 0x300
 8009ca6:	d136      	bne.n	8009d16 <HAL_RCCEx_PeriphCLKConfig+0xa6>
 8009ca8:	6a23      	ldr	r3, [r4, #32]
 8009caa:	686a      	ldr	r2, [r5, #4]
 8009cac:	f423 7340 	bic.w	r3, r3, #768	; 0x300
 8009cb0:	4313      	orrs	r3, r2
 8009cb2:	6223      	str	r3, [r4, #32]
 8009cb4:	b11f      	cbz	r7, 8009cbe <HAL_RCCEx_PeriphCLKConfig+0x4e>
 8009cb6:	69e3      	ldr	r3, [r4, #28]
 8009cb8:	f023 5380 	bic.w	r3, r3, #268435456	; 0x10000000
 8009cbc:	61e3      	str	r3, [r4, #28]
 8009cbe:	6828      	ldr	r0, [r5, #0]
 8009cc0:	0783      	lsls	r3, r0, #30
 8009cc2:	d506      	bpl.n	8009cd2 <HAL_RCCEx_PeriphCLKConfig+0x62>
 8009cc4:	4a23      	ldr	r2, [pc, #140]	; (8009d54 <HAL_RCCEx_PeriphCLKConfig+0xe4>)
 8009cc6:	68a9      	ldr	r1, [r5, #8]
 8009cc8:	6853      	ldr	r3, [r2, #4]
 8009cca:	f423 4340 	bic.w	r3, r3, #49152	; 0xc000
 8009cce:	430b      	orrs	r3, r1
 8009cd0:	6053      	str	r3, [r2, #4]
 8009cd2:	f010 0010 	ands.w	r0, r0, #16
 8009cd6:	d01b      	beq.n	8009d10 <HAL_RCCEx_PeriphCLKConfig+0xa0>
 8009cd8:	4a1e      	ldr	r2, [pc, #120]	; (8009d54 <HAL_RCCEx_PeriphCLKConfig+0xe4>)
 8009cda:	68e9      	ldr	r1, [r5, #12]
 8009cdc:	6853      	ldr	r3, [r2, #4]
 8009cde:	2000      	movs	r0, #0
 8009ce0:	f423 0380 	bic.w	r3, r3, #4194304	; 0x400000
 8009ce4:	430b      	orrs	r3, r1
 8009ce6:	6053      	str	r3, [r2, #4]
 8009ce8:	e012      	b.n	8009d10 <HAL_RCCEx_PeriphCLKConfig+0xa0>
 8009cea:	2700      	movs	r7, #0
 8009cec:	e7d4      	b.n	8009c98 <HAL_RCCEx_PeriphCLKConfig+0x28>
 8009cee:	6833      	ldr	r3, [r6, #0]
 8009cf0:	f443 7380 	orr.w	r3, r3, #256	; 0x100
 8009cf4:	6033      	str	r3, [r6, #0]
 8009cf6:	f7fe fcf9 	bl	80086ec <HAL_GetTick>
 8009cfa:	4680      	mov	r8, r0
 8009cfc:	6833      	ldr	r3, [r6, #0]
 8009cfe:	05d8      	lsls	r0, r3, #23
 8009d00:	d4ce      	bmi.n	8009ca0 <HAL_RCCEx_PeriphCLKConfig+0x30>
 8009d02:	f7fe fcf3 	bl	80086ec <HAL_GetTick>
 8009d06:	eba0 0008 	sub.w	r0, r0, r8
 8009d0a:	2864      	cmp	r0, #100	; 0x64
 8009d0c:	d9f6      	bls.n	8009cfc <HAL_RCCEx_PeriphCLKConfig+0x8c>
 8009d0e:	2003      	movs	r0, #3
 8009d10:	b002      	add	sp, #8
 8009d12:	e8bd 81f0 	ldmia.w	sp!, {r4, r5, r6, r7, r8, pc}
 8009d16:	686a      	ldr	r2, [r5, #4]
 8009d18:	f402 7240 	and.w	r2, r2, #768	; 0x300
 8009d1c:	4293      	cmp	r3, r2
 8009d1e:	d0c3      	beq.n	8009ca8 <HAL_RCCEx_PeriphCLKConfig+0x38>
 8009d20:	2001      	movs	r0, #1
 8009d22:	4a0e      	ldr	r2, [pc, #56]	; (8009d5c <HAL_RCCEx_PeriphCLKConfig+0xec>)
 8009d24:	6a23      	ldr	r3, [r4, #32]
 8009d26:	6010      	str	r0, [r2, #0]
 8009d28:	2000      	movs	r0, #0
 8009d2a:	f423 7140 	bic.w	r1, r3, #768	; 0x300
 8009d2e:	6010      	str	r0, [r2, #0]
 8009d30:	6221      	str	r1, [r4, #32]
 8009d32:	07d9      	lsls	r1, r3, #31
 8009d34:	d5b8      	bpl.n	8009ca8 <HAL_RCCEx_PeriphCLKConfig+0x38>
 8009d36:	f7fe fcd9 	bl	80086ec <HAL_GetTick>
 8009d3a:	f241 3888 	movw	r8, #5000	; 0x1388
 8009d3e:	4606      	mov	r6, r0
 8009d40:	6a23      	ldr	r3, [r4, #32]
 8009d42:	079a      	lsls	r2, r3, #30
 8009d44:	d4b0      	bmi.n	8009ca8 <HAL_RCCEx_PeriphCLKConfig+0x38>
 8009d46:	f7fe fcd1 	bl	80086ec <HAL_GetTick>
 8009d4a:	1b80      	subs	r0, r0, r6
 8009d4c:	4540      	cmp	r0, r8
 8009d4e:	d9f7      	bls.n	8009d40 <HAL_RCCEx_PeriphCLKConfig+0xd0>
 8009d50:	e7dd      	b.n	8009d0e <HAL_RCCEx_PeriphCLKConfig+0x9e>
 8009d52:	bf00      	nop
 8009d54:	40021000 	.word	0x40021000
 8009d58:	40007000 	.word	0x40007000
 8009d5c:	42420440 	.word	0x42420440

08009d60 <HAL_RCCEx_GetPeriphCLKFreq>:
 8009d60:	b570      	push	{r4, r5, r6, lr}
 8009d62:	4604      	mov	r4, r0
 8009d64:	4b35      	ldr	r3, [pc, #212]	; (8009e3c <HAL_RCCEx_GetPeriphCLKFreq+0xdc>)
 8009d66:	b086      	sub	sp, #24
 8009d68:	ad02      	add	r5, sp, #8
 8009d6a:	f103 0610 	add.w	r6, r3, #16
 8009d6e:	462a      	mov	r2, r5
 8009d70:	6818      	ldr	r0, [r3, #0]
 8009d72:	6859      	ldr	r1, [r3, #4]
 8009d74:	3308      	adds	r3, #8
 8009d76:	c203      	stmia	r2!, {r0, r1}
 8009d78:	42b3      	cmp	r3, r6
 8009d7a:	4615      	mov	r5, r2
 8009d7c:	d1f7      	bne.n	8009d6e <HAL_RCCEx_GetPeriphCLKFreq+0xe>
 8009d7e:	2301      	movs	r3, #1
 8009d80:	f88d 3004 	strb.w	r3, [sp, #4]
 8009d84:	2302      	movs	r3, #2
 8009d86:	429c      	cmp	r4, r3
 8009d88:	f88d 3005 	strb.w	r3, [sp, #5]
 8009d8c:	d047      	beq.n	8009e1e <HAL_RCCEx_GetPeriphCLKFreq+0xbe>
 8009d8e:	2c10      	cmp	r4, #16
 8009d90:	d017      	beq.n	8009dc2 <HAL_RCCEx_GetPeriphCLKFreq+0x62>
 8009d92:	2c01      	cmp	r4, #1
 8009d94:	d14f      	bne.n	8009e36 <HAL_RCCEx_GetPeriphCLKFreq+0xd6>
 8009d96:	f240 3102 	movw	r1, #770	; 0x302
 8009d9a:	4a29      	ldr	r2, [pc, #164]	; (8009e40 <HAL_RCCEx_GetPeriphCLKFreq+0xe0>)
 8009d9c:	6a13      	ldr	r3, [r2, #32]
 8009d9e:	4019      	ands	r1, r3
 8009da0:	f5b1 7f81 	cmp.w	r1, #258	; 0x102
 8009da4:	d044      	beq.n	8009e30 <HAL_RCCEx_GetPeriphCLKFreq+0xd0>
 8009da6:	f403 7340 	and.w	r3, r3, #768	; 0x300
 8009daa:	f5b3 7f00 	cmp.w	r3, #512	; 0x200
 8009dae:	d12d      	bne.n	8009e0c <HAL_RCCEx_GetPeriphCLKFreq+0xac>
 8009db0:	f649 4040 	movw	r0, #40000	; 0x9c40
 8009db4:	6a53      	ldr	r3, [r2, #36]	; 0x24
 8009db6:	f013 0f02 	tst.w	r3, #2
 8009dba:	bf08      	it	eq
 8009dbc:	2000      	moveq	r0, #0
 8009dbe:	b006      	add	sp, #24
 8009dc0:	bd70      	pop	{r4, r5, r6, pc}
 8009dc2:	4b1f      	ldr	r3, [pc, #124]	; (8009e40 <HAL_RCCEx_GetPeriphCLKFreq+0xe0>)
 8009dc4:	6859      	ldr	r1, [r3, #4]
 8009dc6:	6818      	ldr	r0, [r3, #0]
 8009dc8:	f010 7080 	ands.w	r0, r0, #16777216	; 0x1000000
 8009dcc:	d0f7      	beq.n	8009dbe <HAL_RCCEx_GetPeriphCLKFreq+0x5e>
 8009dce:	f3c1 4283 	ubfx	r2, r1, #18, #4
 8009dd2:	a806      	add	r0, sp, #24
 8009dd4:	4402      	add	r2, r0
 8009dd6:	f812 0c10 	ldrb.w	r0, [r2, #-16]
 8009dda:	03ca      	lsls	r2, r1, #15
 8009ddc:	bf41      	itttt	mi
 8009dde:	685a      	ldrmi	r2, [r3, #4]
 8009de0:	a906      	addmi	r1, sp, #24
 8009de2:	f3c2 4240 	ubfxmi	r2, r2, #17, #1
 8009de6:	1852      	addmi	r2, r2, r1
 8009de8:	bf44      	itt	mi
 8009dea:	f812 1c14 	ldrbmi.w	r1, [r2, #-20]
 8009dee:	4a15      	ldrmi	r2, [pc, #84]	; (8009e44 <HAL_RCCEx_GetPeriphCLKFreq+0xe4>)
 8009df0:	685b      	ldr	r3, [r3, #4]
 8009df2:	bf4c      	ite	mi
 8009df4:	fbb2 f2f1 	udivmi	r2, r2, r1
 8009df8:	4a13      	ldrpl	r2, [pc, #76]	; (8009e48 <HAL_RCCEx_GetPeriphCLKFreq+0xe8>)
 8009dfa:	025b      	lsls	r3, r3, #9
 8009dfc:	fb02 f000 	mul.w	r0, r2, r0
 8009e00:	d4dd      	bmi.n	8009dbe <HAL_RCCEx_GetPeriphCLKFreq+0x5e>
 8009e02:	2303      	movs	r3, #3
 8009e04:	0040      	lsls	r0, r0, #1
 8009e06:	fbb0 f0f3 	udiv	r0, r0, r3
 8009e0a:	e7d8      	b.n	8009dbe <HAL_RCCEx_GetPeriphCLKFreq+0x5e>
 8009e0c:	f5b3 7f40 	cmp.w	r3, #768	; 0x300
 8009e10:	d111      	bne.n	8009e36 <HAL_RCCEx_GetPeriphCLKFreq+0xd6>
 8009e12:	6813      	ldr	r3, [r2, #0]
 8009e14:	f24f 4024 	movw	r0, #62500	; 0xf424
 8009e18:	f413 3f00 	tst.w	r3, #131072	; 0x20000
 8009e1c:	e7cd      	b.n	8009dba <HAL_RCCEx_GetPeriphCLKFreq+0x5a>
 8009e1e:	f7ff ff17 	bl	8009c50 <HAL_RCC_GetPCLK2Freq>
 8009e22:	4b07      	ldr	r3, [pc, #28]	; (8009e40 <HAL_RCCEx_GetPeriphCLKFreq+0xe0>)
 8009e24:	685b      	ldr	r3, [r3, #4]
 8009e26:	f3c3 3381 	ubfx	r3, r3, #14, #2
 8009e2a:	3301      	adds	r3, #1
 8009e2c:	005b      	lsls	r3, r3, #1
 8009e2e:	e7ea      	b.n	8009e06 <HAL_RCCEx_GetPeriphCLKFreq+0xa6>
 8009e30:	f44f 4000 	mov.w	r0, #32768	; 0x8000
 8009e34:	e7c3      	b.n	8009dbe <HAL_RCCEx_GetPeriphCLKFreq+0x5e>
 8009e36:	2000      	movs	r0, #0
 8009e38:	e7c1      	b.n	8009dbe <HAL_RCCEx_GetPeriphCLKFreq+0x5e>
 8009e3a:	bf00      	nop
 8009e3c:	08013b6c 	.word	0x08013b6c
 8009e40:	40021000 	.word	0x40021000
 8009e44:	007a1200 	.word	0x007a1200
 8009e48:	003d0900 	.word	0x003d0900

08009e4c <RTC_EnterInitMode>:
 8009e4c:	b538      	push	{r3, r4, r5, lr}
 8009e4e:	4604      	mov	r4, r0
 8009e50:	f7fe fc4c 	bl	80086ec <HAL_GetTick>
 8009e54:	4605      	mov	r5, r0
 8009e56:	6823      	ldr	r3, [r4, #0]
 8009e58:	685a      	ldr	r2, [r3, #4]
 8009e5a:	0692      	lsls	r2, r2, #26
 8009e5c:	d505      	bpl.n	8009e6a <RTC_EnterInitMode+0x1e>
 8009e5e:	685a      	ldr	r2, [r3, #4]
 8009e60:	2000      	movs	r0, #0
 8009e62:	f042 0210 	orr.w	r2, r2, #16
 8009e66:	605a      	str	r2, [r3, #4]
 8009e68:	bd38      	pop	{r3, r4, r5, pc}
 8009e6a:	f7fe fc3f 	bl	80086ec <HAL_GetTick>
 8009e6e:	1b40      	subs	r0, r0, r5
 8009e70:	f5b0 7f7a 	cmp.w	r0, #1000	; 0x3e8
 8009e74:	d9ef      	bls.n	8009e56 <RTC_EnterInitMode+0xa>
 8009e76:	2003      	movs	r0, #3
 8009e78:	bd38      	pop	{r3, r4, r5, pc}

08009e7a <RTC_ExitInitMode>:
 8009e7a:	6802      	ldr	r2, [r0, #0]
 8009e7c:	b538      	push	{r3, r4, r5, lr}
 8009e7e:	6853      	ldr	r3, [r2, #4]
 8009e80:	4604      	mov	r4, r0
 8009e82:	f023 0310 	bic.w	r3, r3, #16
 8009e86:	6053      	str	r3, [r2, #4]
 8009e88:	f7fe fc30 	bl	80086ec <HAL_GetTick>
 8009e8c:	4605      	mov	r5, r0
 8009e8e:	6823      	ldr	r3, [r4, #0]
 8009e90:	685b      	ldr	r3, [r3, #4]
 8009e92:	069b      	lsls	r3, r3, #26
 8009e94:	d501      	bpl.n	8009e9a <RTC_ExitInitMode+0x20>
 8009e96:	2000      	movs	r0, #0
 8009e98:	bd38      	pop	{r3, r4, r5, pc}
 8009e9a:	f7fe fc27 	bl	80086ec <HAL_GetTick>
 8009e9e:	1b40      	subs	r0, r0, r5
 8009ea0:	f5b0 7f7a 	cmp.w	r0, #1000	; 0x3e8
 8009ea4:	d9f3      	bls.n	8009e8e <RTC_ExitInitMode+0x14>
 8009ea6:	2003      	movs	r0, #3
 8009ea8:	bd38      	pop	{r3, r4, r5, pc}

08009eaa <HAL_RTC_WaitForSynchro>:
 8009eaa:	b538      	push	{r3, r4, r5, lr}
 8009eac:	4604      	mov	r4, r0
 8009eae:	b1a8      	cbz	r0, 8009edc <HAL_RTC_WaitForSynchro+0x32>
 8009eb0:	6802      	ldr	r2, [r0, #0]
 8009eb2:	6853      	ldr	r3, [r2, #4]
 8009eb4:	f023 0308 	bic.w	r3, r3, #8
 8009eb8:	6053      	str	r3, [r2, #4]
 8009eba:	f7fe fc17 	bl	80086ec <HAL_GetTick>
 8009ebe:	4605      	mov	r5, r0
 8009ec0:	6823      	ldr	r3, [r4, #0]
 8009ec2:	685b      	ldr	r3, [r3, #4]
 8009ec4:	071b      	lsls	r3, r3, #28
 8009ec6:	d501      	bpl.n	8009ecc <HAL_RTC_WaitForSynchro+0x22>
 8009ec8:	2000      	movs	r0, #0
 8009eca:	bd38      	pop	{r3, r4, r5, pc}
 8009ecc:	f7fe fc0e 	bl	80086ec <HAL_GetTick>
 8009ed0:	1b40      	subs	r0, r0, r5
 8009ed2:	f5b0 7f7a 	cmp.w	r0, #1000	; 0x3e8
 8009ed6:	d9f3      	bls.n	8009ec0 <HAL_RTC_WaitForSynchro+0x16>
 8009ed8:	2003      	movs	r0, #3
 8009eda:	bd38      	pop	{r3, r4, r5, pc}
 8009edc:	2001      	movs	r0, #1
 8009ede:	bd38      	pop	{r3, r4, r5, pc}

08009ee0 <HAL_RTC_Init>:
 8009ee0:	b510      	push	{r4, lr}
 8009ee2:	4604      	mov	r4, r0
 8009ee4:	b170      	cbz	r0, 8009f04 <HAL_RTC_Init+0x24>
 8009ee6:	7c43      	ldrb	r3, [r0, #17]
 8009ee8:	f003 02ff 	and.w	r2, r3, #255	; 0xff
 8009eec:	b913      	cbnz	r3, 8009ef4 <HAL_RTC_Init+0x14>
 8009eee:	7402      	strb	r2, [r0, #16]
 8009ef0:	f006 ffe2 	bl	8010eb8 <HAL_RTC_MspInit>
 8009ef4:	2302      	movs	r3, #2
 8009ef6:	4620      	mov	r0, r4
 8009ef8:	7463      	strb	r3, [r4, #17]
 8009efa:	f7ff ffd6 	bl	8009eaa <HAL_RTC_WaitForSynchro>
 8009efe:	b118      	cbz	r0, 8009f08 <HAL_RTC_Init+0x28>
 8009f00:	2304      	movs	r3, #4
 8009f02:	7463      	strb	r3, [r4, #17]
 8009f04:	2001      	movs	r0, #1
 8009f06:	bd10      	pop	{r4, pc}
 8009f08:	4620      	mov	r0, r4
 8009f0a:	f7ff ff9f 	bl	8009e4c <RTC_EnterInitMode>
 8009f0e:	2800      	cmp	r0, #0
 8009f10:	d1f6      	bne.n	8009f00 <HAL_RTC_Init+0x20>
 8009f12:	6822      	ldr	r2, [r4, #0]
 8009f14:	68a0      	ldr	r0, [r4, #8]
 8009f16:	6853      	ldr	r3, [r2, #4]
 8009f18:	f023 0307 	bic.w	r3, r3, #7
 8009f1c:	6053      	str	r3, [r2, #4]
 8009f1e:	4a17      	ldr	r2, [pc, #92]	; (8009f7c <HAL_RTC_Init+0x9c>)
 8009f20:	b118      	cbz	r0, 8009f2a <HAL_RTC_Init+0x4a>
 8009f22:	6b11      	ldr	r1, [r2, #48]	; 0x30
 8009f24:	f021 0101 	bic.w	r1, r1, #1
 8009f28:	6311      	str	r1, [r2, #48]	; 0x30
 8009f2a:	6ad3      	ldr	r3, [r2, #44]	; 0x2c
 8009f2c:	f423 7360 	bic.w	r3, r3, #896	; 0x380
 8009f30:	4303      	orrs	r3, r0
 8009f32:	62d3      	str	r3, [r2, #44]	; 0x2c
 8009f34:	6860      	ldr	r0, [r4, #4]
 8009f36:	1c43      	adds	r3, r0, #1
 8009f38:	d105      	bne.n	8009f46 <HAL_RTC_Init+0x66>
 8009f3a:	2001      	movs	r0, #1
 8009f3c:	f7ff ff10 	bl	8009d60 <HAL_RCCEx_GetPeriphCLKFreq>
 8009f40:	2800      	cmp	r0, #0
 8009f42:	d0dd      	beq.n	8009f00 <HAL_RTC_Init+0x20>
 8009f44:	3801      	subs	r0, #1
 8009f46:	6822      	ldr	r2, [r4, #0]
 8009f48:	6893      	ldr	r3, [r2, #8]
 8009f4a:	f023 030f 	bic.w	r3, r3, #15
 8009f4e:	ea43 4310 	orr.w	r3, r3, r0, lsr #16
 8009f52:	6093      	str	r3, [r2, #8]
 8009f54:	68d3      	ldr	r3, [r2, #12]
 8009f56:	b280      	uxth	r0, r0
 8009f58:	0c1b      	lsrs	r3, r3, #16
 8009f5a:	041b      	lsls	r3, r3, #16
 8009f5c:	4318      	orrs	r0, r3
 8009f5e:	60d0      	str	r0, [r2, #12]
 8009f60:	4620      	mov	r0, r4
 8009f62:	f7ff ff8a 	bl	8009e7a <RTC_ExitInitMode>
 8009f66:	2301      	movs	r3, #1
 8009f68:	b110      	cbz	r0, 8009f70 <HAL_RTC_Init+0x90>
 8009f6a:	2204      	movs	r2, #4
 8009f6c:	7462      	strb	r2, [r4, #17]
 8009f6e:	e7c9      	b.n	8009f04 <HAL_RTC_Init+0x24>
 8009f70:	73e0      	strb	r0, [r4, #15]
 8009f72:	7363      	strb	r3, [r4, #13]
 8009f74:	73a3      	strb	r3, [r4, #14]
 8009f76:	7463      	strb	r3, [r4, #17]
 8009f78:	bd10      	pop	{r4, pc}
 8009f7a:	bf00      	nop
 8009f7c:	40006c00 	.word	0x40006c00

08009f80 <RTC_ReadTimeCounter>:
 8009f80:	6803      	ldr	r3, [r0, #0]
 8009f82:	b530      	push	{r4, r5, lr}
 8009f84:	699a      	ldr	r2, [r3, #24]
 8009f86:	69d8      	ldr	r0, [r3, #28]
 8009f88:	6999      	ldr	r1, [r3, #24]
 8009f8a:	b295      	uxth	r5, r2
 8009f8c:	b28c      	uxth	r4, r1
 8009f8e:	42a5      	cmp	r5, r4
 8009f90:	bf1d      	ittte	ne
 8009f92:	69d8      	ldrne	r0, [r3, #28]
 8009f94:	b280      	uxthne	r0, r0
 8009f96:	ea40 4001 	orrne.w	r0, r0, r1, lsl #16
 8009f9a:	b280      	uxtheq	r0, r0
 8009f9c:	bf08      	it	eq
 8009f9e:	ea40 4002 	orreq.w	r0, r0, r2, lsl #16
 8009fa2:	bd30      	pop	{r4, r5, pc}

08009fa4 <RTC_WriteTimeCounter>:
 8009fa4:	b538      	push	{r3, r4, r5, lr}
 8009fa6:	4605      	mov	r5, r0
 8009fa8:	460c      	mov	r4, r1
 8009faa:	f7ff ff4f 	bl	8009e4c <RTC_EnterInitMode>
 8009fae:	b958      	cbnz	r0, 8009fc8 <RTC_WriteTimeCounter+0x24>
 8009fb0:	682b      	ldr	r3, [r5, #0]
 8009fb2:	0c22      	lsrs	r2, r4, #16
 8009fb4:	b2a4      	uxth	r4, r4
 8009fb6:	619a      	str	r2, [r3, #24]
 8009fb8:	4628      	mov	r0, r5
 8009fba:	61dc      	str	r4, [r3, #28]
 8009fbc:	f7ff ff5d 	bl	8009e7a <RTC_ExitInitMode>
 8009fc0:	3000      	adds	r0, #0
 8009fc2:	bf18      	it	ne
 8009fc4:	2001      	movne	r0, #1
 8009fc6:	bd38      	pop	{r3, r4, r5, pc}
 8009fc8:	2001      	movs	r0, #1
 8009fca:	bd38      	pop	{r3, r4, r5, pc}

08009fcc <HAL_RTCEx_RTCEventCallback>:
 8009fcc:	4770      	bx	lr

08009fce <HAL_RTCEx_RTCEventErrorCallback>:
 8009fce:	4770      	bx	lr

08009fd0 <HAL_RTCEx_RTCIRQHandler>:
 8009fd0:	6803      	ldr	r3, [r0, #0]
 8009fd2:	b510      	push	{r4, lr}
 8009fd4:	681a      	ldr	r2, [r3, #0]
 8009fd6:	4604      	mov	r4, r0
 8009fd8:	07d1      	lsls	r1, r2, #31
 8009fda:	d511      	bpl.n	800a000 <HAL_RTCEx_RTCIRQHandler+0x30>
 8009fdc:	685a      	ldr	r2, [r3, #4]
 8009fde:	07d2      	lsls	r2, r2, #31
 8009fe0:	d50e      	bpl.n	800a000 <HAL_RTCEx_RTCIRQHandler+0x30>
 8009fe2:	685b      	ldr	r3, [r3, #4]
 8009fe4:	075b      	lsls	r3, r3, #29
 8009fe6:	d50c      	bpl.n	800a002 <HAL_RTCEx_RTCIRQHandler+0x32>
 8009fe8:	f7ff fff1 	bl	8009fce <HAL_RTCEx_RTCEventErrorCallback>
 8009fec:	f06f 0204 	mvn.w	r2, #4
 8009ff0:	6823      	ldr	r3, [r4, #0]
 8009ff2:	605a      	str	r2, [r3, #4]
 8009ff4:	2304      	movs	r3, #4
 8009ff6:	f06f 0201 	mvn.w	r2, #1
 8009ffa:	7463      	strb	r3, [r4, #17]
 8009ffc:	6823      	ldr	r3, [r4, #0]
 8009ffe:	605a      	str	r2, [r3, #4]
 800a000:	bd10      	pop	{r4, pc}
 800a002:	f7ff ffe3 	bl	8009fcc <HAL_RTCEx_RTCEventCallback>
 800a006:	2301      	movs	r3, #1
 800a008:	e7f5      	b.n	8009ff6 <HAL_RTCEx_RTCIRQHandler+0x26>

0800a00a <HAL_RTCEx_BKUPWrite>:
 800a00a:	0089      	lsls	r1, r1, #2
 800a00c:	f101 4180 	add.w	r1, r1, #1073741824	; 0x40000000
 800a010:	f501 41d8 	add.w	r1, r1, #27648	; 0x6c00
 800a014:	b292      	uxth	r2, r2
 800a016:	600a      	str	r2, [r1, #0]
 800a018:	4770      	bx	lr

0800a01a <HAL_RTCEx_BKUPRead>:
 800a01a:	0089      	lsls	r1, r1, #2
 800a01c:	f101 4180 	add.w	r1, r1, #1073741824	; 0x40000000
 800a020:	f501 41d8 	add.w	r1, r1, #27648	; 0x6c00
 800a024:	6808      	ldr	r0, [r1, #0]
 800a026:	b280      	uxth	r0, r0
 800a028:	4770      	bx	lr

0800a02a <SPI_WaitFlagStateUntilTimeout.constprop.8>:
 800a02a:	b5f8      	push	{r3, r4, r5, r6, r7, lr}
 800a02c:	4604      	mov	r4, r0
 800a02e:	460e      	mov	r6, r1
 800a030:	4615      	mov	r5, r2
 800a032:	461f      	mov	r7, r3
 800a034:	6821      	ldr	r1, [r4, #0]
 800a036:	688a      	ldr	r2, [r1, #8]
 800a038:	ea36 0302 	bics.w	r3, r6, r2
 800a03c:	d001      	beq.n	800a042 <SPI_WaitFlagStateUntilTimeout.constprop.8+0x18>
 800a03e:	2000      	movs	r0, #0
 800a040:	bdf8      	pop	{r3, r4, r5, r6, r7, pc}
 800a042:	1c6b      	adds	r3, r5, #1
 800a044:	d0f7      	beq.n	800a036 <SPI_WaitFlagStateUntilTimeout.constprop.8+0xc>
 800a046:	f7fe fb51 	bl	80086ec <HAL_GetTick>
 800a04a:	1bc0      	subs	r0, r0, r7
 800a04c:	4285      	cmp	r5, r0
 800a04e:	d8f1      	bhi.n	800a034 <SPI_WaitFlagStateUntilTimeout.constprop.8+0xa>
 800a050:	6823      	ldr	r3, [r4, #0]
 800a052:	685a      	ldr	r2, [r3, #4]
 800a054:	f022 02e0 	bic.w	r2, r2, #224	; 0xe0
 800a058:	605a      	str	r2, [r3, #4]
 800a05a:	6862      	ldr	r2, [r4, #4]
 800a05c:	f5b2 7f82 	cmp.w	r2, #260	; 0x104
 800a060:	d10a      	bne.n	800a078 <SPI_WaitFlagStateUntilTimeout.constprop.8+0x4e>
 800a062:	68a2      	ldr	r2, [r4, #8]
 800a064:	f5b2 4f00 	cmp.w	r2, #32768	; 0x8000
 800a068:	d002      	beq.n	800a070 <SPI_WaitFlagStateUntilTimeout.constprop.8+0x46>
 800a06a:	f5b2 6f80 	cmp.w	r2, #1024	; 0x400
 800a06e:	d103      	bne.n	800a078 <SPI_WaitFlagStateUntilTimeout.constprop.8+0x4e>
 800a070:	681a      	ldr	r2, [r3, #0]
 800a072:	f022 0240 	bic.w	r2, r2, #64	; 0x40
 800a076:	601a      	str	r2, [r3, #0]
 800a078:	6aa2      	ldr	r2, [r4, #40]	; 0x28
 800a07a:	f5b2 5f00 	cmp.w	r2, #8192	; 0x2000
 800a07e:	d107      	bne.n	800a090 <SPI_WaitFlagStateUntilTimeout.constprop.8+0x66>
 800a080:	681a      	ldr	r2, [r3, #0]
 800a082:	f422 5200 	bic.w	r2, r2, #8192	; 0x2000
 800a086:	601a      	str	r2, [r3, #0]
 800a088:	681a      	ldr	r2, [r3, #0]
 800a08a:	f442 5200 	orr.w	r2, r2, #8192	; 0x2000
 800a08e:	601a      	str	r2, [r3, #0]
 800a090:	2301      	movs	r3, #1
 800a092:	f884 3051 	strb.w	r3, [r4, #81]	; 0x51
 800a096:	2300      	movs	r3, #0
 800a098:	2003      	movs	r0, #3
 800a09a:	f884 3050 	strb.w	r3, [r4, #80]	; 0x50
 800a09e:	bdf8      	pop	{r3, r4, r5, r6, r7, pc}

0800a0a0 <SPI_EndRxTransaction>:
 800a0a0:	b538      	push	{r3, r4, r5, lr}
 800a0a2:	4613      	mov	r3, r2
 800a0a4:	6842      	ldr	r2, [r0, #4]
 800a0a6:	4604      	mov	r4, r0
 800a0a8:	f5b2 7f82 	cmp.w	r2, #260	; 0x104
 800a0ac:	d116      	bne.n	800a0dc <SPI_EndRxTransaction+0x3c>
 800a0ae:	6880      	ldr	r0, [r0, #8]
 800a0b0:	f5b0 4f00 	cmp.w	r0, #32768	; 0x8000
 800a0b4:	d002      	beq.n	800a0bc <SPI_EndRxTransaction+0x1c>
 800a0b6:	f5b0 6f80 	cmp.w	r0, #1024	; 0x400
 800a0ba:	d10f      	bne.n	800a0dc <SPI_EndRxTransaction+0x3c>
 800a0bc:	6822      	ldr	r2, [r4, #0]
 800a0be:	f5b0 6f80 	cmp.w	r0, #1024	; 0x400
 800a0c2:	6815      	ldr	r5, [r2, #0]
 800a0c4:	f025 0540 	bic.w	r5, r5, #64	; 0x40
 800a0c8:	6015      	str	r5, [r2, #0]
 800a0ca:	d107      	bne.n	800a0dc <SPI_EndRxTransaction+0x3c>
 800a0cc:	460a      	mov	r2, r1
 800a0ce:	2101      	movs	r1, #1
 800a0d0:	4620      	mov	r0, r4
 800a0d2:	f7ff ffaa 	bl	800a02a <SPI_WaitFlagStateUntilTimeout.constprop.8>
 800a0d6:	b920      	cbnz	r0, 800a0e2 <SPI_EndRxTransaction+0x42>
 800a0d8:	2000      	movs	r0, #0
 800a0da:	bd38      	pop	{r3, r4, r5, pc}
 800a0dc:	460a      	mov	r2, r1
 800a0de:	2180      	movs	r1, #128	; 0x80
 800a0e0:	e7f6      	b.n	800a0d0 <SPI_EndRxTransaction+0x30>
 800a0e2:	6d63      	ldr	r3, [r4, #84]	; 0x54
 800a0e4:	2003      	movs	r0, #3
 800a0e6:	f043 0320 	orr.w	r3, r3, #32
 800a0ea:	6563      	str	r3, [r4, #84]	; 0x54
 800a0ec:	bd38      	pop	{r3, r4, r5, pc}

0800a0ee <SPI_EndRxTxTransaction>:
 800a0ee:	b510      	push	{r4, lr}
 800a0f0:	4613      	mov	r3, r2
 800a0f2:	460a      	mov	r2, r1
 800a0f4:	2180      	movs	r1, #128	; 0x80
 800a0f6:	4604      	mov	r4, r0
 800a0f8:	f7ff ff97 	bl	800a02a <SPI_WaitFlagStateUntilTimeout.constprop.8>
 800a0fc:	b120      	cbz	r0, 800a108 <SPI_EndRxTxTransaction+0x1a>
 800a0fe:	2003      	movs	r0, #3
 800a100:	6d63      	ldr	r3, [r4, #84]	; 0x54
 800a102:	f043 0320 	orr.w	r3, r3, #32
 800a106:	6563      	str	r3, [r4, #84]	; 0x54
 800a108:	bd10      	pop	{r4, pc}

0800a10a <HAL_SPI_Init>:
 800a10a:	b510      	push	{r4, lr}
 800a10c:	4604      	mov	r4, r0
 800a10e:	2800      	cmp	r0, #0
 800a110:	d034      	beq.n	800a17c <HAL_SPI_Init+0x72>
 800a112:	2300      	movs	r3, #0
 800a114:	6283      	str	r3, [r0, #40]	; 0x28
 800a116:	f890 3051 	ldrb.w	r3, [r0, #81]	; 0x51
 800a11a:	f003 02ff 	and.w	r2, r3, #255	; 0xff
 800a11e:	b91b      	cbnz	r3, 800a128 <HAL_SPI_Init+0x1e>
 800a120:	f880 2050 	strb.w	r2, [r0, #80]	; 0x50
 800a124:	f006 ff30 	bl	8010f88 <HAL_SPI_MspInit>
 800a128:	2302      	movs	r3, #2
 800a12a:	6822      	ldr	r2, [r4, #0]
 800a12c:	f884 3051 	strb.w	r3, [r4, #81]	; 0x51
 800a130:	6813      	ldr	r3, [r2, #0]
 800a132:	68a0      	ldr	r0, [r4, #8]
 800a134:	f023 0340 	bic.w	r3, r3, #64	; 0x40
 800a138:	6013      	str	r3, [r2, #0]
 800a13a:	6863      	ldr	r3, [r4, #4]
 800a13c:	69a1      	ldr	r1, [r4, #24]
 800a13e:	4303      	orrs	r3, r0
 800a140:	68e0      	ldr	r0, [r4, #12]
 800a142:	4303      	orrs	r3, r0
 800a144:	6920      	ldr	r0, [r4, #16]
 800a146:	4303      	orrs	r3, r0
 800a148:	6960      	ldr	r0, [r4, #20]
 800a14a:	4303      	orrs	r3, r0
 800a14c:	69e0      	ldr	r0, [r4, #28]
 800a14e:	4303      	orrs	r3, r0
 800a150:	6a20      	ldr	r0, [r4, #32]
 800a152:	4303      	orrs	r3, r0
 800a154:	6aa0      	ldr	r0, [r4, #40]	; 0x28
 800a156:	4303      	orrs	r3, r0
 800a158:	f401 7000 	and.w	r0, r1, #512	; 0x200
 800a15c:	0c09      	lsrs	r1, r1, #16
 800a15e:	4303      	orrs	r3, r0
 800a160:	f001 0104 	and.w	r1, r1, #4
 800a164:	6013      	str	r3, [r2, #0]
 800a166:	6051      	str	r1, [r2, #4]
 800a168:	69d3      	ldr	r3, [r2, #28]
 800a16a:	2000      	movs	r0, #0
 800a16c:	f423 6300 	bic.w	r3, r3, #2048	; 0x800
 800a170:	61d3      	str	r3, [r2, #28]
 800a172:	2301      	movs	r3, #1
 800a174:	6560      	str	r0, [r4, #84]	; 0x54
 800a176:	f884 3051 	strb.w	r3, [r4, #81]	; 0x51
 800a17a:	bd10      	pop	{r4, pc}
 800a17c:	2001      	movs	r0, #1
 800a17e:	bd10      	pop	{r4, pc}

0800a180 <HAL_SPI_Transmit>:
 800a180:	e92d 41f3 	stmdb	sp!, {r0, r1, r4, r5, r6, r7, r8, lr}
 800a184:	461e      	mov	r6, r3
 800a186:	f890 3050 	ldrb.w	r3, [r0, #80]	; 0x50
 800a18a:	4604      	mov	r4, r0
 800a18c:	2b01      	cmp	r3, #1
 800a18e:	460d      	mov	r5, r1
 800a190:	4690      	mov	r8, r2
 800a192:	f000 809c 	beq.w	800a2ce <HAL_SPI_Transmit+0x14e>
 800a196:	2301      	movs	r3, #1
 800a198:	f880 3050 	strb.w	r3, [r0, #80]	; 0x50
 800a19c:	f7fe faa6 	bl	80086ec <HAL_GetTick>
 800a1a0:	4607      	mov	r7, r0
 800a1a2:	f894 0051 	ldrb.w	r0, [r4, #81]	; 0x51
 800a1a6:	b2c0      	uxtb	r0, r0
 800a1a8:	2801      	cmp	r0, #1
 800a1aa:	f040 808e 	bne.w	800a2ca <HAL_SPI_Transmit+0x14a>
 800a1ae:	2d00      	cmp	r5, #0
 800a1b0:	d05e      	beq.n	800a270 <HAL_SPI_Transmit+0xf0>
 800a1b2:	f1b8 0f00 	cmp.w	r8, #0
 800a1b6:	d05b      	beq.n	800a270 <HAL_SPI_Transmit+0xf0>
 800a1b8:	2303      	movs	r3, #3
 800a1ba:	2000      	movs	r0, #0
 800a1bc:	f884 3051 	strb.w	r3, [r4, #81]	; 0x51
 800a1c0:	68a3      	ldr	r3, [r4, #8]
 800a1c2:	6560      	str	r0, [r4, #84]	; 0x54
 800a1c4:	63a0      	str	r0, [r4, #56]	; 0x38
 800a1c6:	f8a4 8036 	strh.w	r8, [r4, #54]	; 0x36
 800a1ca:	87a0      	strh	r0, [r4, #60]	; 0x3c
 800a1cc:	87e0      	strh	r0, [r4, #62]	; 0x3e
 800a1ce:	6460      	str	r0, [r4, #68]	; 0x44
 800a1d0:	6420      	str	r0, [r4, #64]	; 0x40
 800a1d2:	6820      	ldr	r0, [r4, #0]
 800a1d4:	f5b3 4f00 	cmp.w	r3, #32768	; 0x8000
 800a1d8:	bf08      	it	eq
 800a1da:	6803      	ldreq	r3, [r0, #0]
 800a1dc:	6325      	str	r5, [r4, #48]	; 0x30
 800a1de:	bf08      	it	eq
 800a1e0:	f443 4380 	orreq.w	r3, r3, #16384	; 0x4000
 800a1e4:	f8a4 8034 	strh.w	r8, [r4, #52]	; 0x34
 800a1e8:	bf08      	it	eq
 800a1ea:	6003      	streq	r3, [r0, #0]
 800a1ec:	6803      	ldr	r3, [r0, #0]
 800a1ee:	065b      	lsls	r3, r3, #25
 800a1f0:	bf5e      	ittt	pl
 800a1f2:	6803      	ldrpl	r3, [r0, #0]
 800a1f4:	f043 0340 	orrpl.w	r3, r3, #64	; 0x40
 800a1f8:	6003      	strpl	r3, [r0, #0]
 800a1fa:	68e3      	ldr	r3, [r4, #12]
 800a1fc:	f5b3 6f00 	cmp.w	r3, #2048	; 0x800
 800a200:	6863      	ldr	r3, [r4, #4]
 800a202:	d13e      	bne.n	800a282 <HAL_SPI_Transmit+0x102>
 800a204:	b113      	cbz	r3, 800a20c <HAL_SPI_Transmit+0x8c>
 800a206:	f1b8 0f01 	cmp.w	r8, #1
 800a20a:	d107      	bne.n	800a21c <HAL_SPI_Transmit+0x9c>
 800a20c:	f835 3b02 	ldrh.w	r3, [r5], #2
 800a210:	60c3      	str	r3, [r0, #12]
 800a212:	6325      	str	r5, [r4, #48]	; 0x30
 800a214:	8ee3      	ldrh	r3, [r4, #54]	; 0x36
 800a216:	3b01      	subs	r3, #1
 800a218:	b29b      	uxth	r3, r3
 800a21a:	86e3      	strh	r3, [r4, #54]	; 0x36
 800a21c:	8ee3      	ldrh	r3, [r4, #54]	; 0x36
 800a21e:	b29b      	uxth	r3, r3
 800a220:	b9a3      	cbnz	r3, 800a24c <HAL_SPI_Transmit+0xcc>
 800a222:	463a      	mov	r2, r7
 800a224:	4631      	mov	r1, r6
 800a226:	4620      	mov	r0, r4
 800a228:	f7ff ff61 	bl	800a0ee <SPI_EndRxTxTransaction>
 800a22c:	2800      	cmp	r0, #0
 800a22e:	d149      	bne.n	800a2c4 <HAL_SPI_Transmit+0x144>
 800a230:	68a3      	ldr	r3, [r4, #8]
 800a232:	b933      	cbnz	r3, 800a242 <HAL_SPI_Transmit+0xc2>
 800a234:	9301      	str	r3, [sp, #4]
 800a236:	6823      	ldr	r3, [r4, #0]
 800a238:	68da      	ldr	r2, [r3, #12]
 800a23a:	9201      	str	r2, [sp, #4]
 800a23c:	689b      	ldr	r3, [r3, #8]
 800a23e:	9301      	str	r3, [sp, #4]
 800a240:	9b01      	ldr	r3, [sp, #4]
 800a242:	6d60      	ldr	r0, [r4, #84]	; 0x54
 800a244:	3000      	adds	r0, #0
 800a246:	bf18      	it	ne
 800a248:	2001      	movne	r0, #1
 800a24a:	e011      	b.n	800a270 <HAL_SPI_Transmit+0xf0>
 800a24c:	6822      	ldr	r2, [r4, #0]
 800a24e:	6893      	ldr	r3, [r2, #8]
 800a250:	0798      	lsls	r0, r3, #30
 800a252:	d505      	bpl.n	800a260 <HAL_SPI_Transmit+0xe0>
 800a254:	6b23      	ldr	r3, [r4, #48]	; 0x30
 800a256:	f833 1b02 	ldrh.w	r1, [r3], #2
 800a25a:	60d1      	str	r1, [r2, #12]
 800a25c:	6323      	str	r3, [r4, #48]	; 0x30
 800a25e:	e7d9      	b.n	800a214 <HAL_SPI_Transmit+0x94>
 800a260:	f7fe fa44 	bl	80086ec <HAL_GetTick>
 800a264:	1bc0      	subs	r0, r0, r7
 800a266:	42b0      	cmp	r0, r6
 800a268:	d3d8      	bcc.n	800a21c <HAL_SPI_Transmit+0x9c>
 800a26a:	1c71      	adds	r1, r6, #1
 800a26c:	d0d6      	beq.n	800a21c <HAL_SPI_Transmit+0x9c>
 800a26e:	2003      	movs	r0, #3
 800a270:	2301      	movs	r3, #1
 800a272:	f884 3051 	strb.w	r3, [r4, #81]	; 0x51
 800a276:	2300      	movs	r3, #0
 800a278:	f884 3050 	strb.w	r3, [r4, #80]	; 0x50
 800a27c:	b002      	add	sp, #8
 800a27e:	e8bd 81f0 	ldmia.w	sp!, {r4, r5, r6, r7, r8, pc}
 800a282:	b113      	cbz	r3, 800a28a <HAL_SPI_Transmit+0x10a>
 800a284:	f1b8 0f01 	cmp.w	r8, #1
 800a288:	d108      	bne.n	800a29c <HAL_SPI_Transmit+0x11c>
 800a28a:	782b      	ldrb	r3, [r5, #0]
 800a28c:	7303      	strb	r3, [r0, #12]
 800a28e:	6b23      	ldr	r3, [r4, #48]	; 0x30
 800a290:	3301      	adds	r3, #1
 800a292:	6323      	str	r3, [r4, #48]	; 0x30
 800a294:	8ee3      	ldrh	r3, [r4, #54]	; 0x36
 800a296:	3b01      	subs	r3, #1
 800a298:	b29b      	uxth	r3, r3
 800a29a:	86e3      	strh	r3, [r4, #54]	; 0x36
 800a29c:	8ee3      	ldrh	r3, [r4, #54]	; 0x36
 800a29e:	b29b      	uxth	r3, r3
 800a2a0:	2b00      	cmp	r3, #0
 800a2a2:	d0be      	beq.n	800a222 <HAL_SPI_Transmit+0xa2>
 800a2a4:	6823      	ldr	r3, [r4, #0]
 800a2a6:	689a      	ldr	r2, [r3, #8]
 800a2a8:	0792      	lsls	r2, r2, #30
 800a2aa:	d503      	bpl.n	800a2b4 <HAL_SPI_Transmit+0x134>
 800a2ac:	6b22      	ldr	r2, [r4, #48]	; 0x30
 800a2ae:	7812      	ldrb	r2, [r2, #0]
 800a2b0:	731a      	strb	r2, [r3, #12]
 800a2b2:	e7ec      	b.n	800a28e <HAL_SPI_Transmit+0x10e>
 800a2b4:	f7fe fa1a 	bl	80086ec <HAL_GetTick>
 800a2b8:	1bc0      	subs	r0, r0, r7
 800a2ba:	4286      	cmp	r6, r0
 800a2bc:	d8ee      	bhi.n	800a29c <HAL_SPI_Transmit+0x11c>
 800a2be:	1c73      	adds	r3, r6, #1
 800a2c0:	d0ec      	beq.n	800a29c <HAL_SPI_Transmit+0x11c>
 800a2c2:	e7d4      	b.n	800a26e <HAL_SPI_Transmit+0xee>
 800a2c4:	2320      	movs	r3, #32
 800a2c6:	6563      	str	r3, [r4, #84]	; 0x54
 800a2c8:	e7b2      	b.n	800a230 <HAL_SPI_Transmit+0xb0>
 800a2ca:	2002      	movs	r0, #2
 800a2cc:	e7d0      	b.n	800a270 <HAL_SPI_Transmit+0xf0>
 800a2ce:	2002      	movs	r0, #2
 800a2d0:	e7d4      	b.n	800a27c <HAL_SPI_Transmit+0xfc>

0800a2d2 <HAL_SPI_TransmitReceive>:
 800a2d2:	e92d 43f7 	stmdb	sp!, {r0, r1, r2, r4, r5, r6, r7, r8, r9, lr}
 800a2d6:	461e      	mov	r6, r3
 800a2d8:	f890 3050 	ldrb.w	r3, [r0, #80]	; 0x50
 800a2dc:	4604      	mov	r4, r0
 800a2de:	2b01      	cmp	r3, #1
 800a2e0:	460d      	mov	r5, r1
 800a2e2:	4691      	mov	r9, r2
 800a2e4:	9f0a      	ldr	r7, [sp, #40]	; 0x28
 800a2e6:	f000 80e2 	beq.w	800a4ae <HAL_SPI_TransmitReceive+0x1dc>
 800a2ea:	2301      	movs	r3, #1
 800a2ec:	f880 3050 	strb.w	r3, [r0, #80]	; 0x50
 800a2f0:	f7fe f9fc 	bl	80086ec <HAL_GetTick>
 800a2f4:	f894 3051 	ldrb.w	r3, [r4, #81]	; 0x51
 800a2f8:	4680      	mov	r8, r0
 800a2fa:	b2db      	uxtb	r3, r3
 800a2fc:	2b01      	cmp	r3, #1
 800a2fe:	6861      	ldr	r1, [r4, #4]
 800a300:	d00a      	beq.n	800a318 <HAL_SPI_TransmitReceive+0x46>
 800a302:	f5b1 7f82 	cmp.w	r1, #260	; 0x104
 800a306:	f040 80d0 	bne.w	800a4aa <HAL_SPI_TransmitReceive+0x1d8>
 800a30a:	68a0      	ldr	r0, [r4, #8]
 800a30c:	2800      	cmp	r0, #0
 800a30e:	f040 80cc 	bne.w	800a4aa <HAL_SPI_TransmitReceive+0x1d8>
 800a312:	2b04      	cmp	r3, #4
 800a314:	f040 80c9 	bne.w	800a4aa <HAL_SPI_TransmitReceive+0x1d8>
 800a318:	2d00      	cmp	r5, #0
 800a31a:	f000 80c4 	beq.w	800a4a6 <HAL_SPI_TransmitReceive+0x1d4>
 800a31e:	f1b9 0f00 	cmp.w	r9, #0
 800a322:	f000 80c0 	beq.w	800a4a6 <HAL_SPI_TransmitReceive+0x1d4>
 800a326:	2e00      	cmp	r6, #0
 800a328:	f000 80bd 	beq.w	800a4a6 <HAL_SPI_TransmitReceive+0x1d4>
 800a32c:	f894 3051 	ldrb.w	r3, [r4, #81]	; 0x51
 800a330:	f8c4 9038 	str.w	r9, [r4, #56]	; 0x38
 800a334:	2b04      	cmp	r3, #4
 800a336:	bf1c      	itt	ne
 800a338:	2305      	movne	r3, #5
 800a33a:	f884 3051 	strbne.w	r3, [r4, #81]	; 0x51
 800a33e:	2300      	movs	r3, #0
 800a340:	6563      	str	r3, [r4, #84]	; 0x54
 800a342:	6423      	str	r3, [r4, #64]	; 0x40
 800a344:	6463      	str	r3, [r4, #68]	; 0x44
 800a346:	6823      	ldr	r3, [r4, #0]
 800a348:	87e6      	strh	r6, [r4, #62]	; 0x3e
 800a34a:	86e6      	strh	r6, [r4, #54]	; 0x36
 800a34c:	681a      	ldr	r2, [r3, #0]
 800a34e:	87a6      	strh	r6, [r4, #60]	; 0x3c
 800a350:	0650      	lsls	r0, r2, #25
 800a352:	bf58      	it	pl
 800a354:	681a      	ldrpl	r2, [r3, #0]
 800a356:	6325      	str	r5, [r4, #48]	; 0x30
 800a358:	bf58      	it	pl
 800a35a:	f042 0240 	orrpl.w	r2, r2, #64	; 0x40
 800a35e:	86a6      	strh	r6, [r4, #52]	; 0x34
 800a360:	bf58      	it	pl
 800a362:	601a      	strpl	r2, [r3, #0]
 800a364:	68e2      	ldr	r2, [r4, #12]
 800a366:	f5b2 6f00 	cmp.w	r2, #2048	; 0x800
 800a36a:	d158      	bne.n	800a41e <HAL_SPI_TransmitReceive+0x14c>
 800a36c:	b109      	cbz	r1, 800a372 <HAL_SPI_TransmitReceive+0xa0>
 800a36e:	2e01      	cmp	r6, #1
 800a370:	d107      	bne.n	800a382 <HAL_SPI_TransmitReceive+0xb0>
 800a372:	f835 2b02 	ldrh.w	r2, [r5], #2
 800a376:	60da      	str	r2, [r3, #12]
 800a378:	8ee3      	ldrh	r3, [r4, #54]	; 0x36
 800a37a:	6325      	str	r5, [r4, #48]	; 0x30
 800a37c:	3b01      	subs	r3, #1
 800a37e:	b29b      	uxth	r3, r3
 800a380:	86e3      	strh	r3, [r4, #54]	; 0x36
 800a382:	2501      	movs	r5, #1
 800a384:	8ee3      	ldrh	r3, [r4, #54]	; 0x36
 800a386:	b29b      	uxth	r3, r3
 800a388:	b9ab      	cbnz	r3, 800a3b6 <HAL_SPI_TransmitReceive+0xe4>
 800a38a:	8fe3      	ldrh	r3, [r4, #62]	; 0x3e
 800a38c:	b29b      	uxth	r3, r3
 800a38e:	b993      	cbnz	r3, 800a3b6 <HAL_SPI_TransmitReceive+0xe4>
 800a390:	4642      	mov	r2, r8
 800a392:	4639      	mov	r1, r7
 800a394:	4620      	mov	r0, r4
 800a396:	f7ff feaa 	bl	800a0ee <SPI_EndRxTxTransaction>
 800a39a:	2800      	cmp	r0, #0
 800a39c:	f040 8081 	bne.w	800a4a2 <HAL_SPI_TransmitReceive+0x1d0>
 800a3a0:	68a3      	ldr	r3, [r4, #8]
 800a3a2:	2b00      	cmp	r3, #0
 800a3a4:	d132      	bne.n	800a40c <HAL_SPI_TransmitReceive+0x13a>
 800a3a6:	6823      	ldr	r3, [r4, #0]
 800a3a8:	9001      	str	r0, [sp, #4]
 800a3aa:	68da      	ldr	r2, [r3, #12]
 800a3ac:	9201      	str	r2, [sp, #4]
 800a3ae:	689b      	ldr	r3, [r3, #8]
 800a3b0:	9301      	str	r3, [sp, #4]
 800a3b2:	9b01      	ldr	r3, [sp, #4]
 800a3b4:	e02a      	b.n	800a40c <HAL_SPI_TransmitReceive+0x13a>
 800a3b6:	6822      	ldr	r2, [r4, #0]
 800a3b8:	6893      	ldr	r3, [r2, #8]
 800a3ba:	0799      	lsls	r1, r3, #30
 800a3bc:	d50d      	bpl.n	800a3da <HAL_SPI_TransmitReceive+0x108>
 800a3be:	8ee3      	ldrh	r3, [r4, #54]	; 0x36
 800a3c0:	b29b      	uxth	r3, r3
 800a3c2:	b153      	cbz	r3, 800a3da <HAL_SPI_TransmitReceive+0x108>
 800a3c4:	b14d      	cbz	r5, 800a3da <HAL_SPI_TransmitReceive+0x108>
 800a3c6:	2500      	movs	r5, #0
 800a3c8:	6b23      	ldr	r3, [r4, #48]	; 0x30
 800a3ca:	f833 1b02 	ldrh.w	r1, [r3], #2
 800a3ce:	60d1      	str	r1, [r2, #12]
 800a3d0:	6323      	str	r3, [r4, #48]	; 0x30
 800a3d2:	8ee3      	ldrh	r3, [r4, #54]	; 0x36
 800a3d4:	3b01      	subs	r3, #1
 800a3d6:	b29b      	uxth	r3, r3
 800a3d8:	86e3      	strh	r3, [r4, #54]	; 0x36
 800a3da:	6893      	ldr	r3, [r2, #8]
 800a3dc:	07db      	lsls	r3, r3, #31
 800a3de:	d50c      	bpl.n	800a3fa <HAL_SPI_TransmitReceive+0x128>
 800a3e0:	8fe3      	ldrh	r3, [r4, #62]	; 0x3e
 800a3e2:	b29b      	uxth	r3, r3
 800a3e4:	b14b      	cbz	r3, 800a3fa <HAL_SPI_TransmitReceive+0x128>
 800a3e6:	2501      	movs	r5, #1
 800a3e8:	68d2      	ldr	r2, [r2, #12]
 800a3ea:	6ba3      	ldr	r3, [r4, #56]	; 0x38
 800a3ec:	f823 2b02 	strh.w	r2, [r3], #2
 800a3f0:	63a3      	str	r3, [r4, #56]	; 0x38
 800a3f2:	8fe3      	ldrh	r3, [r4, #62]	; 0x3e
 800a3f4:	3b01      	subs	r3, #1
 800a3f6:	b29b      	uxth	r3, r3
 800a3f8:	87e3      	strh	r3, [r4, #62]	; 0x3e
 800a3fa:	f7fe f977 	bl	80086ec <HAL_GetTick>
 800a3fe:	eba0 0008 	sub.w	r0, r0, r8
 800a402:	4287      	cmp	r7, r0
 800a404:	d8be      	bhi.n	800a384 <HAL_SPI_TransmitReceive+0xb2>
 800a406:	1c7e      	adds	r6, r7, #1
 800a408:	d0bc      	beq.n	800a384 <HAL_SPI_TransmitReceive+0xb2>
 800a40a:	2003      	movs	r0, #3
 800a40c:	2301      	movs	r3, #1
 800a40e:	f884 3051 	strb.w	r3, [r4, #81]	; 0x51
 800a412:	2300      	movs	r3, #0
 800a414:	f884 3050 	strb.w	r3, [r4, #80]	; 0x50
 800a418:	b003      	add	sp, #12
 800a41a:	e8bd 83f0 	ldmia.w	sp!, {r4, r5, r6, r7, r8, r9, pc}
 800a41e:	b109      	cbz	r1, 800a424 <HAL_SPI_TransmitReceive+0x152>
 800a420:	2e01      	cmp	r6, #1
 800a422:	d108      	bne.n	800a436 <HAL_SPI_TransmitReceive+0x164>
 800a424:	782a      	ldrb	r2, [r5, #0]
 800a426:	731a      	strb	r2, [r3, #12]
 800a428:	6b23      	ldr	r3, [r4, #48]	; 0x30
 800a42a:	3301      	adds	r3, #1
 800a42c:	6323      	str	r3, [r4, #48]	; 0x30
 800a42e:	8ee3      	ldrh	r3, [r4, #54]	; 0x36
 800a430:	3b01      	subs	r3, #1
 800a432:	b29b      	uxth	r3, r3
 800a434:	86e3      	strh	r3, [r4, #54]	; 0x36
 800a436:	2501      	movs	r5, #1
 800a438:	8ee3      	ldrh	r3, [r4, #54]	; 0x36
 800a43a:	b29b      	uxth	r3, r3
 800a43c:	b91b      	cbnz	r3, 800a446 <HAL_SPI_TransmitReceive+0x174>
 800a43e:	8fe3      	ldrh	r3, [r4, #62]	; 0x3e
 800a440:	b29b      	uxth	r3, r3
 800a442:	2b00      	cmp	r3, #0
 800a444:	d0a4      	beq.n	800a390 <HAL_SPI_TransmitReceive+0xbe>
 800a446:	6822      	ldr	r2, [r4, #0]
 800a448:	6893      	ldr	r3, [r2, #8]
 800a44a:	0798      	lsls	r0, r3, #30
 800a44c:	d50e      	bpl.n	800a46c <HAL_SPI_TransmitReceive+0x19a>
 800a44e:	8ee3      	ldrh	r3, [r4, #54]	; 0x36
 800a450:	b29b      	uxth	r3, r3
 800a452:	b15b      	cbz	r3, 800a46c <HAL_SPI_TransmitReceive+0x19a>
 800a454:	b155      	cbz	r5, 800a46c <HAL_SPI_TransmitReceive+0x19a>
 800a456:	2500      	movs	r5, #0
 800a458:	6b23      	ldr	r3, [r4, #48]	; 0x30
 800a45a:	781b      	ldrb	r3, [r3, #0]
 800a45c:	7313      	strb	r3, [r2, #12]
 800a45e:	6b23      	ldr	r3, [r4, #48]	; 0x30
 800a460:	3301      	adds	r3, #1
 800a462:	6323      	str	r3, [r4, #48]	; 0x30
 800a464:	8ee3      	ldrh	r3, [r4, #54]	; 0x36
 800a466:	3b01      	subs	r3, #1
 800a468:	b29b      	uxth	r3, r3
 800a46a:	86e3      	strh	r3, [r4, #54]	; 0x36
 800a46c:	6822      	ldr	r2, [r4, #0]
 800a46e:	6893      	ldr	r3, [r2, #8]
 800a470:	07d9      	lsls	r1, r3, #31
 800a472:	d50d      	bpl.n	800a490 <HAL_SPI_TransmitReceive+0x1be>
 800a474:	8fe3      	ldrh	r3, [r4, #62]	; 0x3e
 800a476:	b29b      	uxth	r3, r3
 800a478:	b153      	cbz	r3, 800a490 <HAL_SPI_TransmitReceive+0x1be>
 800a47a:	2501      	movs	r5, #1
 800a47c:	68d2      	ldr	r2, [r2, #12]
 800a47e:	6ba3      	ldr	r3, [r4, #56]	; 0x38
 800a480:	701a      	strb	r2, [r3, #0]
 800a482:	6ba3      	ldr	r3, [r4, #56]	; 0x38
 800a484:	3301      	adds	r3, #1
 800a486:	63a3      	str	r3, [r4, #56]	; 0x38
 800a488:	8fe3      	ldrh	r3, [r4, #62]	; 0x3e
 800a48a:	3b01      	subs	r3, #1
 800a48c:	b29b      	uxth	r3, r3
 800a48e:	87e3      	strh	r3, [r4, #62]	; 0x3e
 800a490:	f7fe f92c 	bl	80086ec <HAL_GetTick>
 800a494:	eba0 0008 	sub.w	r0, r0, r8
 800a498:	4287      	cmp	r7, r0
 800a49a:	d8cd      	bhi.n	800a438 <HAL_SPI_TransmitReceive+0x166>
 800a49c:	1c7b      	adds	r3, r7, #1
 800a49e:	d0cb      	beq.n	800a438 <HAL_SPI_TransmitReceive+0x166>
 800a4a0:	e7b3      	b.n	800a40a <HAL_SPI_TransmitReceive+0x138>
 800a4a2:	2320      	movs	r3, #32
 800a4a4:	6563      	str	r3, [r4, #84]	; 0x54
 800a4a6:	2001      	movs	r0, #1
 800a4a8:	e7b0      	b.n	800a40c <HAL_SPI_TransmitReceive+0x13a>
 800a4aa:	2002      	movs	r0, #2
 800a4ac:	e7ae      	b.n	800a40c <HAL_SPI_TransmitReceive+0x13a>
 800a4ae:	2002      	movs	r0, #2
 800a4b0:	e7b2      	b.n	800a418 <HAL_SPI_TransmitReceive+0x146>
	...

0800a4b4 <HAL_SPI_TransmitReceive_DMA>:
 800a4b4:	b538      	push	{r3, r4, r5, lr}
 800a4b6:	4604      	mov	r4, r0
 800a4b8:	f890 0050 	ldrb.w	r0, [r0, #80]	; 0x50
 800a4bc:	2801      	cmp	r0, #1
 800a4be:	d074      	beq.n	800a5aa <HAL_SPI_TransmitReceive_DMA+0xf6>
 800a4c0:	2001      	movs	r0, #1
 800a4c2:	f884 0050 	strb.w	r0, [r4, #80]	; 0x50
 800a4c6:	f894 0051 	ldrb.w	r0, [r4, #81]	; 0x51
 800a4ca:	b2c0      	uxtb	r0, r0
 800a4cc:	2801      	cmp	r0, #1
 800a4ce:	d008      	beq.n	800a4e2 <HAL_SPI_TransmitReceive_DMA+0x2e>
 800a4d0:	6865      	ldr	r5, [r4, #4]
 800a4d2:	f5b5 7f82 	cmp.w	r5, #260	; 0x104
 800a4d6:	d164      	bne.n	800a5a2 <HAL_SPI_TransmitReceive_DMA+0xee>
 800a4d8:	68a5      	ldr	r5, [r4, #8]
 800a4da:	2d00      	cmp	r5, #0
 800a4dc:	d161      	bne.n	800a5a2 <HAL_SPI_TransmitReceive_DMA+0xee>
 800a4de:	2804      	cmp	r0, #4
 800a4e0:	d15f      	bne.n	800a5a2 <HAL_SPI_TransmitReceive_DMA+0xee>
 800a4e2:	2900      	cmp	r1, #0
 800a4e4:	d05f      	beq.n	800a5a6 <HAL_SPI_TransmitReceive_DMA+0xf2>
 800a4e6:	2a00      	cmp	r2, #0
 800a4e8:	d05d      	beq.n	800a5a6 <HAL_SPI_TransmitReceive_DMA+0xf2>
 800a4ea:	2b00      	cmp	r3, #0
 800a4ec:	d05b      	beq.n	800a5a6 <HAL_SPI_TransmitReceive_DMA+0xf2>
 800a4ee:	f894 0051 	ldrb.w	r0, [r4, #81]	; 0x51
 800a4f2:	86a3      	strh	r3, [r4, #52]	; 0x34
 800a4f4:	2804      	cmp	r0, #4
 800a4f6:	bf1c      	itt	ne
 800a4f8:	2005      	movne	r0, #5
 800a4fa:	f884 0051 	strbne.w	r0, [r4, #81]	; 0x51
 800a4fe:	2000      	movs	r0, #0
 800a500:	6560      	str	r0, [r4, #84]	; 0x54
 800a502:	86e3      	strh	r3, [r4, #54]	; 0x36
 800a504:	87e3      	strh	r3, [r4, #62]	; 0x3e
 800a506:	87a3      	strh	r3, [r4, #60]	; 0x3c
 800a508:	f894 3051 	ldrb.w	r3, [r4, #81]	; 0x51
 800a50c:	6420      	str	r0, [r4, #64]	; 0x40
 800a50e:	2b04      	cmp	r3, #4
 800a510:	6460      	str	r0, [r4, #68]	; 0x44
 800a512:	bf08      	it	eq
 800a514:	4b26      	ldreq	r3, [pc, #152]	; (800a5b0 <HAL_SPI_TransmitReceive_DMA+0xfc>)
 800a516:	6ce0      	ldr	r0, [r4, #76]	; 0x4c
 800a518:	bf18      	it	ne
 800a51a:	4b26      	ldrne	r3, [pc, #152]	; (800a5b4 <HAL_SPI_TransmitReceive_DMA+0x100>)
 800a51c:	6321      	str	r1, [r4, #48]	; 0x30
 800a51e:	63a2      	str	r2, [r4, #56]	; 0x38
 800a520:	bf0b      	itete	eq
 800a522:	62c3      	streq	r3, [r0, #44]	; 0x2c
 800a524:	62c3      	strne	r3, [r0, #44]	; 0x2c
 800a526:	4b24      	ldreq	r3, [pc, #144]	; (800a5b8 <HAL_SPI_TransmitReceive_DMA+0x104>)
 800a528:	4b24      	ldrne	r3, [pc, #144]	; (800a5bc <HAL_SPI_TransmitReceive_DMA+0x108>)
 800a52a:	6821      	ldr	r1, [r4, #0]
 800a52c:	6283      	str	r3, [r0, #40]	; 0x28
 800a52e:	4b24      	ldr	r3, [pc, #144]	; (800a5c0 <HAL_SPI_TransmitReceive_DMA+0x10c>)
 800a530:	310c      	adds	r1, #12
 800a532:	6303      	str	r3, [r0, #48]	; 0x30
 800a534:	2300      	movs	r3, #0
 800a536:	6343      	str	r3, [r0, #52]	; 0x34
 800a538:	8fe3      	ldrh	r3, [r4, #62]	; 0x3e
 800a53a:	b29b      	uxth	r3, r3
 800a53c:	f7fe f978 	bl	8008830 <HAL_DMA_Start_IT>
 800a540:	4603      	mov	r3, r0
 800a542:	b150      	cbz	r0, 800a55a <HAL_SPI_TransmitReceive_DMA+0xa6>
 800a544:	2001      	movs	r0, #1
 800a546:	6d63      	ldr	r3, [r4, #84]	; 0x54
 800a548:	f043 0310 	orr.w	r3, r3, #16
 800a54c:	6563      	str	r3, [r4, #84]	; 0x54
 800a54e:	f884 0051 	strb.w	r0, [r4, #81]	; 0x51
 800a552:	2300      	movs	r3, #0
 800a554:	f884 3050 	strb.w	r3, [r4, #80]	; 0x50
 800a558:	bd38      	pop	{r3, r4, r5, pc}
 800a55a:	6822      	ldr	r2, [r4, #0]
 800a55c:	6ca0      	ldr	r0, [r4, #72]	; 0x48
 800a55e:	6851      	ldr	r1, [r2, #4]
 800a560:	320c      	adds	r2, #12
 800a562:	f041 0101 	orr.w	r1, r1, #1
 800a566:	f842 1c08 	str.w	r1, [r2, #-8]
 800a56a:	62c3      	str	r3, [r0, #44]	; 0x2c
 800a56c:	6283      	str	r3, [r0, #40]	; 0x28
 800a56e:	6303      	str	r3, [r0, #48]	; 0x30
 800a570:	6343      	str	r3, [r0, #52]	; 0x34
 800a572:	8ee3      	ldrh	r3, [r4, #54]	; 0x36
 800a574:	6b21      	ldr	r1, [r4, #48]	; 0x30
 800a576:	b29b      	uxth	r3, r3
 800a578:	f7fe f95a 	bl	8008830 <HAL_DMA_Start_IT>
 800a57c:	2800      	cmp	r0, #0
 800a57e:	d1e1      	bne.n	800a544 <HAL_SPI_TransmitReceive_DMA+0x90>
 800a580:	6823      	ldr	r3, [r4, #0]
 800a582:	681a      	ldr	r2, [r3, #0]
 800a584:	0652      	lsls	r2, r2, #25
 800a586:	bf5e      	ittt	pl
 800a588:	681a      	ldrpl	r2, [r3, #0]
 800a58a:	f042 0240 	orrpl.w	r2, r2, #64	; 0x40
 800a58e:	601a      	strpl	r2, [r3, #0]
 800a590:	685a      	ldr	r2, [r3, #4]
 800a592:	f042 0220 	orr.w	r2, r2, #32
 800a596:	605a      	str	r2, [r3, #4]
 800a598:	685a      	ldr	r2, [r3, #4]
 800a59a:	f042 0202 	orr.w	r2, r2, #2
 800a59e:	605a      	str	r2, [r3, #4]
 800a5a0:	e7d7      	b.n	800a552 <HAL_SPI_TransmitReceive_DMA+0x9e>
 800a5a2:	2002      	movs	r0, #2
 800a5a4:	e7d5      	b.n	800a552 <HAL_SPI_TransmitReceive_DMA+0x9e>
 800a5a6:	2001      	movs	r0, #1
 800a5a8:	e7d3      	b.n	800a552 <HAL_SPI_TransmitReceive_DMA+0x9e>
 800a5aa:	2002      	movs	r0, #2
 800a5ac:	bd38      	pop	{r3, r4, r5, pc}
 800a5ae:	bf00      	nop
 800a5b0:	0800a6a3 	.word	0x0800a6a3
 800a5b4:	0800a6af 	.word	0x0800a6af
 800a5b8:	0800a6dd 	.word	0x0800a6dd
 800a5bc:	0800a72f 	.word	0x0800a72f
 800a5c0:	0800a6bb 	.word	0x0800a6bb

0800a5c4 <HAL_SPI_Receive_DMA>:
 800a5c4:	4613      	mov	r3, r2
 800a5c6:	6882      	ldr	r2, [r0, #8]
 800a5c8:	b570      	push	{r4, r5, r6, lr}
 800a5ca:	4604      	mov	r4, r0
 800a5cc:	460d      	mov	r5, r1
 800a5ce:	b95a      	cbnz	r2, 800a5e8 <HAL_SPI_Receive_DMA+0x24>
 800a5d0:	6846      	ldr	r6, [r0, #4]
 800a5d2:	f5b6 7f82 	cmp.w	r6, #260	; 0x104
 800a5d6:	d107      	bne.n	800a5e8 <HAL_SPI_Receive_DMA+0x24>
 800a5d8:	2204      	movs	r2, #4
 800a5da:	e8bd 4070 	ldmia.w	sp!, {r4, r5, r6, lr}
 800a5de:	f880 2051 	strb.w	r2, [r0, #81]	; 0x51
 800a5e2:	460a      	mov	r2, r1
 800a5e4:	f7ff bf66 	b.w	800a4b4 <HAL_SPI_TransmitReceive_DMA>
 800a5e8:	f894 1050 	ldrb.w	r1, [r4, #80]	; 0x50
 800a5ec:	2901      	cmp	r1, #1
 800a5ee:	d04e      	beq.n	800a68e <HAL_SPI_Receive_DMA+0xca>
 800a5f0:	2101      	movs	r1, #1
 800a5f2:	f894 0051 	ldrb.w	r0, [r4, #81]	; 0x51
 800a5f6:	f884 1050 	strb.w	r1, [r4, #80]	; 0x50
 800a5fa:	b2c0      	uxtb	r0, r0
 800a5fc:	4288      	cmp	r0, r1
 800a5fe:	d144      	bne.n	800a68a <HAL_SPI_Receive_DMA+0xc6>
 800a600:	2d00      	cmp	r5, #0
 800a602:	d02d      	beq.n	800a660 <HAL_SPI_Receive_DMA+0x9c>
 800a604:	2b00      	cmp	r3, #0
 800a606:	d02b      	beq.n	800a660 <HAL_SPI_Receive_DMA+0x9c>
 800a608:	2104      	movs	r1, #4
 800a60a:	f884 1051 	strb.w	r1, [r4, #81]	; 0x51
 800a60e:	2100      	movs	r1, #0
 800a610:	6561      	str	r1, [r4, #84]	; 0x54
 800a612:	6421      	str	r1, [r4, #64]	; 0x40
 800a614:	87e3      	strh	r3, [r4, #62]	; 0x3e
 800a616:	6461      	str	r1, [r4, #68]	; 0x44
 800a618:	86e1      	strh	r1, [r4, #54]	; 0x36
 800a61a:	86a1      	strh	r1, [r4, #52]	; 0x34
 800a61c:	6821      	ldr	r1, [r4, #0]
 800a61e:	f5b2 4f00 	cmp.w	r2, #32768	; 0x8000
 800a622:	87a3      	strh	r3, [r4, #60]	; 0x3c
 800a624:	bf08      	it	eq
 800a626:	680b      	ldreq	r3, [r1, #0]
 800a628:	63a5      	str	r5, [r4, #56]	; 0x38
 800a62a:	bf04      	itt	eq
 800a62c:	f423 4380 	biceq.w	r3, r3, #16384	; 0x4000
 800a630:	600b      	streq	r3, [r1, #0]
 800a632:	6ce0      	ldr	r0, [r4, #76]	; 0x4c
 800a634:	4b17      	ldr	r3, [pc, #92]	; (800a694 <HAL_SPI_Receive_DMA+0xd0>)
 800a636:	462a      	mov	r2, r5
 800a638:	62c3      	str	r3, [r0, #44]	; 0x2c
 800a63a:	4b17      	ldr	r3, [pc, #92]	; (800a698 <HAL_SPI_Receive_DMA+0xd4>)
 800a63c:	310c      	adds	r1, #12
 800a63e:	6283      	str	r3, [r0, #40]	; 0x28
 800a640:	4b16      	ldr	r3, [pc, #88]	; (800a69c <HAL_SPI_Receive_DMA+0xd8>)
 800a642:	6303      	str	r3, [r0, #48]	; 0x30
 800a644:	2300      	movs	r3, #0
 800a646:	6343      	str	r3, [r0, #52]	; 0x34
 800a648:	8fe3      	ldrh	r3, [r4, #62]	; 0x3e
 800a64a:	b29b      	uxth	r3, r3
 800a64c:	f7fe f8f0 	bl	8008830 <HAL_DMA_Start_IT>
 800a650:	b150      	cbz	r0, 800a668 <HAL_SPI_Receive_DMA+0xa4>
 800a652:	2001      	movs	r0, #1
 800a654:	6d63      	ldr	r3, [r4, #84]	; 0x54
 800a656:	f043 0310 	orr.w	r3, r3, #16
 800a65a:	6563      	str	r3, [r4, #84]	; 0x54
 800a65c:	f884 0051 	strb.w	r0, [r4, #81]	; 0x51
 800a660:	2300      	movs	r3, #0
 800a662:	f884 3050 	strb.w	r3, [r4, #80]	; 0x50
 800a666:	bd70      	pop	{r4, r5, r6, pc}
 800a668:	6823      	ldr	r3, [r4, #0]
 800a66a:	681a      	ldr	r2, [r3, #0]
 800a66c:	0652      	lsls	r2, r2, #25
 800a66e:	bf5e      	ittt	pl
 800a670:	681a      	ldrpl	r2, [r3, #0]
 800a672:	f042 0240 	orrpl.w	r2, r2, #64	; 0x40
 800a676:	601a      	strpl	r2, [r3, #0]
 800a678:	685a      	ldr	r2, [r3, #4]
 800a67a:	f042 0220 	orr.w	r2, r2, #32
 800a67e:	605a      	str	r2, [r3, #4]
 800a680:	685a      	ldr	r2, [r3, #4]
 800a682:	f042 0201 	orr.w	r2, r2, #1
 800a686:	605a      	str	r2, [r3, #4]
 800a688:	e7ea      	b.n	800a660 <HAL_SPI_Receive_DMA+0x9c>
 800a68a:	2002      	movs	r0, #2
 800a68c:	e7e8      	b.n	800a660 <HAL_SPI_Receive_DMA+0x9c>
 800a68e:	2002      	movs	r0, #2
 800a690:	bd70      	pop	{r4, r5, r6, pc}
 800a692:	bf00      	nop
 800a694:	0800a6a3 	.word	0x0800a6a3
 800a698:	0800a6dd 	.word	0x0800a6dd
 800a69c:	0800a6bb 	.word	0x0800a6bb

0800a6a0 <HAL_SPI_TxRxCpltCallback>:
 800a6a0:	4770      	bx	lr

0800a6a2 <SPI_DMAHalfReceiveCplt>:
 800a6a2:	b508      	push	{r3, lr}
 800a6a4:	6a40      	ldr	r0, [r0, #36]	; 0x24
 800a6a6:	f003 fc71 	bl	800df8c <HAL_SPI_RxHalfCpltCallback>
 800a6aa:	bd08      	pop	{r3, pc}

0800a6ac <HAL_SPI_TxRxHalfCpltCallback>:
 800a6ac:	4770      	bx	lr

0800a6ae <SPI_DMAHalfTransmitReceiveCplt>:
 800a6ae:	b508      	push	{r3, lr}
 800a6b0:	6a40      	ldr	r0, [r0, #36]	; 0x24
 800a6b2:	f7ff fffb 	bl	800a6ac <HAL_SPI_TxRxHalfCpltCallback>
 800a6b6:	bd08      	pop	{r3, pc}

0800a6b8 <HAL_SPI_ErrorCallback>:
 800a6b8:	4770      	bx	lr

0800a6ba <SPI_DMAError>:
 800a6ba:	6a40      	ldr	r0, [r0, #36]	; 0x24
 800a6bc:	b508      	push	{r3, lr}
 800a6be:	6802      	ldr	r2, [r0, #0]
 800a6c0:	6853      	ldr	r3, [r2, #4]
 800a6c2:	f023 0303 	bic.w	r3, r3, #3
 800a6c6:	6053      	str	r3, [r2, #4]
 800a6c8:	6d43      	ldr	r3, [r0, #84]	; 0x54
 800a6ca:	f043 0310 	orr.w	r3, r3, #16
 800a6ce:	6543      	str	r3, [r0, #84]	; 0x54
 800a6d0:	2301      	movs	r3, #1
 800a6d2:	f880 3051 	strb.w	r3, [r0, #81]	; 0x51
 800a6d6:	f7ff ffef 	bl	800a6b8 <HAL_SPI_ErrorCallback>
 800a6da:	bd08      	pop	{r3, pc}

0800a6dc <SPI_DMAReceiveCplt>:
 800a6dc:	b538      	push	{r3, r4, r5, lr}
 800a6de:	4605      	mov	r5, r0
 800a6e0:	6a44      	ldr	r4, [r0, #36]	; 0x24
 800a6e2:	f7fe f803 	bl	80086ec <HAL_GetTick>
 800a6e6:	682b      	ldr	r3, [r5, #0]
 800a6e8:	4602      	mov	r2, r0
 800a6ea:	681b      	ldr	r3, [r3, #0]
 800a6ec:	069b      	lsls	r3, r3, #26
 800a6ee:	d41a      	bmi.n	800a726 <SPI_DMAReceiveCplt+0x4a>
 800a6f0:	6823      	ldr	r3, [r4, #0]
 800a6f2:	4620      	mov	r0, r4
 800a6f4:	6859      	ldr	r1, [r3, #4]
 800a6f6:	f021 0120 	bic.w	r1, r1, #32
 800a6fa:	6059      	str	r1, [r3, #4]
 800a6fc:	6859      	ldr	r1, [r3, #4]
 800a6fe:	f021 0103 	bic.w	r1, r1, #3
 800a702:	6059      	str	r1, [r3, #4]
 800a704:	2164      	movs	r1, #100	; 0x64
 800a706:	f7ff fccb 	bl	800a0a0 <SPI_EndRxTransaction>
 800a70a:	b108      	cbz	r0, 800a710 <SPI_DMAReceiveCplt+0x34>
 800a70c:	2320      	movs	r3, #32
 800a70e:	6563      	str	r3, [r4, #84]	; 0x54
 800a710:	2300      	movs	r3, #0
 800a712:	87e3      	strh	r3, [r4, #62]	; 0x3e
 800a714:	2301      	movs	r3, #1
 800a716:	f884 3051 	strb.w	r3, [r4, #81]	; 0x51
 800a71a:	6d63      	ldr	r3, [r4, #84]	; 0x54
 800a71c:	b11b      	cbz	r3, 800a726 <SPI_DMAReceiveCplt+0x4a>
 800a71e:	4620      	mov	r0, r4
 800a720:	f7ff ffca 	bl	800a6b8 <HAL_SPI_ErrorCallback>
 800a724:	bd38      	pop	{r3, r4, r5, pc}
 800a726:	4620      	mov	r0, r4
 800a728:	f003 fbd6 	bl	800ded8 <HAL_SPI_RxCpltCallback>
 800a72c:	bd38      	pop	{r3, r4, r5, pc}

0800a72e <SPI_DMATransmitReceiveCplt>:
 800a72e:	b538      	push	{r3, r4, r5, lr}
 800a730:	4605      	mov	r5, r0
 800a732:	6a44      	ldr	r4, [r0, #36]	; 0x24
 800a734:	f7fd ffda 	bl	80086ec <HAL_GetTick>
 800a738:	682b      	ldr	r3, [r5, #0]
 800a73a:	4602      	mov	r2, r0
 800a73c:	681b      	ldr	r3, [r3, #0]
 800a73e:	069b      	lsls	r3, r3, #26
 800a740:	d41e      	bmi.n	800a780 <SPI_DMATransmitReceiveCplt+0x52>
 800a742:	6821      	ldr	r1, [r4, #0]
 800a744:	4620      	mov	r0, r4
 800a746:	684b      	ldr	r3, [r1, #4]
 800a748:	f023 0320 	bic.w	r3, r3, #32
 800a74c:	604b      	str	r3, [r1, #4]
 800a74e:	2164      	movs	r1, #100	; 0x64
 800a750:	f7ff fccd 	bl	800a0ee <SPI_EndRxTxTransaction>
 800a754:	b118      	cbz	r0, 800a75e <SPI_DMATransmitReceiveCplt+0x30>
 800a756:	6d63      	ldr	r3, [r4, #84]	; 0x54
 800a758:	f043 0320 	orr.w	r3, r3, #32
 800a75c:	6563      	str	r3, [r4, #84]	; 0x54
 800a75e:	6822      	ldr	r2, [r4, #0]
 800a760:	6853      	ldr	r3, [r2, #4]
 800a762:	f023 0303 	bic.w	r3, r3, #3
 800a766:	6053      	str	r3, [r2, #4]
 800a768:	2300      	movs	r3, #0
 800a76a:	86e3      	strh	r3, [r4, #54]	; 0x36
 800a76c:	87e3      	strh	r3, [r4, #62]	; 0x3e
 800a76e:	2301      	movs	r3, #1
 800a770:	f884 3051 	strb.w	r3, [r4, #81]	; 0x51
 800a774:	6d63      	ldr	r3, [r4, #84]	; 0x54
 800a776:	b11b      	cbz	r3, 800a780 <SPI_DMATransmitReceiveCplt+0x52>
 800a778:	4620      	mov	r0, r4
 800a77a:	f7ff ff9d 	bl	800a6b8 <HAL_SPI_ErrorCallback>
 800a77e:	bd38      	pop	{r3, r4, r5, pc}
 800a780:	4620      	mov	r0, r4
 800a782:	f7ff ff8d 	bl	800a6a0 <HAL_SPI_TxRxCpltCallback>
 800a786:	bd38      	pop	{r3, r4, r5, pc}

0800a788 <HAL_SPI_GetState>:
 800a788:	f890 0051 	ldrb.w	r0, [r0, #81]	; 0x51
 800a78c:	4770      	bx	lr
	...

0800a790 <UART_SetConfig>:
 800a790:	b538      	push	{r3, r4, r5, lr}
 800a792:	4605      	mov	r5, r0
 800a794:	6803      	ldr	r3, [r0, #0]
 800a796:	68c1      	ldr	r1, [r0, #12]
 800a798:	691a      	ldr	r2, [r3, #16]
 800a79a:	2419      	movs	r4, #25
 800a79c:	f422 5240 	bic.w	r2, r2, #12288	; 0x3000
 800a7a0:	430a      	orrs	r2, r1
 800a7a2:	611a      	str	r2, [r3, #16]
 800a7a4:	6882      	ldr	r2, [r0, #8]
 800a7a6:	6900      	ldr	r0, [r0, #16]
 800a7a8:	68d9      	ldr	r1, [r3, #12]
 800a7aa:	4302      	orrs	r2, r0
 800a7ac:	6968      	ldr	r0, [r5, #20]
 800a7ae:	f421 51b0 	bic.w	r1, r1, #5632	; 0x1600
 800a7b2:	f021 010c 	bic.w	r1, r1, #12
 800a7b6:	4302      	orrs	r2, r0
 800a7b8:	430a      	orrs	r2, r1
 800a7ba:	60da      	str	r2, [r3, #12]
 800a7bc:	695a      	ldr	r2, [r3, #20]
 800a7be:	69a9      	ldr	r1, [r5, #24]
 800a7c0:	f422 7240 	bic.w	r2, r2, #768	; 0x300
 800a7c4:	430a      	orrs	r2, r1
 800a7c6:	615a      	str	r2, [r3, #20]
 800a7c8:	4a0d      	ldr	r2, [pc, #52]	; (800a800 <UART_SetConfig+0x70>)
 800a7ca:	4293      	cmp	r3, r2
 800a7cc:	d114      	bne.n	800a7f8 <UART_SetConfig+0x68>
 800a7ce:	f7ff fa3f 	bl	8009c50 <HAL_RCC_GetPCLK2Freq>
 800a7d2:	4360      	muls	r0, r4
 800a7d4:	686c      	ldr	r4, [r5, #4]
 800a7d6:	2264      	movs	r2, #100	; 0x64
 800a7d8:	00a4      	lsls	r4, r4, #2
 800a7da:	fbb0 f0f4 	udiv	r0, r0, r4
 800a7de:	fbb0 f4f2 	udiv	r4, r0, r2
 800a7e2:	fb02 0314 	mls	r3, r2, r4, r0
 800a7e6:	011b      	lsls	r3, r3, #4
 800a7e8:	3332      	adds	r3, #50	; 0x32
 800a7ea:	fbb3 f3f2 	udiv	r3, r3, r2
 800a7ee:	6829      	ldr	r1, [r5, #0]
 800a7f0:	eb03 1304 	add.w	r3, r3, r4, lsl #4
 800a7f4:	608b      	str	r3, [r1, #8]
 800a7f6:	bd38      	pop	{r3, r4, r5, pc}
 800a7f8:	f7ff fa1a 	bl	8009c30 <HAL_RCC_GetPCLK1Freq>
 800a7fc:	e7e9      	b.n	800a7d2 <UART_SetConfig+0x42>
 800a7fe:	bf00      	nop
 800a800:	40013800 	.word	0x40013800

0800a804 <HAL_UART_Init>:
 800a804:	b510      	push	{r4, lr}
 800a806:	4604      	mov	r4, r0
 800a808:	b340      	cbz	r0, 800a85c <HAL_UART_Init+0x58>
 800a80a:	f890 3039 	ldrb.w	r3, [r0, #57]	; 0x39
 800a80e:	f003 02ff 	and.w	r2, r3, #255	; 0xff
 800a812:	b91b      	cbnz	r3, 800a81c <HAL_UART_Init+0x18>
 800a814:	f880 2038 	strb.w	r2, [r0, #56]	; 0x38
 800a818:	f006 fd34 	bl	8011284 <HAL_UART_MspInit>
 800a81c:	2324      	movs	r3, #36	; 0x24
 800a81e:	6822      	ldr	r2, [r4, #0]
 800a820:	f884 3039 	strb.w	r3, [r4, #57]	; 0x39
 800a824:	68d3      	ldr	r3, [r2, #12]
 800a826:	4620      	mov	r0, r4
 800a828:	f423 5300 	bic.w	r3, r3, #8192	; 0x2000
 800a82c:	60d3      	str	r3, [r2, #12]
 800a82e:	f7ff ffaf 	bl	800a790 <UART_SetConfig>
 800a832:	6823      	ldr	r3, [r4, #0]
 800a834:	2000      	movs	r0, #0
 800a836:	691a      	ldr	r2, [r3, #16]
 800a838:	f422 4290 	bic.w	r2, r2, #18432	; 0x4800
 800a83c:	611a      	str	r2, [r3, #16]
 800a83e:	695a      	ldr	r2, [r3, #20]
 800a840:	f022 022a 	bic.w	r2, r2, #42	; 0x2a
 800a844:	615a      	str	r2, [r3, #20]
 800a846:	68da      	ldr	r2, [r3, #12]
 800a848:	f442 5200 	orr.w	r2, r2, #8192	; 0x2000
 800a84c:	60da      	str	r2, [r3, #12]
 800a84e:	2320      	movs	r3, #32
 800a850:	63e0      	str	r0, [r4, #60]	; 0x3c
 800a852:	f884 3039 	strb.w	r3, [r4, #57]	; 0x39
 800a856:	f884 303a 	strb.w	r3, [r4, #58]	; 0x3a
 800a85a:	bd10      	pop	{r4, pc}
 800a85c:	2001      	movs	r0, #1
 800a85e:	bd10      	pop	{r4, pc}

0800a860 <HAL_UART_Receive_IT>:
 800a860:	f890 303a 	ldrb.w	r3, [r0, #58]	; 0x3a
 800a864:	2b20      	cmp	r3, #32
 800a866:	d120      	bne.n	800a8aa <HAL_UART_Receive_IT+0x4a>
 800a868:	b1e9      	cbz	r1, 800a8a6 <HAL_UART_Receive_IT+0x46>
 800a86a:	b1e2      	cbz	r2, 800a8a6 <HAL_UART_Receive_IT+0x46>
 800a86c:	f890 3038 	ldrb.w	r3, [r0, #56]	; 0x38
 800a870:	2b01      	cmp	r3, #1
 800a872:	d01a      	beq.n	800a8aa <HAL_UART_Receive_IT+0x4a>
 800a874:	85c2      	strh	r2, [r0, #46]	; 0x2e
 800a876:	8582      	strh	r2, [r0, #44]	; 0x2c
 800a878:	2300      	movs	r3, #0
 800a87a:	2222      	movs	r2, #34	; 0x22
 800a87c:	63c3      	str	r3, [r0, #60]	; 0x3c
 800a87e:	f880 203a 	strb.w	r2, [r0, #58]	; 0x3a
 800a882:	6802      	ldr	r2, [r0, #0]
 800a884:	6281      	str	r1, [r0, #40]	; 0x28
 800a886:	68d1      	ldr	r1, [r2, #12]
 800a888:	f880 3038 	strb.w	r3, [r0, #56]	; 0x38
 800a88c:	f441 7180 	orr.w	r1, r1, #256	; 0x100
 800a890:	60d1      	str	r1, [r2, #12]
 800a892:	6951      	ldr	r1, [r2, #20]
 800a894:	4618      	mov	r0, r3
 800a896:	f041 0101 	orr.w	r1, r1, #1
 800a89a:	6151      	str	r1, [r2, #20]
 800a89c:	68d1      	ldr	r1, [r2, #12]
 800a89e:	f041 0120 	orr.w	r1, r1, #32
 800a8a2:	60d1      	str	r1, [r2, #12]
 800a8a4:	4770      	bx	lr
 800a8a6:	2001      	movs	r0, #1
 800a8a8:	4770      	bx	lr
 800a8aa:	2002      	movs	r0, #2
 800a8ac:	4770      	bx	lr

0800a8ae <HAL_UART_TxCpltCallback>:
 800a8ae:	4770      	bx	lr

0800a8b0 <HAL_UART_IRQHandler>:
 800a8b0:	b538      	push	{r3, r4, r5, lr}
 800a8b2:	6803      	ldr	r3, [r0, #0]
 800a8b4:	4604      	mov	r4, r0
 800a8b6:	681d      	ldr	r5, [r3, #0]
 800a8b8:	072a      	lsls	r2, r5, #28
 800a8ba:	d004      	beq.n	800a8c6 <HAL_UART_IRQHandler+0x16>
 800a8bc:	685b      	ldr	r3, [r3, #4]
 800a8be:	4a10      	ldr	r2, [pc, #64]	; (800a900 <HAL_UART_IRQHandler+0x50>)
 800a8c0:	b2db      	uxtb	r3, r3
 800a8c2:	7013      	strb	r3, [r2, #0]
 800a8c4:	bd38      	pop	{r3, r4, r5, pc}
 800a8c6:	06a9      	lsls	r1, r5, #26
 800a8c8:	d501      	bpl.n	800a8ce <HAL_UART_IRQHandler+0x1e>
 800a8ca:	f003 fa99 	bl	800de00 <UART_Receive_IT>
 800a8ce:	062a      	lsls	r2, r5, #24
 800a8d0:	d504      	bpl.n	800a8dc <HAL_UART_IRQHandler+0x2c>
 800a8d2:	4620      	mov	r0, r4
 800a8d4:	e8bd 4038 	ldmia.w	sp!, {r3, r4, r5, lr}
 800a8d8:	f003 baa4 	b.w	800de24 <UART_Transmit_IT>
 800a8dc:	066b      	lsls	r3, r5, #25
 800a8de:	d50e      	bpl.n	800a8fe <HAL_UART_IRQHandler+0x4e>
 800a8e0:	6823      	ldr	r3, [r4, #0]
 800a8e2:	4620      	mov	r0, r4
 800a8e4:	68da      	ldr	r2, [r3, #12]
 800a8e6:	f022 0240 	bic.w	r2, r2, #64	; 0x40
 800a8ea:	60da      	str	r2, [r3, #12]
 800a8ec:	68da      	ldr	r2, [r3, #12]
 800a8ee:	f022 0280 	bic.w	r2, r2, #128	; 0x80
 800a8f2:	60da      	str	r2, [r3, #12]
 800a8f4:	2320      	movs	r3, #32
 800a8f6:	f884 3039 	strb.w	r3, [r4, #57]	; 0x39
 800a8fa:	f7ff ffd8 	bl	800a8ae <HAL_UART_TxCpltCallback>
 800a8fe:	bd38      	pop	{r3, r4, r5, pc}
 800a900:	20002978 	.word	0x20002978

0800a904 <USB_CoreInit>:
 800a904:	b084      	sub	sp, #16
 800a906:	a801      	add	r0, sp, #4
 800a908:	e880 000e 	stmia.w	r0, {r1, r2, r3}
 800a90c:	b004      	add	sp, #16
 800a90e:	2000      	movs	r0, #0
 800a910:	4770      	bx	lr

0800a912 <USB_EnableGlobalInt>:
 800a912:	f8b0 3040 	ldrh.w	r3, [r0, #64]	; 0x40
 800a916:	b29b      	uxth	r3, r3
 800a918:	f443 433f 	orr.w	r3, r3, #48896	; 0xbf00
 800a91c:	f8a0 3040 	strh.w	r3, [r0, #64]	; 0x40
 800a920:	2000      	movs	r0, #0
 800a922:	4770      	bx	lr

0800a924 <USB_DisableGlobalInt>:
 800a924:	f8b0 3040 	ldrh.w	r3, [r0, #64]	; 0x40
 800a928:	f423 537c 	bic.w	r3, r3, #16128	; 0x3f00
 800a92c:	045b      	lsls	r3, r3, #17
 800a92e:	0c5b      	lsrs	r3, r3, #17
 800a930:	f8a0 3040 	strh.w	r3, [r0, #64]	; 0x40
 800a934:	2000      	movs	r0, #0
 800a936:	4770      	bx	lr

0800a938 <USB_SetCurrentMode>:
 800a938:	2000      	movs	r0, #0
 800a93a:	4770      	bx	lr

0800a93c <USB_DevInit>:
 800a93c:	b084      	sub	sp, #16
 800a93e:	b510      	push	{r4, lr}
 800a940:	ac03      	add	r4, sp, #12
 800a942:	e884 000e 	stmia.w	r4, {r1, r2, r3}
 800a946:	e8bd 4010 	ldmia.w	sp!, {r4, lr}
 800a94a:	2200      	movs	r2, #0
 800a94c:	2301      	movs	r3, #1
 800a94e:	f8a0 3040 	strh.w	r3, [r0, #64]	; 0x40
 800a952:	f8a0 2040 	strh.w	r2, [r0, #64]	; 0x40
 800a956:	f8a0 2044 	strh.w	r2, [r0, #68]	; 0x44
 800a95a:	f8a0 2050 	strh.w	r2, [r0, #80]	; 0x50
 800a95e:	f8b0 3040 	ldrh.w	r3, [r0, #64]	; 0x40
 800a962:	b004      	add	sp, #16
 800a964:	b29b      	uxth	r3, r3
 800a966:	f443 433f 	orr.w	r3, r3, #48896	; 0xbf00
 800a96a:	f8a0 3040 	strh.w	r3, [r0, #64]	; 0x40
 800a96e:	4610      	mov	r0, r2
 800a970:	4770      	bx	lr
	...

0800a974 <USB_ActivateEndpoint>:
 800a974:	b5f0      	push	{r4, r5, r6, r7, lr}
 800a976:	780d      	ldrb	r5, [r1, #0]
 800a978:	4603      	mov	r3, r0
 800a97a:	f830 2025 	ldrh.w	r2, [r0, r5, lsl #2]
 800a97e:	78c8      	ldrb	r0, [r1, #3]
 800a980:	f422 42ec 	bic.w	r2, r2, #30208	; 0x7600
 800a984:	f022 0270 	bic.w	r2, r2, #112	; 0x70
 800a988:	0412      	lsls	r2, r2, #16
 800a98a:	0c12      	lsrs	r2, r2, #16
 800a98c:	2803      	cmp	r0, #3
 800a98e:	d84e      	bhi.n	800aa2e <USB_ActivateEndpoint+0xba>
 800a990:	e8df f000 	tbb	[pc, r0]
 800a994:	47044a02 	.word	0x47044a02
 800a998:	f442 7200 	orr.w	r2, r2, #512	; 0x200
 800a99c:	2000      	movs	r0, #0
 800a99e:	f248 0480 	movw	r4, #32896	; 0x8080
 800a9a2:	4322      	orrs	r2, r4
 800a9a4:	f823 2025 	strh.w	r2, [r3, r5, lsl #2]
 800a9a8:	780e      	ldrb	r6, [r1, #0]
 800a9aa:	4dab      	ldr	r5, [pc, #684]	; (800ac58 <USB_ActivateEndpoint+0x2e4>)
 800a9ac:	f833 2026 	ldrh.w	r2, [r3, r6, lsl #2]
 800a9b0:	4334      	orrs	r4, r6
 800a9b2:	b292      	uxth	r2, r2
 800a9b4:	402a      	ands	r2, r5
 800a9b6:	4322      	orrs	r2, r4
 800a9b8:	f823 2026 	strh.w	r2, [r3, r6, lsl #2]
 800a9bc:	7b0c      	ldrb	r4, [r1, #12]
 800a9be:	780a      	ldrb	r2, [r1, #0]
 800a9c0:	2c00      	cmp	r4, #0
 800a9c2:	f040 8088 	bne.w	800aad6 <USB_ActivateEndpoint+0x162>
 800a9c6:	784e      	ldrb	r6, [r1, #1]
 800a9c8:	88cc      	ldrh	r4, [r1, #6]
 800a9ca:	b396      	cbz	r6, 800aa32 <USB_ActivateEndpoint+0xbe>
 800a9cc:	f8b3 6050 	ldrh.w	r6, [r3, #80]	; 0x50
 800a9d0:	eb03 1202 	add.w	r2, r3, r2, lsl #4
 800a9d4:	f024 0401 	bic.w	r4, r4, #1
 800a9d8:	b2b6      	uxth	r6, r6
 800a9da:	f502 6280 	add.w	r2, r2, #1024	; 0x400
 800a9de:	b2a4      	uxth	r4, r4
 800a9e0:	5394      	strh	r4, [r2, r6]
 800a9e2:	780c      	ldrb	r4, [r1, #0]
 800a9e4:	f833 2024 	ldrh.w	r2, [r3, r4, lsl #2]
 800a9e8:	0656      	lsls	r6, r2, #25
 800a9ea:	d509      	bpl.n	800aa00 <USB_ActivateEndpoint+0x8c>
 800a9ec:	f833 2024 	ldrh.w	r2, [r3, r4, lsl #2]
 800a9f0:	b292      	uxth	r2, r2
 800a9f2:	402a      	ands	r2, r5
 800a9f4:	f442 4200 	orr.w	r2, r2, #32768	; 0x8000
 800a9f8:	f042 02c0 	orr.w	r2, r2, #192	; 0xc0
 800a9fc:	f823 2024 	strh.w	r2, [r3, r4, lsl #2]
 800aa00:	78ca      	ldrb	r2, [r1, #3]
 800aa02:	7809      	ldrb	r1, [r1, #0]
 800aa04:	2a01      	cmp	r2, #1
 800aa06:	f833 2021 	ldrh.w	r2, [r3, r1, lsl #2]
 800aa0a:	4c94      	ldr	r4, [pc, #592]	; (800ac5c <USB_ActivateEndpoint+0x2e8>)
 800aa0c:	b292      	uxth	r2, r2
 800aa0e:	ea02 0204 	and.w	r2, r2, r4
 800aa12:	d001      	beq.n	800aa18 <USB_ActivateEndpoint+0xa4>
 800aa14:	f082 0220 	eor.w	r2, r2, #32
 800aa18:	f442 4200 	orr.w	r2, r2, #32768	; 0x8000
 800aa1c:	f042 0280 	orr.w	r2, r2, #128	; 0x80
 800aa20:	e0cb      	b.n	800abba <USB_ActivateEndpoint+0x246>
 800aa22:	f442 62c0 	orr.w	r2, r2, #1536	; 0x600
 800aa26:	e7b9      	b.n	800a99c <USB_ActivateEndpoint+0x28>
 800aa28:	f442 6280 	orr.w	r2, r2, #1024	; 0x400
 800aa2c:	e7b6      	b.n	800a99c <USB_ActivateEndpoint+0x28>
 800aa2e:	2001      	movs	r0, #1
 800aa30:	e7b5      	b.n	800a99e <USB_ActivateEndpoint+0x2a>
 800aa32:	f8b3 5050 	ldrh.w	r5, [r3, #80]	; 0x50
 800aa36:	eb03 1202 	add.w	r2, r3, r2, lsl #4
 800aa3a:	f024 0401 	bic.w	r4, r4, #1
 800aa3e:	b2ad      	uxth	r5, r5
 800aa40:	f502 6281 	add.w	r2, r2, #1032	; 0x408
 800aa44:	b2a4      	uxth	r4, r4
 800aa46:	5354      	strh	r4, [r2, r5]
 800aa48:	780a      	ldrb	r2, [r1, #0]
 800aa4a:	f8b3 6050 	ldrh.w	r6, [r3, #80]	; 0x50
 800aa4e:	690d      	ldr	r5, [r1, #16]
 800aa50:	eb03 1202 	add.w	r2, r3, r2, lsl #4
 800aa54:	b2b6      	uxth	r6, r6
 800aa56:	f202 420c 	addw	r2, r2, #1036	; 0x40c
 800aa5a:	bb5d      	cbnz	r5, 800aab4 <USB_ActivateEndpoint+0x140>
 800aa5c:	5b94      	ldrh	r4, [r2, r6]
 800aa5e:	f424 44f8 	bic.w	r4, r4, #31744	; 0x7c00
 800aa62:	0424      	lsls	r4, r4, #16
 800aa64:	0c24      	lsrs	r4, r4, #16
 800aa66:	5394      	strh	r4, [r2, r6]
 800aa68:	5b94      	ldrh	r4, [r2, r6]
 800aa6a:	ea6f 4444 	mvn.w	r4, r4, lsl #17
 800aa6e:	ea6f 4454 	mvn.w	r4, r4, lsr #17
 800aa72:	b2a4      	uxth	r4, r4
 800aa74:	5394      	strh	r4, [r2, r6]
 800aa76:	780c      	ldrb	r4, [r1, #0]
 800aa78:	f833 2024 	ldrh.w	r2, [r3, r4, lsl #2]
 800aa7c:	0455      	lsls	r5, r2, #17
 800aa7e:	d50d      	bpl.n	800aa9c <USB_ActivateEndpoint+0x128>
 800aa80:	f833 2024 	ldrh.w	r2, [r3, r4, lsl #2]
 800aa84:	f422 42e0 	bic.w	r2, r2, #28672	; 0x7000
 800aa88:	f022 0270 	bic.w	r2, r2, #112	; 0x70
 800aa8c:	0412      	lsls	r2, r2, #16
 800aa8e:	0c12      	lsrs	r2, r2, #16
 800aa90:	f442 4240 	orr.w	r2, r2, #49152	; 0xc000
 800aa94:	f042 0280 	orr.w	r2, r2, #128	; 0x80
 800aa98:	f823 2024 	strh.w	r2, [r3, r4, lsl #2]
 800aa9c:	7809      	ldrb	r1, [r1, #0]
 800aa9e:	f833 2021 	ldrh.w	r2, [r3, r1, lsl #2]
 800aaa2:	f422 4280 	bic.w	r2, r2, #16384	; 0x4000
 800aaa6:	f022 0270 	bic.w	r2, r2, #112	; 0x70
 800aaaa:	0412      	lsls	r2, r2, #16
 800aaac:	0c12      	lsrs	r2, r2, #16
 800aaae:	f482 5240 	eor.w	r2, r2, #12288	; 0x3000
 800aab2:	e7b1      	b.n	800aa18 <USB_ActivateEndpoint+0xa4>
 800aab4:	2d3e      	cmp	r5, #62	; 0x3e
 800aab6:	d805      	bhi.n	800aac4 <USB_ActivateEndpoint+0x150>
 800aab8:	086c      	lsrs	r4, r5, #1
 800aaba:	07ed      	lsls	r5, r5, #31
 800aabc:	bf48      	it	mi
 800aabe:	3401      	addmi	r4, #1
 800aac0:	02a4      	lsls	r4, r4, #10
 800aac2:	e7d6      	b.n	800aa72 <USB_ActivateEndpoint+0xfe>
 800aac4:	096f      	lsrs	r7, r5, #5
 800aac6:	06ec      	lsls	r4, r5, #27
 800aac8:	4c65      	ldr	r4, [pc, #404]	; (800ac60 <USB_ActivateEndpoint+0x2ec>)
 800aaca:	bf08      	it	eq
 800aacc:	f107 37ff 	addeq.w	r7, r7, #4294967295
 800aad0:	ea44 2487 	orr.w	r4, r4, r7, lsl #10
 800aad4:	e7cd      	b.n	800aa72 <USB_ActivateEndpoint+0xfe>
 800aad6:	f833 4022 	ldrh.w	r4, [r3, r2, lsl #2]
 800aada:	b2a4      	uxth	r4, r4
 800aadc:	402c      	ands	r4, r5
 800aade:	f444 4401 	orr.w	r4, r4, #33024	; 0x8100
 800aae2:	f044 0480 	orr.w	r4, r4, #128	; 0x80
 800aae6:	f823 4022 	strh.w	r4, [r3, r2, lsl #2]
 800aaea:	780a      	ldrb	r2, [r1, #0]
 800aaec:	890c      	ldrh	r4, [r1, #8]
 800aaee:	f8b3 6050 	ldrh.w	r6, [r3, #80]	; 0x50
 800aaf2:	eb03 1202 	add.w	r2, r3, r2, lsl #4
 800aaf6:	f024 0401 	bic.w	r4, r4, #1
 800aafa:	b2b6      	uxth	r6, r6
 800aafc:	f502 6280 	add.w	r2, r2, #1024	; 0x400
 800ab00:	b2a4      	uxth	r4, r4
 800ab02:	5394      	strh	r4, [r2, r6]
 800ab04:	780a      	ldrb	r2, [r1, #0]
 800ab06:	894c      	ldrh	r4, [r1, #10]
 800ab08:	f8b3 6050 	ldrh.w	r6, [r3, #80]	; 0x50
 800ab0c:	eb03 1202 	add.w	r2, r3, r2, lsl #4
 800ab10:	f024 0401 	bic.w	r4, r4, #1
 800ab14:	f502 6281 	add.w	r2, r2, #1032	; 0x408
 800ab18:	b2a4      	uxth	r4, r4
 800ab1a:	b2b6      	uxth	r6, r6
 800ab1c:	5394      	strh	r4, [r2, r6]
 800ab1e:	784a      	ldrb	r2, [r1, #1]
 800ab20:	780c      	ldrb	r4, [r1, #0]
 800ab22:	2a00      	cmp	r2, #0
 800ab24:	d14c      	bne.n	800abc0 <USB_ActivateEndpoint+0x24c>
 800ab26:	f833 2024 	ldrh.w	r2, [r3, r4, lsl #2]
 800ab2a:	0452      	lsls	r2, r2, #17
 800ab2c:	d509      	bpl.n	800ab42 <USB_ActivateEndpoint+0x1ce>
 800ab2e:	f833 2024 	ldrh.w	r2, [r3, r4, lsl #2]
 800ab32:	b292      	uxth	r2, r2
 800ab34:	402a      	ands	r2, r5
 800ab36:	f442 4240 	orr.w	r2, r2, #49152	; 0xc000
 800ab3a:	f042 0280 	orr.w	r2, r2, #128	; 0x80
 800ab3e:	f823 2024 	strh.w	r2, [r3, r4, lsl #2]
 800ab42:	780c      	ldrb	r4, [r1, #0]
 800ab44:	f833 2024 	ldrh.w	r2, [r3, r4, lsl #2]
 800ab48:	0657      	lsls	r7, r2, #25
 800ab4a:	d50d      	bpl.n	800ab68 <USB_ActivateEndpoint+0x1f4>
 800ab4c:	f833 2024 	ldrh.w	r2, [r3, r4, lsl #2]
 800ab50:	f422 42e0 	bic.w	r2, r2, #28672	; 0x7000
 800ab54:	f022 0270 	bic.w	r2, r2, #112	; 0x70
 800ab58:	0412      	lsls	r2, r2, #16
 800ab5a:	0c12      	lsrs	r2, r2, #16
 800ab5c:	f442 4200 	orr.w	r2, r2, #32768	; 0x8000
 800ab60:	f042 02c0 	orr.w	r2, r2, #192	; 0xc0
 800ab64:	f823 2024 	strh.w	r2, [r3, r4, lsl #2]
 800ab68:	780c      	ldrb	r4, [r1, #0]
 800ab6a:	f833 2024 	ldrh.w	r2, [r3, r4, lsl #2]
 800ab6e:	f422 42e0 	bic.w	r2, r2, #28672	; 0x7000
 800ab72:	f022 0270 	bic.w	r2, r2, #112	; 0x70
 800ab76:	0412      	lsls	r2, r2, #16
 800ab78:	0c12      	lsrs	r2, r2, #16
 800ab7a:	f442 4200 	orr.w	r2, r2, #32768	; 0x8000
 800ab7e:	f042 02c0 	orr.w	r2, r2, #192	; 0xc0
 800ab82:	f823 2024 	strh.w	r2, [r3, r4, lsl #2]
 800ab86:	f248 0480 	movw	r4, #32896	; 0x8080
 800ab8a:	780d      	ldrb	r5, [r1, #0]
 800ab8c:	f833 2025 	ldrh.w	r2, [r3, r5, lsl #2]
 800ab90:	f422 4280 	bic.w	r2, r2, #16384	; 0x4000
 800ab94:	f022 0270 	bic.w	r2, r2, #112	; 0x70
 800ab98:	0412      	lsls	r2, r2, #16
 800ab9a:	0c12      	lsrs	r2, r2, #16
 800ab9c:	f482 5240 	eor.w	r2, r2, #12288	; 0x3000
 800aba0:	4322      	orrs	r2, r4
 800aba2:	f823 2025 	strh.w	r2, [r3, r5, lsl #2]
 800aba6:	7809      	ldrb	r1, [r1, #0]
 800aba8:	f833 2021 	ldrh.w	r2, [r3, r1, lsl #2]
 800abac:	f422 42e0 	bic.w	r2, r2, #28672	; 0x7000
 800abb0:	f022 0240 	bic.w	r2, r2, #64	; 0x40
 800abb4:	0412      	lsls	r2, r2, #16
 800abb6:	0c12      	lsrs	r2, r2, #16
 800abb8:	4322      	orrs	r2, r4
 800abba:	f823 2021 	strh.w	r2, [r3, r1, lsl #2]
 800abbe:	bdf0      	pop	{r4, r5, r6, r7, pc}
 800abc0:	f833 2024 	ldrh.w	r2, [r3, r4, lsl #2]
 800abc4:	0456      	lsls	r6, r2, #17
 800abc6:	d509      	bpl.n	800abdc <USB_ActivateEndpoint+0x268>
 800abc8:	f833 2024 	ldrh.w	r2, [r3, r4, lsl #2]
 800abcc:	b292      	uxth	r2, r2
 800abce:	402a      	ands	r2, r5
 800abd0:	f442 4240 	orr.w	r2, r2, #49152	; 0xc000
 800abd4:	f042 0280 	orr.w	r2, r2, #128	; 0x80
 800abd8:	f823 2024 	strh.w	r2, [r3, r4, lsl #2]
 800abdc:	780c      	ldrb	r4, [r1, #0]
 800abde:	f833 2024 	ldrh.w	r2, [r3, r4, lsl #2]
 800abe2:	0652      	lsls	r2, r2, #25
 800abe4:	d50d      	bpl.n	800ac02 <USB_ActivateEndpoint+0x28e>
 800abe6:	f833 2024 	ldrh.w	r2, [r3, r4, lsl #2]
 800abea:	f422 42e0 	bic.w	r2, r2, #28672	; 0x7000
 800abee:	f022 0270 	bic.w	r2, r2, #112	; 0x70
 800abf2:	0412      	lsls	r2, r2, #16
 800abf4:	0c12      	lsrs	r2, r2, #16
 800abf6:	f442 4200 	orr.w	r2, r2, #32768	; 0x8000
 800abfa:	f042 02c0 	orr.w	r2, r2, #192	; 0xc0
 800abfe:	f823 2024 	strh.w	r2, [r3, r4, lsl #2]
 800ac02:	780c      	ldrb	r4, [r1, #0]
 800ac04:	4d15      	ldr	r5, [pc, #84]	; (800ac5c <USB_ActivateEndpoint+0x2e8>)
 800ac06:	f833 2024 	ldrh.w	r2, [r3, r4, lsl #2]
 800ac0a:	f422 42e0 	bic.w	r2, r2, #28672	; 0x7000
 800ac0e:	f022 0270 	bic.w	r2, r2, #112	; 0x70
 800ac12:	0412      	lsls	r2, r2, #16
 800ac14:	0c12      	lsrs	r2, r2, #16
 800ac16:	f442 4240 	orr.w	r2, r2, #49152	; 0xc000
 800ac1a:	f042 0280 	orr.w	r2, r2, #128	; 0x80
 800ac1e:	f823 2024 	strh.w	r2, [r3, r4, lsl #2]
 800ac22:	78ca      	ldrb	r2, [r1, #3]
 800ac24:	780c      	ldrb	r4, [r1, #0]
 800ac26:	2a01      	cmp	r2, #1
 800ac28:	f833 2024 	ldrh.w	r2, [r3, r4, lsl #2]
 800ac2c:	b292      	uxth	r2, r2
 800ac2e:	ea02 0205 	and.w	r2, r2, r5
 800ac32:	bf18      	it	ne
 800ac34:	f082 0220 	eorne.w	r2, r2, #32
 800ac38:	f442 4200 	orr.w	r2, r2, #32768	; 0x8000
 800ac3c:	f042 0280 	orr.w	r2, r2, #128	; 0x80
 800ac40:	f823 2024 	strh.w	r2, [r3, r4, lsl #2]
 800ac44:	7809      	ldrb	r1, [r1, #0]
 800ac46:	f833 2021 	ldrh.w	r2, [r3, r1, lsl #2]
 800ac4a:	f422 4280 	bic.w	r2, r2, #16384	; 0x4000
 800ac4e:	f022 0270 	bic.w	r2, r2, #112	; 0x70
 800ac52:	0412      	lsls	r2, r2, #16
 800ac54:	0c12      	lsrs	r2, r2, #16
 800ac56:	e6df      	b.n	800aa18 <USB_ActivateEndpoint+0xa4>
 800ac58:	ffff8f8f 	.word	0xffff8f8f
 800ac5c:	ffff8fbf 	.word	0xffff8fbf
 800ac60:	ffff8000 	.word	0xffff8000

0800ac64 <USB_DeactivateEndpoint>:
 800ac64:	b510      	push	{r4, lr}
 800ac66:	7b0c      	ldrb	r4, [r1, #12]
 800ac68:	784b      	ldrb	r3, [r1, #1]
 800ac6a:	780a      	ldrb	r2, [r1, #0]
 800ac6c:	2c00      	cmp	r4, #0
 800ac6e:	d13d      	bne.n	800acec <USB_DeactivateEndpoint+0x88>
 800ac70:	b313      	cbz	r3, 800acb8 <USB_DeactivateEndpoint+0x54>
 800ac72:	f830 3022 	ldrh.w	r3, [r0, r2, lsl #2]
 800ac76:	065c      	lsls	r4, r3, #25
 800ac78:	d50d      	bpl.n	800ac96 <USB_DeactivateEndpoint+0x32>
 800ac7a:	f830 3022 	ldrh.w	r3, [r0, r2, lsl #2]
 800ac7e:	f423 43e0 	bic.w	r3, r3, #28672	; 0x7000
 800ac82:	f023 0370 	bic.w	r3, r3, #112	; 0x70
 800ac86:	041b      	lsls	r3, r3, #16
 800ac88:	0c1b      	lsrs	r3, r3, #16
 800ac8a:	f443 4300 	orr.w	r3, r3, #32768	; 0x8000
 800ac8e:	f043 03c0 	orr.w	r3, r3, #192	; 0xc0
 800ac92:	f820 3022 	strh.w	r3, [r0, r2, lsl #2]
 800ac96:	780a      	ldrb	r2, [r1, #0]
 800ac98:	f830 3022 	ldrh.w	r3, [r0, r2, lsl #2]
 800ac9c:	f423 43e0 	bic.w	r3, r3, #28672	; 0x7000
 800aca0:	f023 0340 	bic.w	r3, r3, #64	; 0x40
 800aca4:	041b      	lsls	r3, r3, #16
 800aca6:	0c1b      	lsrs	r3, r3, #16
 800aca8:	f443 4300 	orr.w	r3, r3, #32768	; 0x8000
 800acac:	f043 0380 	orr.w	r3, r3, #128	; 0x80
 800acb0:	f820 3022 	strh.w	r3, [r0, r2, lsl #2]
 800acb4:	2000      	movs	r0, #0
 800acb6:	bd10      	pop	{r4, pc}
 800acb8:	f830 3022 	ldrh.w	r3, [r0, r2, lsl #2]
 800acbc:	045b      	lsls	r3, r3, #17
 800acbe:	d50d      	bpl.n	800acdc <USB_DeactivateEndpoint+0x78>
 800acc0:	f830 3022 	ldrh.w	r3, [r0, r2, lsl #2]
 800acc4:	f423 43e0 	bic.w	r3, r3, #28672	; 0x7000
 800acc8:	f023 0370 	bic.w	r3, r3, #112	; 0x70
 800accc:	041b      	lsls	r3, r3, #16
 800acce:	0c1b      	lsrs	r3, r3, #16
 800acd0:	f443 4340 	orr.w	r3, r3, #49152	; 0xc000
 800acd4:	f043 0380 	orr.w	r3, r3, #128	; 0x80
 800acd8:	f820 3022 	strh.w	r3, [r0, r2, lsl #2]
 800acdc:	780a      	ldrb	r2, [r1, #0]
 800acde:	f830 3022 	ldrh.w	r3, [r0, r2, lsl #2]
 800ace2:	f423 4380 	bic.w	r3, r3, #16384	; 0x4000
 800ace6:	f023 0370 	bic.w	r3, r3, #112	; 0x70
 800acea:	e7db      	b.n	800aca4 <USB_DeactivateEndpoint+0x40>
 800acec:	2b00      	cmp	r3, #0
 800acee:	d14e      	bne.n	800ad8e <USB_DeactivateEndpoint+0x12a>
 800acf0:	f830 3022 	ldrh.w	r3, [r0, r2, lsl #2]
 800acf4:	045c      	lsls	r4, r3, #17
 800acf6:	d50d      	bpl.n	800ad14 <USB_DeactivateEndpoint+0xb0>
 800acf8:	f830 3022 	ldrh.w	r3, [r0, r2, lsl #2]
 800acfc:	f423 43e0 	bic.w	r3, r3, #28672	; 0x7000
 800ad00:	f023 0370 	bic.w	r3, r3, #112	; 0x70
 800ad04:	041b      	lsls	r3, r3, #16
 800ad06:	0c1b      	lsrs	r3, r3, #16
 800ad08:	f443 4340 	orr.w	r3, r3, #49152	; 0xc000
 800ad0c:	f043 0380 	orr.w	r3, r3, #128	; 0x80
 800ad10:	f820 3022 	strh.w	r3, [r0, r2, lsl #2]
 800ad14:	780a      	ldrb	r2, [r1, #0]
 800ad16:	f830 3022 	ldrh.w	r3, [r0, r2, lsl #2]
 800ad1a:	065b      	lsls	r3, r3, #25
 800ad1c:	d50d      	bpl.n	800ad3a <USB_DeactivateEndpoint+0xd6>
 800ad1e:	f830 3022 	ldrh.w	r3, [r0, r2, lsl #2]
 800ad22:	f423 43e0 	bic.w	r3, r3, #28672	; 0x7000
 800ad26:	f023 0370 	bic.w	r3, r3, #112	; 0x70
 800ad2a:	041b      	lsls	r3, r3, #16
 800ad2c:	0c1b      	lsrs	r3, r3, #16
 800ad2e:	f443 4300 	orr.w	r3, r3, #32768	; 0x8000
 800ad32:	f043 03c0 	orr.w	r3, r3, #192	; 0xc0
 800ad36:	f820 3022 	strh.w	r3, [r0, r2, lsl #2]
 800ad3a:	780a      	ldrb	r2, [r1, #0]
 800ad3c:	f830 3022 	ldrh.w	r3, [r0, r2, lsl #2]
 800ad40:	f423 43e0 	bic.w	r3, r3, #28672	; 0x7000
 800ad44:	f023 0370 	bic.w	r3, r3, #112	; 0x70
 800ad48:	041b      	lsls	r3, r3, #16
 800ad4a:	0c1b      	lsrs	r3, r3, #16
 800ad4c:	f443 4300 	orr.w	r3, r3, #32768	; 0x8000
 800ad50:	f043 03c0 	orr.w	r3, r3, #192	; 0xc0
 800ad54:	f820 3022 	strh.w	r3, [r0, r2, lsl #2]
 800ad58:	f248 0280 	movw	r2, #32896	; 0x8080
 800ad5c:	780c      	ldrb	r4, [r1, #0]
 800ad5e:	f830 3024 	ldrh.w	r3, [r0, r4, lsl #2]
 800ad62:	f423 4380 	bic.w	r3, r3, #16384	; 0x4000
 800ad66:	f023 0370 	bic.w	r3, r3, #112	; 0x70
 800ad6a:	041b      	lsls	r3, r3, #16
 800ad6c:	0c1b      	lsrs	r3, r3, #16
 800ad6e:	4313      	orrs	r3, r2
 800ad70:	f820 3024 	strh.w	r3, [r0, r4, lsl #2]
 800ad74:	7809      	ldrb	r1, [r1, #0]
 800ad76:	f830 3021 	ldrh.w	r3, [r0, r1, lsl #2]
 800ad7a:	f423 43e0 	bic.w	r3, r3, #28672	; 0x7000
 800ad7e:	f023 0340 	bic.w	r3, r3, #64	; 0x40
 800ad82:	041b      	lsls	r3, r3, #16
 800ad84:	0c1b      	lsrs	r3, r3, #16
 800ad86:	4313      	orrs	r3, r2
 800ad88:	f820 3021 	strh.w	r3, [r0, r1, lsl #2]
 800ad8c:	e792      	b.n	800acb4 <USB_DeactivateEndpoint+0x50>
 800ad8e:	f830 3022 	ldrh.w	r3, [r0, r2, lsl #2]
 800ad92:	045c      	lsls	r4, r3, #17
 800ad94:	d50d      	bpl.n	800adb2 <USB_DeactivateEndpoint+0x14e>
 800ad96:	f830 3022 	ldrh.w	r3, [r0, r2, lsl #2]
 800ad9a:	f423 43e0 	bic.w	r3, r3, #28672	; 0x7000
 800ad9e:	f023 0370 	bic.w	r3, r3, #112	; 0x70
 800ada2:	041b      	lsls	r3, r3, #16
 800ada4:	0c1b      	lsrs	r3, r3, #16
 800ada6:	f443 4340 	orr.w	r3, r3, #49152	; 0xc000
 800adaa:	f043 0380 	orr.w	r3, r3, #128	; 0x80
 800adae:	f820 3022 	strh.w	r3, [r0, r2, lsl #2]
 800adb2:	780a      	ldrb	r2, [r1, #0]
 800adb4:	f830 3022 	ldrh.w	r3, [r0, r2, lsl #2]
 800adb8:	065b      	lsls	r3, r3, #25
 800adba:	d50d      	bpl.n	800add8 <USB_DeactivateEndpoint+0x174>
 800adbc:	f830 3022 	ldrh.w	r3, [r0, r2, lsl #2]
 800adc0:	f423 43e0 	bic.w	r3, r3, #28672	; 0x7000
 800adc4:	f023 0370 	bic.w	r3, r3, #112	; 0x70
 800adc8:	041b      	lsls	r3, r3, #16
 800adca:	0c1b      	lsrs	r3, r3, #16
 800adcc:	f443 4300 	orr.w	r3, r3, #32768	; 0x8000
 800add0:	f043 03c0 	orr.w	r3, r3, #192	; 0xc0
 800add4:	f820 3022 	strh.w	r3, [r0, r2, lsl #2]
 800add8:	780a      	ldrb	r2, [r1, #0]
 800adda:	f830 3022 	ldrh.w	r3, [r0, r2, lsl #2]
 800adde:	f423 43e0 	bic.w	r3, r3, #28672	; 0x7000
 800ade2:	f023 0370 	bic.w	r3, r3, #112	; 0x70
 800ade6:	041b      	lsls	r3, r3, #16
 800ade8:	0c1b      	lsrs	r3, r3, #16
 800adea:	f443 4340 	orr.w	r3, r3, #49152	; 0xc000
 800adee:	f043 0380 	orr.w	r3, r3, #128	; 0x80
 800adf2:	f820 3022 	strh.w	r3, [r0, r2, lsl #2]
 800adf6:	f248 0280 	movw	r2, #32896	; 0x8080
 800adfa:	780c      	ldrb	r4, [r1, #0]
 800adfc:	f830 3024 	ldrh.w	r3, [r0, r4, lsl #2]
 800ae00:	f423 43e0 	bic.w	r3, r3, #28672	; 0x7000
 800ae04:	f023 0340 	bic.w	r3, r3, #64	; 0x40
 800ae08:	041b      	lsls	r3, r3, #16
 800ae0a:	0c1b      	lsrs	r3, r3, #16
 800ae0c:	4313      	orrs	r3, r2
 800ae0e:	f820 3024 	strh.w	r3, [r0, r4, lsl #2]
 800ae12:	7809      	ldrb	r1, [r1, #0]
 800ae14:	f830 3021 	ldrh.w	r3, [r0, r1, lsl #2]
 800ae18:	f423 4380 	bic.w	r3, r3, #16384	; 0x4000
 800ae1c:	f023 0370 	bic.w	r3, r3, #112	; 0x70
 800ae20:	e7af      	b.n	800ad82 <USB_DeactivateEndpoint+0x11e>

0800ae22 <USB_EPSetStall>:
 800ae22:	784b      	ldrb	r3, [r1, #1]
 800ae24:	780a      	ldrb	r2, [r1, #0]
 800ae26:	b18b      	cbz	r3, 800ae4c <USB_EPSetStall+0x2a>
 800ae28:	f830 3022 	ldrh.w	r3, [r0, r2, lsl #2]
 800ae2c:	f423 43e0 	bic.w	r3, r3, #28672	; 0x7000
 800ae30:	f023 0340 	bic.w	r3, r3, #64	; 0x40
 800ae34:	041b      	lsls	r3, r3, #16
 800ae36:	0c1b      	lsrs	r3, r3, #16
 800ae38:	f083 0310 	eor.w	r3, r3, #16
 800ae3c:	f443 4300 	orr.w	r3, r3, #32768	; 0x8000
 800ae40:	f043 0380 	orr.w	r3, r3, #128	; 0x80
 800ae44:	f820 3022 	strh.w	r3, [r0, r2, lsl #2]
 800ae48:	2000      	movs	r0, #0
 800ae4a:	4770      	bx	lr
 800ae4c:	f830 3022 	ldrh.w	r3, [r0, r2, lsl #2]
 800ae50:	f423 4380 	bic.w	r3, r3, #16384	; 0x4000
 800ae54:	f023 0370 	bic.w	r3, r3, #112	; 0x70
 800ae58:	041b      	lsls	r3, r3, #16
 800ae5a:	0c1b      	lsrs	r3, r3, #16
 800ae5c:	f483 5380 	eor.w	r3, r3, #4096	; 0x1000
 800ae60:	e7ec      	b.n	800ae3c <USB_EPSetStall+0x1a>

0800ae62 <USB_EPClearStall>:
 800ae62:	7b0b      	ldrb	r3, [r1, #12]
 800ae64:	bb43      	cbnz	r3, 800aeb8 <USB_EPClearStall+0x56>
 800ae66:	784b      	ldrb	r3, [r1, #1]
 800ae68:	780a      	ldrb	r2, [r1, #0]
 800ae6a:	b33b      	cbz	r3, 800aebc <USB_EPClearStall+0x5a>
 800ae6c:	f830 3022 	ldrh.w	r3, [r0, r2, lsl #2]
 800ae70:	065b      	lsls	r3, r3, #25
 800ae72:	d50d      	bpl.n	800ae90 <USB_EPClearStall+0x2e>
 800ae74:	f830 3022 	ldrh.w	r3, [r0, r2, lsl #2]
 800ae78:	f423 43e0 	bic.w	r3, r3, #28672	; 0x7000
 800ae7c:	f023 0370 	bic.w	r3, r3, #112	; 0x70
 800ae80:	041b      	lsls	r3, r3, #16
 800ae82:	0c1b      	lsrs	r3, r3, #16
 800ae84:	f443 4300 	orr.w	r3, r3, #32768	; 0x8000
 800ae88:	f043 03c0 	orr.w	r3, r3, #192	; 0xc0
 800ae8c:	f820 3022 	strh.w	r3, [r0, r2, lsl #2]
 800ae90:	78cb      	ldrb	r3, [r1, #3]
 800ae92:	2b01      	cmp	r3, #1
 800ae94:	d010      	beq.n	800aeb8 <USB_EPClearStall+0x56>
 800ae96:	780a      	ldrb	r2, [r1, #0]
 800ae98:	f830 3022 	ldrh.w	r3, [r0, r2, lsl #2]
 800ae9c:	f423 43e0 	bic.w	r3, r3, #28672	; 0x7000
 800aea0:	f023 0340 	bic.w	r3, r3, #64	; 0x40
 800aea4:	041b      	lsls	r3, r3, #16
 800aea6:	0c1b      	lsrs	r3, r3, #16
 800aea8:	f083 0320 	eor.w	r3, r3, #32
 800aeac:	f443 4300 	orr.w	r3, r3, #32768	; 0x8000
 800aeb0:	f043 0380 	orr.w	r3, r3, #128	; 0x80
 800aeb4:	f820 3022 	strh.w	r3, [r0, r2, lsl #2]
 800aeb8:	2000      	movs	r0, #0
 800aeba:	4770      	bx	lr
 800aebc:	f830 3022 	ldrh.w	r3, [r0, r2, lsl #2]
 800aec0:	045b      	lsls	r3, r3, #17
 800aec2:	d50d      	bpl.n	800aee0 <USB_EPClearStall+0x7e>
 800aec4:	f830 3022 	ldrh.w	r3, [r0, r2, lsl #2]
 800aec8:	f423 43e0 	bic.w	r3, r3, #28672	; 0x7000
 800aecc:	f023 0370 	bic.w	r3, r3, #112	; 0x70
 800aed0:	041b      	lsls	r3, r3, #16
 800aed2:	0c1b      	lsrs	r3, r3, #16
 800aed4:	f443 4340 	orr.w	r3, r3, #49152	; 0xc000
 800aed8:	f043 0380 	orr.w	r3, r3, #128	; 0x80
 800aedc:	f820 3022 	strh.w	r3, [r0, r2, lsl #2]
 800aee0:	780a      	ldrb	r2, [r1, #0]
 800aee2:	f830 3022 	ldrh.w	r3, [r0, r2, lsl #2]
 800aee6:	f423 4380 	bic.w	r3, r3, #16384	; 0x4000
 800aeea:	f023 0370 	bic.w	r3, r3, #112	; 0x70
 800aeee:	041b      	lsls	r3, r3, #16
 800aef0:	0c1b      	lsrs	r3, r3, #16
 800aef2:	f483 5340 	eor.w	r3, r3, #12288	; 0x3000
 800aef6:	e7d9      	b.n	800aeac <USB_EPClearStall+0x4a>

0800aef8 <USB_SetDevAddress>:
 800aef8:	b911      	cbnz	r1, 800af00 <USB_SetDevAddress+0x8>
 800aefa:	2380      	movs	r3, #128	; 0x80
 800aefc:	f8a0 304c 	strh.w	r3, [r0, #76]	; 0x4c
 800af00:	2000      	movs	r0, #0
 800af02:	4770      	bx	lr

0800af04 <USB_DevConnect>:
 800af04:	2000      	movs	r0, #0
 800af06:	4770      	bx	lr

0800af08 <USB_DevDisconnect>:
 800af08:	2000      	movs	r0, #0
 800af0a:	4770      	bx	lr

0800af0c <USB_ReadInterrupts>:
 800af0c:	f8b0 0044 	ldrh.w	r0, [r0, #68]	; 0x44
 800af10:	b280      	uxth	r0, r0
 800af12:	4770      	bx	lr

0800af14 <USB_EP0_OutStart>:
 800af14:	2000      	movs	r0, #0
 800af16:	4770      	bx	lr

0800af18 <USB_WritePMA>:
 800af18:	eb00 0242 	add.w	r2, r0, r2, lsl #1
 800af1c:	3301      	adds	r3, #1
 800af1e:	f502 6280 	add.w	r2, r2, #1024	; 0x400
 800af22:	085b      	lsrs	r3, r3, #1
 800af24:	eb02 0383 	add.w	r3, r2, r3, lsl #2
 800af28:	429a      	cmp	r2, r3
 800af2a:	d100      	bne.n	800af2e <USB_WritePMA+0x16>
 800af2c:	4770      	bx	lr
 800af2e:	f831 0b02 	ldrh.w	r0, [r1], #2
 800af32:	f822 0b04 	strh.w	r0, [r2], #4
 800af36:	e7f7      	b.n	800af28 <USB_WritePMA+0x10>

0800af38 <USB_EPStartXfer>:
 800af38:	b570      	push	{r4, r5, r6, lr}
 800af3a:	460d      	mov	r5, r1
 800af3c:	7849      	ldrb	r1, [r1, #1]
 800af3e:	4604      	mov	r4, r0
 800af40:	2901      	cmp	r1, #1
 800af42:	69aa      	ldr	r2, [r5, #24]
 800af44:	692b      	ldr	r3, [r5, #16]
 800af46:	7b28      	ldrb	r0, [r5, #12]
 800af48:	d166      	bne.n	800b018 <USB_EPStartXfer+0xe0>
 800af4a:	429a      	cmp	r2, r3
 800af4c:	bf9d      	ittte	ls
 800af4e:	2300      	movls	r3, #0
 800af50:	61ab      	strls	r3, [r5, #24]
 800af52:	4613      	movls	r3, r2
 800af54:	1ad2      	subhi	r2, r2, r3
 800af56:	bf88      	it	hi
 800af58:	61aa      	strhi	r2, [r5, #24]
 800af5a:	b29e      	uxth	r6, r3
 800af5c:	bb08      	cbnz	r0, 800afa2 <USB_EPStartXfer+0x6a>
 800af5e:	4633      	mov	r3, r6
 800af60:	88ea      	ldrh	r2, [r5, #6]
 800af62:	6969      	ldr	r1, [r5, #20]
 800af64:	4620      	mov	r0, r4
 800af66:	f7ff ffd7 	bl	800af18 <USB_WritePMA>
 800af6a:	f8b4 3050 	ldrh.w	r3, [r4, #80]	; 0x50
 800af6e:	782a      	ldrb	r2, [r5, #0]
 800af70:	b299      	uxth	r1, r3
 800af72:	f204 4304 	addw	r3, r4, #1028	; 0x404
 800af76:	0112      	lsls	r2, r2, #4
 800af78:	440b      	add	r3, r1
 800af7a:	52d6      	strh	r6, [r2, r3]
 800af7c:	782a      	ldrb	r2, [r5, #0]
 800af7e:	f834 3022 	ldrh.w	r3, [r4, r2, lsl #2]
 800af82:	f423 43e0 	bic.w	r3, r3, #28672	; 0x7000
 800af86:	f023 0340 	bic.w	r3, r3, #64	; 0x40
 800af8a:	041b      	lsls	r3, r3, #16
 800af8c:	0c1b      	lsrs	r3, r3, #16
 800af8e:	f083 0330 	eor.w	r3, r3, #48	; 0x30
 800af92:	f443 4300 	orr.w	r3, r3, #32768	; 0x8000
 800af96:	f043 0380 	orr.w	r3, r3, #128	; 0x80
 800af9a:	f824 3022 	strh.w	r3, [r4, r2, lsl #2]
 800af9e:	2000      	movs	r0, #0
 800afa0:	bd70      	pop	{r4, r5, r6, pc}
 800afa2:	782b      	ldrb	r3, [r5, #0]
 800afa4:	4620      	mov	r0, r4
